:020000040800F2
:1000000098270020CD0100080D290008B90200083A
:100010000929000889050008232B000800000000BA
:10002000000000000000000000000000DF010008E8
:1000300031080008000000003B020008F129000818
:10004000E7010008E7010008E7010008AD29000802
:10005000E7010008E7010008330800083D08000830
:100060004708000851080008E7010008F5070008E4
:10007000E7010008E7010008E7010008E7010008C0
:10008000E7010008E7010008E7010008E7010008B0
:10009000E7010008E7010008E7010008E7010008A0
:1000A000E7010008E7010008E7010008E701000890
:1000B000E7010008E7010008E7010008E701000880
:1000C000E7010008E7010008E7010008E701000870
:1000D000E7010008E7010008E7010008E701000860
:1000E000E7010008E7010008E7010008E701000850
:1000F000E7010008E7010008E7010008E701000840
:10010000E7010008E7010008E7010008E70100082F
:10011000E7010008E7010008E7010008E70100081F
:10012000E7010008E7010008E7010008E70100080F
:1001300000F002F800F03AF80AA090E8000C8244BF
:100140008344AAF10107DA4501D100F02FF8AFF29C
:10015000090EBAE80F0013F0010F18BFFB1A43F0A5
:1001600001031847EC7000000C710000103A24BF26
:1001700078C878C1FAD8520724BF30C830C144BF0C
:1001800004680C607047000000230024002500264E
:10019000103A28BF78C1FBD8520728BF30C148BFEA
:1001A0000B6070471FB51FBD10B510BD00F0EEF815
:1001B0001146FFF7F7FF00F01EF900F00CF903B449
:1001C000FFF7F2FF03BC00F00FF900000948804779
:1001D00009480047FEE7FEE7FEE7FEE7FEE7FEE729
:1001E000FEE7FEE7FEE7FEE704480549054A064B41
:1001F00070470000212B00083101000898210020E1
:10020000982700209823002098230020EFF31080E7
:1002100072B6704780F310887047344A1368012B18
:1002200004D04FF001031360314A1060314A11606D
:1002300031484FF0805101607047EFF3108272B681
:100240002A48016891B14FF0000101602848016817
:1002500029B1EFF3098121E9F00F00680160254918
:1002600009680968B1E8F00F81F3098882F3108802
:100270004EF0040E70471F4908601D494FF0000002
:1002800008601A494FF0010008601C481C49D0F86A
:10029000002041EA0201016017484FF080510160DF
:1002A00018480068006880F3088861B662B6BFF33A
:1002B0004F8FBFF36F8F70471EF0040F0CBFEFF32B
:1002C0000880EFF3098020E9F00F40F804ED1EF0FC
:1002D000040F0CBF80F3088880F3098800B504F090
:1002E0008BF95DF804EB4EF0040E70478C00002093
:1002F000840000208800002004ED00E020ED00E0F4
:100300000000FFFF08ED00E0B2F120030AD5C2F1C2
:10031000200320FA02F001FA03F321FA02F140EA85
:100320000300704721FA03F04FF0000170474FF0CF
:10033000000200B5134694469646203922BFA0E835
:100340000C50A0E80C50B1F12001BFF4F7AF090741
:1003500028BFA0E80C5048BF0CC05DF804EB890032
:1003600028BF40F8042B08BF704748BF20F8022B75
:1003700011F0804F18BF00F8012B7047704770478D
:100380007047000000487047382100207546FFF78D
:10039000F9FFAE4605006946534620F00700854642
:1003A00018B020B5FFF720FFBDE820404FF0000651
:1003B0004FF000074FF000084FF0000B21F007014D
:1003C000AC46ACE8C009ACE8C009ACE8C009ACE890
:1003D000C0098D46704710B50446AFF30080204633
:1003E000BDE81040FFF7EBBE01491820ABBEFEE7A9
:1003F00026000200704710B505F035FA002010BD48
:1004000070B5044600252068806800F0010018B32C
:100410002068806820F001002168886001F0F0FA0F
:10042000054613E001F0ECFA401B02280ED92068C3
:10043000806800F0010048B1A06A40F01000A0629E
:10044000E06A40F00100E062012070BD2068806831
:1004500000F001000028E5D10020F6E770B5054660
:100460006C6AA06A00F05000E0B9A06A40F4007025
:10047000A0622068806800F46020B0F5602F0DD184
:10048000207B58B9A06A20F48070A062A06A00F4B2
:10049000805018B9A06A40F00100A062204600F028
:1004A000CFFB03E0206A016B2846884770BD70B51A
:1004B00005466C6AA06A40F04000A062E06A40F025
:1004C0000400E062204600F0BDFB70BD70B504463C
:1004D000656A284600F0B5FB70BD000038B50446DB
:1004E0000025002000902068806800F0010078BBA3
:1004F0002068806840F00100216888601948006821
:100500001949B0FBF1F0009002E00098401E009005
:1005100000980028F9D101F073FA054619E001F0BE
:100520006FFA401B022814D92068806800F001008F
:1005300078B9A06A40F01000A062E06A40F00100C3
:10054000E06200BF002084F8240000BF012038BD15
:1005500005E02068806800F001000028DFD000205E
:10056000F5E700008000002040420F00054A1168B6
:1005700000E0C96B0029FCD1024A1268C263014A3B
:10058000106070470000002000BFFEE710B503298F
:1005900002D10123C37503E0042901D10223C375ED
:1005A00005290AD1002305E000F11C0444F82320AA
:1005B0005C1CE3B2052BF7DB03E000F11C0343F8FE
:1005C000212010BD2DE9F04105460C4616461F4678
:1005D00040212046FFF7ABFE10222946201D02F0E5
:1005E000EDF9207D20F00F00C01D2075207D20F04A
:1005F000F000703020750720A0752660607D67F3DD
:100600000100607520688047617D60F3830161753A
:10061000002084F837002046FFF7A8FFBDE8F081EE
:1006200070B50446206880470546607DC0F38100B0
:10063000A84226D094F83700401CC0B284F8370096
:1006400002281EDB607D65F383006075002084F85E
:100650003700607D00F00300A8420DD1207D20F01E
:100660000F0020750020A075207E50B9E06940B1D0
:100670002046E169884704E0207D20F00F00401CFF
:100680002075207D00F00F0010B1012879D154E0D1
:10069000607DC0F38100617D01F00301884200D0DC
:1006A00070E0E07D012802D0022844D12AE094F8CD
:1006B0003500401CC0B284F83500322821DB3220DE
:1006C000343460702078401CC0B204F83409052826
:1006D00009DB002084F834000320A075A06A10B163
:1006E0002046A16A884794F83600401CC0B284F8BE
:1006F0003600962805DB962084F836000120224932
:10070000087018E094F83800401CC0B284F8380033
:100710004B280FDB4B2084F8380094F8390048B997
:10072000012084F839000420A075E06A10B1204649
:10073000E16A884700BF00BF24E0207E012807D17E
:1007400094F8390020B9E06910B12046E169884782
:10075000002084F8340084F8350084F8360084F8EA
:10076000380084F8390008490870207D20F00F0017
:10077000C01D2075207D20F0F0007030207501E054
:10078000FFE700BF00BF70BD0400002010B50548A2
:10079000046803E02046FFF743FFE46B002CF9D127
:1007A00010BD00000000002000B97047017600BFB6
:1007B000FBE700001FB514200F214FF40072084B17
:1007C000CDE90032CDE902100023064A06A108480F
:1007D00004F044FC064804F0ABFC002004B010BD5B
:1007E0008401002085310008627574746F6E00000A
:1007F0000C01002010B5024800F004FC10BD000000
:100800004417002030B590F840500124AC40C56B2F
:100810006C60046863604468102C04D10468A260B2
:100820000468E16003E00468A1600468E26030BD30
:10083000704710B5012000F01DFF10BD10B502205B
:1008400000F018FF10BD10B5042000F013FF10BD1C
:1008500010B5082000F00EFF10BD72B600BFFEE715
:100860000021074AD1610749096941F00401054A9D
:1008700011611146096941F04001116170470000A2
:10088000A0170020002002400021074AD16107493B
:10089000096941F00201054A11611146486109697F
:1008A00041F0400111617047A01700200020024074
:1008B0000022054BDA61054A126942F00102034B3E
:1008C0001A61018070470000A0170020002002403C
:1008D00000201E49C96801F0100139B11C49C969DD
:1008E00041F002011A4AD16140F010001749C9686D
:1008F00001F0040139B11649C96941F00101144AF6
:10090000D16140F004001149C96901F0010169B1E8
:100910000F49C96941F004010D4AD16100BF0B497B
:10092000C96921F00101094AD16100BF00BF40F24D
:100930000111884206D10549C96921F00101034A24
:10094000D16101E00149C86000BF7047002002404A
:10095000A017002070B5044601F052F8054609E0E2
:10096000601C38B124B101F04BF8401BA04201D902
:10097000032070BD1248C06800F001000028EFD1CC
:100980000F48C06800F0200020B100BF20200C49B3
:10099000C86000BF0A48C06800F0100048B90848A5
:1009A000C06900F0010020B90548C06800F00400EB
:1009B00018B1FFF78DFF0120DBE70020D9E7000029
:1009C00000200240F8B5044600260020009000BF39
:1009D00094F82400012801D10220F8BD012084F8F8
:1009E000240000BF2046FFF70BFD06462046FFF718
:1009F00075FD0646002E69D1A06A20F4885040F0AB
:100A00000200A062022001F0DDF834490968B1FB60
:100A1000F0F04000009002E00098401E0090009826
:100A20000028F9D12068806840F0080021688860BB
:100A300000F0E6FF054616E000F0E2FF401B0A2842
:100A400011D92068806800F0080060B1A06A20F029
:100A5000020040F01000A06200BF002084F82400D3
:100A600000BF0120B9E72068806800F00800002876
:100A7000E2D12068806840F004002168886000F0BE
:100A8000BFFF054616E000F0BBFF401B0A2811D946
:100A90002068806800F0040060B1A06A20F00200C5
:100AA00040F01000A06200BF002084F8240000BFC6
:100AB000012092E72068806800F004000028E2D15D
:100AC000A06A20F0020040F00100A06200BF0020F8
:100AD00084F8240000BF30467FE70000800000203B
:100AE00038B5024600230020009000BF92F8240091
:100AF000012801D1022038BD012082F8240000BF66
:100B00004868072812D21068406B0C79641E04EB09
:100B100084051F24AC40A0430D796D1E05EB8505AF
:100B20000C68AC4020431468606327E048680D28D7
:100B300012D21068006B0C79E41F04EB84051F24AB
:100B4000AC40A0430D79ED1F05EB85050C68AC406A
:100B500020431468206311E01068C06A0C790D3CD2
:100B600004EB84051F24AC40A0430D790D3D05EB3B
:100B700085050C68AC4020431468E06208680A28C8
:100B800012D31068C0680C780A3C04EB44050724B3
:100B9000AC40A0430D780A3D05EB45058C68AC40A0
:100BA00020431468E0600FE0106800690C7804EBE3
:100BB00044050724AC40A0430D7805EB45058C683F
:100BC000AC402043146820610868102802D00868EF
:100BD000112827D1174C1068A0421ED110688068D8
:100BE00000F40000F0B91068806840F40000146858
:100BF000A0600868102815D10F4800680F4CB0FBA2
:100C0000F4F000EB80004000009002E00098401EED
:100C1000009000980028F9D104E0906A40F020008C
:100C20009062012300BF002082F8240000BF184614
:100C300061E70000002401408000002040420F00D6
:100C400070477047704700002DE9F04104460027C7
:100C500000250026A84614B90120BDE8F081A0684F
:100C600010B1207D00B100BFA06A30B90020E06261
:100C700084F82400204600F097F82046FFF7C0FBD8
:100C80000746A06A00F01000002873D1002F7ED123
:100C9000A06A20F4885040F00200A0623F4AD4E9E4
:100CA0000001904208D1E069B0F5402F02D14FF425
:100CB000002002E0E06900E0E0690143207B41EAB6
:100CC00040000643A068B0F5807F02D0A0680128EC
:100CD00002D14FF4807000E000200543207D012800
:100CE00011D1207B38B9A069401E4FF4006141EA60
:100CF0004030054307E0A06A40F02000A062E06AAF
:100D000040F00100E0622068406820F46940284318
:100D10002168486020688068214908403043216884
:100D20008860A068B0F5807F02D0A068012802D159
:100D30004FF4807000E00020B0F5807F03D1208A5E
:100D4000401E4FEA00582068C06A20F4700040EA54
:100D500008002168C8622068806812490840B042D3
:100D600009D10020E062A06A20F0020040F00100FA
:100D7000A06211E00BE0A06A20F0020040F0100039
:100D8000A062E06A40F00100E062012704E0A06A8E
:100D900040F01000A062012738465EE7003C0140A9
:100DA000FDF7E1FFFE0E1FFF10B586B004460020E0
:100DB00002900390049005902C492068884253D1FA
:100DC00000BF2B48806940F40070294988610846BB
:100DD000806900F40070019000BF00BF00BF0846AA
:100DE000806940F0040088610846806900F00400D2
:100DF000019000BF00BF00BF0846806940F00800B6
:100E000088610846806900F00800019000BF00BFBB
:100E1000402002900320039002A9164800F038FCFD
:100E2000012002900320039002A9134800F030FC37
:100E30001248134908600020486000211048816072
:100E40008021C160490001618900416120218161E7
:100E50000021C16100F0A2FA08B1FFF7FEFC00BF5B
:100E600007482062446200BF06B010BD0024014064
:100E70000010024000080140000C01400800024040
:100E8000441700202DE9F04104460D461646002780
:100E900057492068884203D056492068884205D1C6
:100EA0005348001D006800F4702000E00020002876
:100EB0007ED100BF94F82400012802D10220BDE8B1
:100EC000F081012084F8240000BF2046FFF706FBD4
:100ED0000746002F6DD1A06A40F60161884340F4B7
:100EE0008070A06243492068884209D14048001DB3
:100EF000006800F4702008B9012002E0002000E042
:100F0000012078B1A06A20F48010A06220684068B7
:100F100000F4806000B3A06A20F4005040F48050D8
:100F2000A06219E0A06A40F48010A06230492068F5
:100F3000884203D02F492068884205D12C48001DE3
:100F4000006800F4806000E0002028B1A06A20F46E
:100F5000005040F48050A062A06A00F4805020B19C
:100F6000E06A20F00600E06201E00020E06200BFDD
:100F7000002084F8240000BF1F48216A88621F48AF
:100F8000216AC8621E48216A08636FF00200216866
:100F900008602068806840F480702168886022685A
:100FA00002F14C0133462A46206A00F03DFA01E086
:100FB0001AE014E02068806800F46020B0F5602F2B
:100FC00006D12068806840F4A000216888600CE0A9
:100FD0002068806840F480102168886005E000BFC8
:100FE000002084F8240000E00127384667E700006D
:100FF00000240140002801405D040008CD040008E1
:10100000AF04000870B50446E06B05682068066808
:1010100094F84010042088402840002875D006F03D
:1010200004000028FAD02068006800F0200028B9E9
:101030002068006820F0040021680860D549206815
:10104000884254D9D34978392068884201D1042094
:1010500049E0D04964392068884201D1402042E00B
:10106000CC4950392068884201D100153BE0C9497C
:101070003C392068884202D14FF4804033E0C549B2
:1010800028392068884202D14FF480202BE0C149E2
:1010900014392068884202D14FF4800023E0BD4912
:1010A0002068884201D1C0041DE0BB492068884205
:1010B00001D1042017E0B84914312068884201D1D9
:1010C000402010E0B44928312068884201D1001541
:1010D00009E0B1493C312068884202D14FF4804098
:1010E00001E04FF48020AC49091F086054E0A94991
:1010F00078392068884201D104204AE0A549643942
:101100002068884202D1402043E04CE0A149503998
:101110002068884201D100153BE09E493C39206897
:10112000884202D14FF4804033E09A492839206840
:10113000884202D14FF480202BE096491439206870
:10114000884202D14FF4800023E09249206888420F
:1011500001D1C0041DE090492068884201D10420DB
:1011600017E08D4914312068884201D1402010E0F9
:10117000894928312068884201D1001509E0864953
:101180003C312068884202D14FF4804001E04FF4A6
:101190008020804980394860E06A002802D02046DB
:1011A000E16A8847F4E094F8401002208840284023
:1011B000002871D006F002000028FAD020680068EC
:1011C00000F0200040B92068006820F00A00216883
:1011D0000860012084F821006E492068884254D9B3
:1011E0006C4978392068884201D1022049E0694978
:1011F00064392068884201D1202042E06549503995
:101200002068884201D140153BE062493C392068A2
:10121000884202D14FF4005033E05E4928392068FB
:10122000884202D14FF400302BE05A49143920682B
:10123000884202D14FF4001023E0564920688842CA
:1012400001D180041DE054492068884201D1022068
:1012500017E0514914312068884201D1202010E064
:101260004D4928312068884201D1401509E04A499A
:101270003C312068884202D14FF4005001E04FF425
:1012800000304549091F086054E042497839206818
:10129000884202D102204AE057E03E496439206882
:1012A000884201D1202042E03A49503920688842E2
:1012B00001D140153BE037493C392068884202D1D2
:1012C0004FF4005033E0334928392068884202D176
:1012D0004FF400302BE02F4914392068884202D1A6
:1012E0004FF4001023E02B492068884201D180048C
:1012F0001DE029492068884201D1022017E02649D3
:1013000014312068884201D1202010E02249283180
:101310002068884201D1401509E01F493C3120680E
:10132000884202D14FF4005001E04FF400301949D7
:101330008039486000BF002084F8200000BFA06A08
:1013400030B32046A16A884722E094F84010082074
:1013500088402840E0B106F00800C8B12068006865
:1013600020F00E002168086094F8401001208840A9
:10137000E16B48600120A06384F8210000BF0020D9
:1013800084F8200000BF206B10B12046216B8847F5
:1013900070BD0000800002400804024001460022A7
:1013A00009B9012070471E4B086898420BD21D4BAB
:1013B0000868C01A1423B0FBF3F0800008641948D1
:1013C0000838C8630AE0164B0868C01A1423B0FB3B
:1013D000F3F08000086412480838C863022081F8DE
:1013E00021000868026843F6F0708243D1E90103E6
:1013F0001843CB6818430B6918434B6918438B6932
:101400001843CB69184302430868026000208863D0
:10141000012081F82100002081F8200000BFC1E7F1
:1014200008040240080002402DE9F04104460D4640
:1014300016461F464FF0000800BF94F82000012810
:1014400002D10220BDE8F081012084F8200000BF15
:1014500094F8210001282CD1022084F821000020DA
:10146000A0632068006820F00100216808603B4606
:10147000324629462046FFF7C5F9E06A30B12068B8
:10148000006840F00E00216808600BE020680068EA
:1014900020F00400216808602068006840F00A001D
:1014A000216808602068006840F001002168086039
:1014B00006E000BF002084F8200000BF4FF00208C3
:1014C0004046BFE72DE9F04104460E4601270025BE
:1014D00000BF2648007E012802D10220BDE8F0812D
:1014E00001202249087600BF2068022813D14CF25F
:1014F0005030FFF72FFA90BB0120FFF7B1F94CF203
:101500005030FFF727FA07461948006920F0040019
:101510001749086123E04CF25030FFF71BFAF0B98D
:101520004FF0FF303060A56812E02846FFF7ACF9B5
:101530004CF25030FFF70EFA07460D48006920F0D4
:1015400002000B4908610FB1356007E005F5006541
:10155000D4E9021001EBC020A842E6D800BF00BFCA
:1015600000200249087600BF3846B7E7A0170020E0
:10157000002002400348006940F0800001490861F2
:1015800000207047002002402DE9FE4F05468B46A3
:1015900017469846012600240020029000BF2448E8
:1015A000007E012802D10220BDE8FE8F01202049E3
:1015B000087600BF4CF25030FFF7CCF9064686BBE8
:1015C000012D02D10120029006E0022D02D102205D
:1015D000029001E00420029000241EE02201B9469E
:1015E000C24648465146FEF78FFE80B20190022067
:1015F00000FB04B000900199FFF75AF94CF250300B
:10160000FFF7A8F906460B48006920F001000949D8
:10161000086106B104E0601CC4B202988442DDDBBC
:1016200000BF00BF00200249087600BF3046BBE77C
:10163000A01700200020024000200849096901F09D
:10164000800151B10649054A516006495160114671
:10165000096901F0800101B10120704700200240BA
:1016600023016745AB89EFCD10B5044602F01CFAA3
:1016700010BD000010B5044604480068204020B1A9
:10168000024804602046FFF7EFFF10BD140401403C
:101690002DE9F847024600239C467BE14FF0010804
:1016A00008FA03F4D1F8008008EA0400A0427DD1D2
:1016B000DFF8F4A2D1F80480A8EB0A09D0453AD0AB
:1016C00014DCB8F1030F50D009DCB8F1000F31D0B1
:1016D000B8F1010F1CD0B8F1020F49D120E0B8F1E8
:1016E000110F18D0B8F1120F42D11EE0B9F5881FC2
:1016F00025D006DCB9F5803F20D0B9F5801F37D161
:101700001AE0B9F5001F18D0B9F5041F30D117E061
:10171000D1F80CC02DE0D1F80C8008F1040C28E0C1
:10172000D1F80C8008F1080C23E0D1F80C8008F106
:101730000C0C1EE000BF00BF00BF00BF00BF00BF19
:10174000D1F80880B8F1000F02D14FF0040C0BE083
:10175000D1F80880B8F1010F03D14FF0080C1461E3
:1017600002E04FF0080C546103E04FF0000C00E081
:1017700000BF00BFFF2801D8904601E002F1040835
:101780004646FF2802D84FEA830803E0A3F1080881
:101790004FEA88084746D6F800804FF00F0909FA4B
:1017A00007F928EA09080CFA07F900E07AE048EAA4
:1017B0000908C6F80080D1F8048008F08058B8F114
:1017C000805F6FD100BFDFF8E481D8F8188048F05F
:1017D0000108DFF8D891C9F81880C846D8F81880F1
:1017E00008F00108CDF8008000BF00BF4FEAB9380B
:1017F0004FEA930958F829504FEA83784FEA18794D
:101800004FF00F0808FA09F825EA0805DFF8A0816B
:10181000424502D14FF0000824E0DFF898814245AC
:1018200002D14FF001081DE0DFF88C81424502D162
:101830004FF0020816E0DFF88481424502D14FF0F4
:1018400003080FE0DFF87881424502D14FF0040829
:1018500008E0DFF87081424502D14FF0050801E051
:101860004FF006084FEA83794FEA197908FA09F828
:1018700048EA0505DFF850814FEA930948F82950F6
:10188000D1F8048008F48018B8F5801F0BD1DFF878
:101890003C81D8F8008048EA0008DFF83091C9F8A8
:1018A00000800AE075E0DFF82481D8F8008028EA9B
:1018B0000008DFF81891C9F80080D1F8048008F416
:1018C0000018B8F5001F0ED1DFF8008108F10408F8
:1018D000D8F8008048EA0008DFF8F09009F1040920
:1018E000C9F800800DE0DFF8E48008F10408D8F8BA
:1018F000008028EA0008DFF8D49009F10409C9F84B
:101900000080D1F8048008F40038B8F5003F0ED10B
:10191000DFF8B880A8F10408D8F8008048EA000889
:10192000DFF8A890A9F10409C9F800800DE0DFF8FC
:101930009C80A8F10408D8F8008028EA0008DFF8A5
:101940008C90A9F10409C9F80080D1F8048008F44A
:101950008038B8F5803F0ED1DFF87080A8F1080814
:10196000D8F8008048EA0008DFF86090A9F108097B
:10197000C9F800800DE0DFF85480A8F10808D8F815
:10198000008028EA0008DFF84490A9F10809C9F8A6
:1019900000805B1CD1F8008028FA03F8B8F1000F32
:1019A0007FF47CAEBDE8F887000011100010024003
:1019B00000080140000C01400010014000140140EB
:1019C00000180140001C01400800014008040140CB
:1019D000024693680B400BB1012000E000207047E5
:1019E00010B5C26821EA020302EA010443EA044393
:1019F000036110BD0AB1016101E00B04036170478E
:101A000001480068704700007400002010B50848C5
:101A1000006840F0100006490860032000F0A8F8B4
:101A2000002000F007F800F02BF8002010BD0000A7
:101A30000020024070B504460E4800784FF47A71D9
:101A4000B1FBF0F00C490968B1FBF0F5284600F055
:101A500023FE08B1012070BD102C07D200222146C0
:101A6000501E00F047F80548046001E00120F2E74D
:101A70000020F0E77C00002080000020780000209B
:101A800008B500BF1148806940F001000F49886126
:101A90000846806900F00100009000BF00BF00BF51
:101AA0000846C06940F08050C8610846C06900F02F
:101AB0008050009000BF00BF00BF0549486820F07B
:101AC000E06040F00070486000BF08BD00100240B8
:101AD0000000014001460846002809DB00F01F0312
:101AE00001229A4043099B0003F1E023C3F800213F
:101AF00000BF70472DE9F05F80460D46164600276F
:101B000001F012F8074639462A46334601F007002D
:101B1000C0F1070ABAF1040F02D94FF0040A01E03C
:101B2000C0F1070AD14600F1040ABAF1070F02D248
:101B30004FF0000A01E0A0F1030AD4464FF0010A79
:101B40000AFA09FAAAF1010A0AEA020A0AFA0CFADE
:101B50004FF0010B0BFA0CFBABF1010B0BEA030B83
:101B60004AEA0B042146404600F0E6FFBDE8F09F3C
:101B700000BF00F00702064B19684FF6FF0319403B
:101B8000044B0B4343EA0221014B196000BF70472D
:101B90000CED00E00000FA050120014908627047E1
:101BA00000000E42064A126822F00402044B1A603A
:101BB000012901D130BF02E040BF20BF20BF7047E4
:101BC00010ED00E02DE9F04706464FF00008002533
:101BD00000270024A146042E37D004DC012E3CD07F
:101BE000022E6CD160E0082E33D0102E67D136481B
:101BF0004468006800F0807008B33448C4F383413F
:101C0000475C04F4803078B12F484068C0F340400E
:101C10002F4911F8008004F4803040B12D48B0FB0A
:101C2000F8F000FB07F502E02B4807FB00F526481B
:101C3000406800F48000B0F5800F01D1A94603E0B0
:101C400068000321B0FBF1F93AE000F0BBF98146EE
:101C500036E000F0B7F9814632E01B48046A04F42C
:101C60004070B0F5807F05D104F0020010B14FF450
:101C7000004918E004F44070B0F5007F07D1124825
:101C8000406A00F0020010B149F640490BE004F44C
:101C90004070B0F5407F06D10B48006800F400307A
:101CA00008B14FF224490BE000F07CF9064949687D
:101CB000C1F38131491C4900B0FBF1F900E000BFDC
:101CC00000BF4846BDE8F08700100240D970000808
:101CD000E970000800127A0000093D00F8B50446DA
:101CE00000260025207800F0010000286BD0002796
:101CF0004348C06900F0805070B900BF4048C069D7
:101D000040F080503E49C8610846C06900F08050EC
:101D1000009000BF00BF01273A48006800F48070BF
:101D2000B0B93848006840F4807036490860FFF761
:101D300067FE064606E0FFF763FE801B642801D9B4
:101D40000320F8BD2F48006800F480700028F2D00E
:101D50002B48006A00F440752DB3A08800F4407051
:101D6000A84220D02648006A20F440750120264968
:101D70000860002008602248056205F0010090B16B
:101D8000FFF73EFE064608E0FFF73AFE801B41F2F1
:101D90008831884201D90320D3E71948006A00F04E
:101DA00002000028F0D01648006A20F440706168F4
:101DB000084313490862012F04D10846C06920F086
:101DC0008050C86100BF207800F00200022807D1CF
:101DD0000B48406820F44040A16808430849486027
:101DE000207800F01000102807D10548406820F442
:101DF000800061690843024948600020A1E70000B3
:101E000000100240007000404004424270B5044699
:101E10000D460CB9012070BD5A48006800F007005B
:101E2000A8420ED25748006820F0070028435549C1
:101E300008600846006800F00700A84201D00120B1
:101E4000E9E7207800F0020002281DD1207800F098
:101E50000400042805D14C48406840F4E0604A4939
:101E60004860207800F00800082805D146484068FE
:101E700040F46050444948604348406820F0F00016
:101E8000A168084340494860207800F0010078B319
:101E90006068012806D13C48006800F4003090B921
:101EA0000120B8E76068022806D13748006800F0D2
:101EB000007040B90120AEE73348006800F002002E
:101EC00008B90120A7E73048406820F003006168A6
:101ED00008432D494860FFF793FD064609E0FFF7E8
:101EE0008FFD801B41F28831884202D9032092E79E
:101EF00007E02548406800F00C006168B0EB810FF6
:101F0000EDD12048006800F00700A8420ED91D4816
:101F1000006820F0070028431A4908600846006856
:101F200000F00700A84201D0012074E7207800F0FB
:101F30000400042807D11448406820F4E060E168F8
:101F4000084311494860207800F00800082808D1AB
:101F50000D48406820F46050216940EAC1000A49F8
:101F6000486000F02FF808494968C1F30311074A97
:101F7000515CC8400649086006480068FFF75AFDF2
:101F8000002048E70020024000100240EB700008EB
:101F900080000020780000200148006870470000A1
:101FA0008000002000B5FFF7F7FF04494968C1F33E
:101FB000C221034A515CC84000BD0000001002402D
:101FC000FB70000870B500210022002400230020CF
:101FD000134D696801F00C05F5B1042D02D0082DF0
:101FE00019D101E00F4819E00F4DC1F38346AB5DF5
:101FF00001F4803555B10A4D6D68C5F340450B4E6F
:10200000725D084D5D43B5FBF2F402E0084D03FB41
:1020100005F4204602E000BF024800BF00BF70BDCB
:102020000010024000127A00C7700008D770000844
:1020300000093D00F8B504460CB90120F8BD207830
:1020400000F00100002878D0F848406800F00C004B
:1020500004280CD0F548406800F00C00082811D185
:10206000F248406800F48030B0F5803F0AD1EF4874
:10207000006800F4003000285FD0606800285CD160
:102080000120DBE700BF6068B0F5803F06D1E7487C
:10209000006840F48030E549086028E0606858B97D
:1020A000E248006820F48030E04908600846006893
:1020B00020F4802008601AE06068B0F5A02F0BD1F2
:1020C000DA48006840F48020D84908600846006873
:1020D00040F4803008600AE0D448006820F4803082
:1020E000D24908600846006820F48020086000BFDC
:1020F000606888B1FFF784FC054606E0FFF780FCC6
:10210000401B642801D9032098E7C848006800F400
:1021100000300028F2D010E0FFF772FC054606E020
:10212000FFF76EFC401B642801D9032086E7BF48F7
:10213000006800F400300028F2D1207800F002009E
:10214000022857D1B948406800F00C0050B1B74898
:10215000406800F00C00082818D1B448406800F42A
:10216000803098B9B148006800F0020020B12069C1
:10217000012801D0012061E7AC48006820F0F80098
:10218000616940EAC100A949086033E02069E8B10B
:102190000120A7490860FFF733FC054606E0FFF77A
:1021A0002FFC401B022801D9032047E79F48006805
:1021B00000F002000028F2D09C48006820F0F800EF
:1021C000616940EAC1009949086013E0002098491C
:1021D0000860FFF715FC054606E0FFF711FC401B01
:1021E000022801D9032029E79048006800F0020086
:1021F0000028F2D1207800F0080008282DD1A0692D
:10220000B8B101208B490860FFF7FAFB054606E0EC
:10221000FFF7F6FB401B022801D903200EE7834895
:10222000406A00F002000028F2D0012000F070FBAC
:1022300013E000207F490860FFF7E2FB054606E057
:10224000FFF7DEFB401B022801D90320F6E67748A2
:10225000406A00F002000028F2D1207800F004006B
:10226000042873D100277148C06900F0805070B90C
:1022700000BF6E48C06940F080506C49C861084694
:10228000C06900F08050009000BF00BF01276A487D
:10229000006800F48070B0B96748006840F480704E
:1022A00065490860FFF7ACFB054606E0FFF7A8FBB1
:1022B000401B642801D90320C0E65F48006800F491
:1022C00080700028F2D000BFE068012806D157488E
:1022D000006A40F001005549086227E0E06858B9FB
:1022E0005248006A20F00100504908620846006A1E
:1022F00020F00400086219E0E06805280BD14B4883
:10230000006A40F00400494908620846006A40F04B
:10231000010008620AE04548006A20F001004349D4
:1023200008620846006A20F00400086200BFE06806
:10233000A0B1FFF765FB054609E0FFF761FB401B15
:1023400041F28831884202D9032077E622E03748FB
:10235000006A00F002000028EFD012E0FFF750FB07
:10236000054608E0FFF74CFB401B41F288318842EC
:1023700001D9032062E62D48006A00F0020000281F
:10238000F0D1012F05D12948C06920F0805027499C
:10239000C86100BFE069C8B32448406800F00C0081
:1023A000082860D0E069022848D10020204908664A
:1023B000FFF726FB054606E0FFF722FB401B02283D
:1023C00001D903203AE61948006800F0007000289F
:1023D000F2D1206AB0F5803F07D11448406820F45C
:1023E0000030A168084311494860D4E90801084356
:1023F0000E49496821F4741108430C4948600120D2
:102400000B490866FFF7FCFA054607E03DE0FFF7D9
:10241000F7FA401B022801D903200FE603480068A1
:1024200000F000700028F2D02FE000000010024001
:1024300000004242800442420070004000201449E3
:102440000866FFF7DDFA054606E0FFF7D9FA401BFC
:10245000022801D90320F1E50E48006800F0007061
:102460000028F2D111E0E069012800D1E6E5094831
:10247000466806F48031206A814204D106F4701166
:10248000606A814201D00120D8E50020D6E5000035
:10249000000042420010024010B504460549206881
:1024A000884205D101150448FFF79AFA01F0DAFED7
:1024B00010BD00000028004000100140704710B51A
:1024C00004462068006800F00100F0B12068406810
:1024D00000F00100C8B120684068C0F3800048B136
:1024E0002046FFF7EBFF6FF00400216848600420EE
:1024F000607404E02046FFF7CFFF0120607420687D
:10250000406820F001002168486010BD014609B90B
:102510000120704700BF087C012801D10220F8E7A4
:102520000120087400BF022048740868006840F069
:1025300001000A6810600120487400BF0020087480
:1025400000BF00BFE5E7000070B5044600250CB9E8
:10255000012070BD607C20B900202074204600F06E
:1025600053F802206074204600F076F818B1042079
:1025700060740120EDE7204600F0DEF918B1042078
:1025800060740120E5E72068406820F007002168BA
:102590004860A06828B11B48006820F00100194974
:1025A00008601848001F006820F46070A1680843A4
:1025B0001449091F08606068401C08B1656809E09B
:1025C0000120FFF7FFFA05461DB9042060740120C1
:1025D000BFE76D1EC5F3034021688860A8B221687B
:1025E000C860204600F0C5F918B1042060740120CD
:1025F000AFE70021E17301216173A17301206074D1
:102600000020A6E7306C004038B504460F4920682A
:1026100088421AD1FFF7C0FA00BF0D48C06940F0E8
:1026200000600B49C8610846C06900F00060009076
:1026300000BF00BF012007490860002211460320A7
:10264000FFF758FA0320FFF745FA38BD002800408D
:10265000001002403C04424270B5044600250CB90B
:10266000012070BD2068406820F0080021684860A3
:10267000FFF7C6F9054607E0FFF7C2F9401BB0F5C2
:102680007A7F01D90320ECE72068406800F0080059
:102690000028F1D00020E4E770B504462546681E06
:1026A000B0F1807F01D301200FE0681E4FF0E021E0
:1026B00048610F214FF0FF3000F03EFA00204FF04C
:1026C000E021886107200861002070BD0EB5002060
:1026D0000090019002901C481C49086081151B481D
:1026E000816001210173002101754FF46021C161F6
:1026F000002016494860022114480161FEF7A4FA3F
:1027000008B1FEF7AAF808200090012001900720E8
:10271000029069460D48FEF7E3F908B1FEF79DF80F
:10272000062000900220019069460848FEF7D8F97B
:1027300008B1FEF792F80548FEF744F94022044933
:102740000248FEF79FFB0EBD002401401417002035
:102750008809002008B500BF0A48406940F0010020
:10276000084948610846406900F00100009000BF38
:1027700000BF002211460B20FFF7BCF90B20FFF72A
:10278000A9F908BD0010024000B585B000200190F5
:1027900002900390049000BF4A48806940F0100006
:1027A000484988610846806900F01000009000BF29
:1027B00000BF00BF0846806940F0040088610846F9
:1027C000806900F00400009000BF00BF00BF084611
:1027D000806940F0080088610846806900F00800C0
:1027E000009000BF00BF002241F630013648FFF7DD
:1027F00001F900224FF47E613448FFF7FBF8002214
:102800004FF2F0113248FFF7F5F80F2001903148F0
:1028100002900020039001A92C48FEF739FF41F6F1
:1028200030000190012002900020039002200490CB
:1028300001A92548FEF72CFF4FF47E60019001208E
:102840000290002003900220049001A91F48FEF787
:102850001FFF4FF2F0100190012002900020039022
:102860000220049001A91A48FEF712FF4FF40070ED
:10287000019000200290039001A91548FEF708FF7F
:10288000002211460620FFF735F90620FFF722F94E
:10289000002211460720FFF72DF90720FFF71AF94C
:1028A000002211460820FFF725F90820FFF712F94A
:1028B000002211460920FFF71DF90920FFF70AF948
:1028C00005B000BD001002400008014000100140AA
:1028D000000C01400000111010B5094809490860BA
:1028E0004FF0FF3048604FF4807106488160FFF779
:1028F0002BFE08B1FDF7B1FF0248FFF707FE10BD40
:10290000002800408817002000BFFEE700BFFEE758
:1029100008B508490968C9084FF47A72B1FBF2F1A9
:102920004143009100BF00BF00994A1E0092002958
:10293000F9D108BD8000002070B504460025FFF7DE
:102940005FF8054607E0FFF75BF8401BB0F57A7FBC
:1029500001D9032070BD2068406800F020000028E5
:10296000F1D02068406840F01000216848600020E5
:10297000F0E770B5044600252068406820F010009C
:1029800021684860FFF73CF8054607E0FFF738F894
:10299000401BB0F57A7F01D9032070BD20684068E4
:1029A00000F020000028F1D00020F6E710B5024822
:1029B000FFF785FD10BD00008817002070B50346A5
:1029C000A2B118460C4600BF14F8016B00F8016B69
:1029D0003EB902E0002500F8015B551E2A1EF9D120
:1029E00002E0551E2A1EEFD100BF00BF184670BD81
:1029F00010B501F03BFE02F0F5FB01F047FE10BD03
:102A000000B595B028210BA8FDF791FC142106A86C
:102A1000FDF78DFC18216846FDF789FC06200B9018
:102A200001200E900F9010201090002012900BA803
:102A3000FFF700FB08B1FDF710FF0F200690002004
:102A4000079008904FF48060099000200A900021C0
:102A500006A8FFF7DBF908B1FDF7FFFE03200090A1
:102A60004FF480700190002002906846FFF736F91D
:102A700008B1FDF7F2FE15B000BD000010B5002151
:102A800000200022214B5B6803F00C0121B10429D6
:102A900006D0082928D107E01D4B1E4C236027E0F3
:102AA0001B4B1C4C236023E0184B5B6803F4701035
:102AB000164B5B6803F48032022303EB904022B98B
:102AC000154B4343134C23600DE0104B5B6803F43C
:102AD000003323B1104B43430E4C236003E00C4BF7
:102AE00043430C4C236003E0094B0A4C236000BFB6
:102AF00000BF064B5B68C3F30313084CE15C054B56
:102B00001B68CB40034C236010BD00000010024046
:102B100000127A008000002000093D00EB700008E0
:102B2000704700BFFEE7000002480068C0F30220C3
:102B3000704700000CED00E010B5002804DB0A0728
:102B4000130E054A135406E00A07140E034A00F058
:102B50000F031B1FD45410BD00E400E018ED00E08B
:102B6000014609B900207047C8B220B1C8B20E4A68
:102B7000105C401CF7E701F47F4028B10A48C1F31C
:102B80000722805C0930EEE701F47F0028B1064897
:102B9000C1F30742805C1130E5E7034800EB1160A8
:102BA00000781930DFE700000371000870B50446B3
:102BB0002068A0F11405284602F074FA002070BDC8
:102BC0002DE9F04105460C469046204602F0C4FA35
:102BD000B8F1000F03D0B8F1010F23D105E004F1E3
:102BE0001401284601F06FFD1DE02E680FE0A6F1EC
:102BF000140794F8350097F83510884206DA04F186
:102C0000140107F1140001F05EFD02E03668AE42E7
:102C1000EDD100BFAE4204D104F11401284601F009
:102C200052FD00E000BF00BF0020BDE8F08110B5FC
:102C3000044604F1140001F039FD002010BD00002D
:102C400070B5044606480068FFF78AFF451E054830
:102C500050F83500A0F114062560304670BD000024
:102C6000E4000020C01D002070B502F039FA0446CF
:102C7000FDF7CCFA0546204602F05CF804F144006A
:102C800002F05EFB042084F83400204602F08CF948
:102C90002846FDF7BFFA01F071FF70BD2DE9FC5F1A
:102CA00004468B4615461E46DDE90D9ADDF8308058
:102CB0000F9F04F114004060006000BF256266624F
:102CC000C4F82880C4F82C902321D4E90A0201F02A
:102CD00061FDD4E90A3C63441A1F0E4BD4E9080194
:102CE00001F09CFCE06184F835A00020A063E7635C
:102CF0002764206384F834002067606700902346CF
:102D0000054A2146019004F1440002F02DFB002009
:102D1000BDE8FC9F692C00081D2D000870B5044615
:102D20002546FDF773FA06466FF00100286305F1AA
:102D3000140001F0DFFC284601F0AEFF3046FDF73D
:102D400069FA01F01BFF70BD2DE9F04704460E46FD
:102D500017469846DDF8209084F80990607A20F0B4
:102D600001006072E66127620020A062C4F824803E
:102D7000002506E004F1140101EBC50001F099FC07
:102D80006D1C012DF6DBBDE8F0872DE9F04104460E
:102D90000D46FDF73BFA0746204601F0A3FC50B96B
:102DA0002068A0F11406B06A28603846FDF732FAB0
:102DB0000020BDE8F0813846FDF72CFA4FF0FF30D7
:102DC000F7E770B50546002406E005F1140101EBB4
:102DD000C40001F098FC641C012CF6DB70BD0000FF
:102DE00008B51EE069460F48FFF7CFFF38B102F083
:102DF00077F9044602F0B0F901F0C0FE0FE002F0EE
:102E0000EBF904460098001B6FF00041884205D2A0
:102E10000098001B0090009802F0D4F800BF01F069
:102E2000B5FFDFE7000100202DE9F0474FF0000972
:102E3000CA46002437E01E4931F8240003F019FD8A
:102E4000074600221B4B03F063FD054603F0E4FC3C
:102E500081B2194820F81410154901EB8401488803
:102E600003F007FD05460022124B03F051FD074613
:102E700003F0D2FC81B2114820F814100E4830F84B
:102E8000140081440D4830F814008244C9F34F10F7
:102E90000949091FA1F84400CAF34F10074908392E
:102EA000A1F84800641C202CC5DBBDE8F0870000B9
:102EB0008809002000C8E93F0C0A0020A00A002071
:102EC00010B5FFF7B1FF00F00BF8034800F070F801
:102ED000024801F0AFF810BD080A0020980A00204F
:102EE00031480168B0F88620463030F81200081AE0
:102EF0002D4908600846B0F84410B0F886204630E6
:102F000020F8121046380168B0F88620463030F8B4
:102F100012000844244908600846B0F88600401CA6
:102F2000A1F886000846B0F88600202802DB0020C1
:102F3000A1F886001C480068C0F34F101A49A1F898
:102F400088001A484168B0F88A204A3030F81200E8
:102F5000081A164948600846B0F84810B0F88A20A8
:102F60004A3020F812104A384168B0F88A204A30B6
:102F700030F8120008440D4948600846B0F88A004D
:102F8000401CA1F88A000846B0F88A00202802DB1D
:102F90000020A1F88A0005484068C0F34F1003499B
:102FA000A1F88C0070470000080A0020980A002051
:102FB00070B5044634F8880F4FF6FF7101EA4000FF
:102FC0006080608803F09AFF06460E4903F0B4FE65
:102FD00005460D49284603F0A5FF064603F06EFF9F
:102FE00020712079883C642803DD642084F88C00FB
:102FF00006E094F88C00002802DC002084F88C00A5
:1030000070BD0000002080450000C84210B5044695
:103010002CB1012220210548FEF7ECFC04E000223F
:1030200020210248FEF7E6FC10BD00000010014020
:1030300008B50BE04FF0FF3301226946044801F068
:1030400006FC18B99DF8000000F05AF8F2E70000FD
:10305000100E00201FB5002032210346174ACDE98B
:10306000001017A1194802F07FF900203221034611
:10307000174ACDE9001012A1164802F075F9002098
:1030800010210123144ACDE9001014A1164801F0C3
:10309000A5FB14200D218022144BCDE90032CDE98F
:1030A00002100023124A13A1144801F0D7FF13485D
:1030B00002F03EF8002004B010BD000051310008BD
:1030C000626565705F74696D657200005C0E00205A
:1030D00079310008880E00204C0E00206265657072
:1030E0005F6D736700000000100E0020900D00203F
:1030F000313000086265657000000000180D002086
:1031000010B50446012C02D0022C10D106E001209B
:10311000FFF77CFF074802F03FF909E0012006496C
:103120000870FFF773FF034802F036F900E000BFB4
:1031300000BF10BD5C0E00206F00002001B5012211
:103140006946024801F014FC08BD0000100E002082
:1031500010B504460020FFF759FF0548007828B154
:10316000002003490870034802F016F910BD000062
:103170006F000020880E002010B504460120FFF7E4
:10318000DDFF10BD0023314A314932A0FDF71AFAA4
:10319000324A00212E48FDF7F9F9314A03212C4823
:1031A000FDF7F4F900212A48FDF7FEFA00232D4A25
:1031B0002D492EA0FDF706FA2F4A00212A48FDF7D7
:1031C000E5F92E4A03212848FDF7E0F900212648B9
:1031D000FDF7EAFA00232A4A2A492BA0FDF7F2F963
:1031E0002C4A00212748FDF7D1F92B4A0421254814
:1031F000FDF7CCF901212348FDF7D6FA0023274A31
:10320000274928A0FDF7DEF9294A00212448FDF7C7
:10321000BDF900212248FDF7C7FA0023254A2649B7
:1032200026A0FDF7CFF9274A00212348FDF7AEF984
:1032300000212148FDF7B8FA06E0FDF7A7FAFFF7ED
:103240003FFE142001F024FFF7E70000993A000840
:10325000840300206B65795F75700000813A000877
:103260008D3A000865370008C40300206B65795F5C
:10327000646F776E00000000593700084D37000872
:1032800075370008040400206B65795F656E747201
:1032900079000000C93700080D380008E136000841
:1032A000440400206B65795F6261636B000000007D
:1032B0009D360008B5370008840400206D616E75E6
:1032C000616C00008537000810B5202200210248FB
:1032D00001F060FA10BD0000680900202DE9F047F8
:1032E000054688461B4810F808A000242DE0012060
:1032F000A04000EA0A0098B1C5EBC5001649084491
:1033000010F804904FEA191609F00F07701EC6B2A4
:10331000781EC7B201223946304600F065F813E046
:10332000C5EBC5000C49084410F804904FEA191683
:1033300009F00F07701EC6B2781EC7B200223946C8
:10334000304600F051F800BF641C072CCFDBBDE80D
:10335000F0870000BC7000082B0000202DE9F0432E
:1033600004460D46072603274FF00C084FF00309CB
:10337000012C05D12A463946304600F035F806E0E2
:10338000022C04D12A464946404600F02DF8BDE8FB
:10339000F083000070B504460E46172C1CDA0F4867
:1033A000055DFF2D17D028090D49087005F00F00A5
:1033B0000C4908700A480078401E094908700948FD
:1033C0000078401E074908703246084601780448D4
:1033D000007800F009F800BF70BD00001400002064
:1033E0006C0000206D00002070B5034618460C46A6
:1033F0003AB1084D2D5C0126A6403543054E3554A3
:1034000006E0044D2D5C0126A640B543014E35541F
:1034100070BD00006809002010B5002405E0044AD2
:10342000115DE0B200F006F9641C202CF7DB10BD42
:103430006809002010B50446002240210D48FEF71F
:10344000D9FA012001F010F92CB10122802109489C
:10345000FEF7D0FA04E0002280210648FEF7CAFAFF
:10346000012240210348FEF7C5FA012001F0FCF8D3
:1034700010BD0000000C014070B504460D4600264A
:1034800023E0002240211248FEF7B4FA012001F0A7
:10349000EBF804F0800028B1012280210C48FEF7EF
:1034A000A9FA04E0002280210948FEF7A3FA0120CE
:1034B00001F0DAF8012240210548FEF79BFA0120CD
:1034C00001F0D2F86006040E761CAE42D9DB70BD66
:1034D000000C014070B504460D46002622E0002293
:1034E00040211248FEF786FA012001F0BDF804F0F1
:1034F000010028B1012280210C48FEF77BFA04E08C
:10350000002280210948FEF775FA012001F0ACF88D
:10351000012240210548FEF76DFA012001F0A4F8D0
:103520006410761CAE42DADB70BD0000000C014076
:1035300070B504462546002210211448FEF75AFAB9
:10354000012001F091F80120FFF774FF0020FFF740
:1035500071FF0020FFF76EFF0020FFF76BFF0026D2
:1035600006E005F08000FFF765FF6806050E761C93
:10357000082EF6DB012001F077F801221021034824
:10358000FEF738FA012001F06FF870BD000C014021
:1035900010B5012002F054FE642001F079FD0122F3
:1035A00010210D48FEF726FA012240210A48FEF7B5
:1035B00021FA012280210848FEF71CFA0A2001F0B6
:1035C00001FD0020FFF7B4FF0220FFF7B1FF052047
:1035D00001F05EFD10BD0000000C014010B50020A0
:1035E00002F02EFE642001F053FD0122102110484C
:1035F000FEF700FA012240210D48FEF7FBF90122F7
:1036000080210B48FEF7F6F90A2001F0DBFC0220CE
:10361000FFF78EFF0720FFF78BFF3020FFF788FFB3
:103620005220FFF785FF052001F032FD10BD00009C
:10363000000C014070B504460D46002210211648CA
:10364000FEF7D8F9012001F00FF80321A020FFF7C1
:1036500013FF012001F008F8A106080E0621FFF76C
:103660000BFF012001F000F804212846FFF732FF8C
:10367000012000F0F9FF012210210748FEF7BAF9F6
:10368000012000F0F1FF012240210348FEF7B2F9CA
:10369000012000F0E9FF70BD000C014010B50446A8
:1036A0000120FFF74BFD0D48007820B101280DD017
:1036B00002280FD100E00EE0012002F0AFF9002057
:1036C00000F084FE002002F0B1FD04E0002002F0D2
:1036D000ADFD00E000BF00BF10BD000010000020E5
:1036E00010B508210148FEF773F910BD0010014024
:1036F00010B504460120FFF721FD1348C0780728C4
:103700001DD2DFE800F01C04080C1014180020463D
:1037100000F0D0F814E0204600F024F910E0204634
:1037200000F072F90CE0204600F0A6F808E0204610
:1037300000F084F804E0204600F084F900E010BDB9
:1037400000BF00BFFBE700001000002010B50446DA
:103750000020FFF7CDFF10BD10B504460020FFF795
:10376000C7FF10BD10B502210148FEF731F910BDA9
:103770000010014010B501210148FEF729F910BDE4
:103780000010014010B504460120FFF7D7FC08489F
:10379000007820B1022806D0032806D104E00220D8
:1037A00000F014FE02E001E000E000BF00BF10BD29
:1037B0001000002010B54FF400710248FEF708F920
:1037C00010BD0000000C014010B504460120FFF7B9
:1037D000B5FC0D48007830B101280BD002280CD080
:1037E00003280ED10CE0012002F020FD0020064944
:1037F000887007E002F052FD04E002F035FD01E0C0
:1038000000E000BF00BF10BD1000002010B504464E
:103810000948007860B90220FFF790FC052000F00D
:10382000D5FD022002F002FD01200349C87000E02E
:1038300000BF00BF10BD00001000002058B10D49AE
:10384000496A491C0B4A51621146496A63290FDDD6
:10385000002151620CE00749496A002903DC632119
:10386000044A516204E00349496A491E014A51620F
:1038700070470000C40E002058B10D498969491CE9
:103880000B4A91611146896963290FDD002191611D
:103890000CE007498969002903DC6321044A91612E
:1038A00004E003498969491E014A9161704700009B
:1038B000C40E0020F8B12949097829B1284949687E
:1038C0000A31274A516004E025494968491C244AC5
:1038D0005160234949683B292FDD0021204A51606E
:1038E00011460968491C116011460968182924DD30
:1038F0000021116021E01A49496800290FDC3B21B1
:10390000174A516011460968002902DC182111602C
:1039100013E013490968491E114A11600DE00F496F
:10392000097829B10E4949680A390D4A516004E005
:103930000B494968491E0A4A516009494968C1EB67
:1039400001118900064A1268C2EB4213C3EB02223E
:1039500001EB0211024A9160704700000400002050
:10396000C40E0020F8B12649097829B12549096912
:103970000A31244A116104E022490969491C214A9B
:103980001161204909693B292FDD00211D4A116180
:103990001146C968491CD1601146C9683B2924DD1C
:1039A0000021D16021E01749096900290FDC3B2182
:1039B000144A11611146C968002902DC3C21D1601A
:1039C00013E01049C968491E0E4AD1600DE00C4948
:1039D000097829B10B4909690A390A4A116104E0D9
:1039E00008490969491E074A116106490969054ADA
:1039F000D268C2EB021201EB8201024A51617047A8
:103A000004000020C40E002058B10D49C969491CAA
:103A10000B4AD1611146C96963290FDD0021D161CB
:103A20000CE00749C969002903DC6321044AD1611C
:103A300004E00349C969491E014AD1617047000089
:103A4000C40E002058B10D49096A491C0B4A116285
:103A50001146096A63290FDD002111620CE0074954
:103A6000096A002903DC6321044A116204E0034966
:103A7000096A491E014A116270470000C40E002005
:103A800010B504460120FFF733FE10BD10B5044603
:103A90000120FFF72DFE10BD10B504210148FDF7F0
:103AA00097FF10BD0010014010B5062000F0D6FCB5
:103AB00010BD10B5FDF7AAFFFEF7A2FFFEF764FEEA
:103AC000FEF748FEFEF702FEFEF706FF002010BDDF
:103AD00010B5044600F024FDFFF7EBFF10BD10B554
:103AE00004460421012000F013FA10BD10B504466D
:103AF0000421022000F00CFA10BD10B50446042188
:103B0000032000F005FA10BD10B504460421084654
:103B100000F0FEF910BD10B504460421052000F0A8
:103B2000F7F910BD10B504460421062000F0F0F9A5
:103B300010BD000070B504460D46072C23D2DFE807
:103B400004F02204090E13181D002946114800F044
:103B5000A9F819E02946104800F0A4F814E0294615
:103B60000E4800F09FF80FE029460D4800F09AF843
:103B70000AE029460B4800F095F805E029460A4876
:103B800000F090F800E000BF00BF0120FFF7D6FA78
:103B9000002070BDB4100020C8100020DC100020F0
:103BA000F0100020041100201811002008B5012099
:103BB00000F09AF9012031494874020330492F4836
:103BC00000F0CFF84FF400522D492C4800F0BFF818
:103BD00002202C494874420329492A4800F0C1F8C0
:103BE0004FF400422649274800F0B1F80320264947
:103BF000487440222549244800F0B3F88022234924
:103C0000214800F0A4F804202149487482011F498A
:103C10001F4800F0A6F84FF400721C491C4800F041
:103C200096F805201B4948744FF400621A49194858
:103C300000F097F84FF480521749164800F087F8C3
:103C400006201649487410221349144800F089F8D8
:103C500020221149114800F07AF80DE04FF0FF33AF
:103C6000022269460E4800F0F2FD28B99DF80110C5
:103C70009DF80000FFF75EFFF0E70000B4100020A1
:103C8000000C0140C8100020DC1000200010014092
:103C9000F01000200411002000080140181100203D
:103CA000AC16002070B504460D46012D06D0022D3D
:103CB00017D0032D28D0042D46D135E0012000F087
:103CC00013F901202074A18801222068FDF792FEDB
:103CD000A1890022A068FDF78DFE204600F02EF994
:103CE00033E0012000F000F902202074A1880022B6
:103CF0002068FDF77FFEA1890122A068FDF77AFE0A
:103D0000204600F01BF920E003202074A188012246
:103D10002068FDF76FFEA1890122A068FDF76AFE09
:103D2000002000F0E1F810E004202074A1880022B7
:103D30002068FDF75FFEA1890022A068FDF75AFE0A
:103D4000002000F0D1F800E000BF00BF70BD0346C6
:103D500003B111B94FF0FF30704799609A8100208C
:103D6000FAE7034603B111B94FF0FF30704719600D
:103D70009A800020FAE700001FB50020C821034602
:103D80002B4ACDE900102BA12E4801F0EDFA0020BE
:103D9000C82103462C4ACDE900102CA12F4801F080
:103DA000E3FA0020C82103462D4ACDE900102DA1D9
:103DB000304801F0D9FA0020C82103462E4ACDE947
:103DC00000102EA1314801F0CFFA0020C82103468F
:103DD0002F4ACDE900102FA1324801F0C5FA00208A
:103DE000C8210346304ACDE9001030A1334801F024
:103DF000BBFA00200C210223314ACDE9001031A189
:103E0000334800F0EBFC14200C214FF48062314B5E
:103E1000CDE90032CDE9021000232F4A2FA131480D
:103E200001F01CF92F4801F083F9002004B010BD07
:103E3000DF3A00086D6F746F725F74696D6572317F
:103E4000000000002C110020ED3A00086D6F746F27
:103E5000725F74696D6572320000000058110020B5
:103E6000FB3A00086D6F746F725F74696D65723331
:103E70000000000084110020093B00086D6F746F82
:103E8000725F74696D65723400000000B01100202B
:103E9000173B00086D6F746F725F74696D657235E2
:103EA00000000000DC110020253B00086D6F746FDE
:103EB000725F74696D6572360000000008120020A0
:103EC000E81600206D6F746F725F6D7367000000FD
:103ED000AC160020AC120020AD3B00084D4F544FF3
:103EE000520000003412002010B5044634B90022FC
:103EF0004FF480710548FDF77DFD04E001221102B9
:103F00000248FDF777FD002010BD0000000C0140C5
:103F100070B504460D4607480470457002220146FC
:103F2000054800F025FD10B14FF0FF3070BD0020B6
:103F3000FCE7000070000020AC16002070B50446BD
:103F40002546687C07281DD2DFE800F01C04080C19
:103F5000101418000D4801F01FFA14E00C4801F08D
:103F60001BFA10E00B4801F017FA0CE00A4801F0C8
:103F700013FA08E0094801F00FFA04E0084801F0DC
:103F80000BFA00E000BF00BF70BD00002C11002044
:103F90005811002084110020B0110020DC110020F5
:103FA000081200201FB5002010210123144ACDE97A
:103FB000001014A1154800F011FC14200E214FF43C
:103FC0008072134BCDE90032CDE902100023114A73
:103FD00011A1124801F042F8104801F0A9F80020A0
:103FE00047F2305103460E4ACDE900100DA11048AA
:103FF00001F0BAF90E4801F0CFF9002004B010BD6D
:10400000DC0C00207077725F6D736700A00C0020DD
:10401000A00B00201144000870777200280B0020CC
:104020008D4400087077725F74696D6572000000DE
:10403000EC0C00202DE9F05F8246BAF88C0002F00B
:104040005DFF04461B4902F077FE83464FF0804136
:10405000584602F067FF8346584602F041FE044688
:10406000154A164B02F018FC05D20020CAF80000D1
:104070008AF88E001BE0584602F032FE80460E4A57
:104080000E4B02F043FD06460D4A0E4B02F06CFA51
:10409000044602F083F9CAF800000B49DAF8000080
:1040A00002F04AFE044602F009FF8AF88E00BDE8DD
:1040B000F09F000000007A449A9999999999C93F14
:1040C000EB8CEF8B4B557A3F000020412DE9F04FF0
:1040D00086B00D469C46DDE9106401960F9B04F006
:1040E0004008B8F1000F02D0DFF8708101E0DFF87E
:1040F0007081CDF8008004F01008B8F1000F01D0F5
:1041000024F0010404F00108B8F1000F02D04FF0D0
:10411000300801E04FF02008C246002704F00208F2
:10412000B8F1000F11D0002A02DA2D2752420CE01C
:1041300004F00408B8F1000F01D02B2705E004F0CB
:104140000808B8F1000F00D02027002142B94FF035
:10415000300B8846491C0DF1080909F808B01DE02C
:104160001AE0E146B9F10A0F08D14FF00A0BB2FB91
:10417000FBFE0BFB1E28B2FBFBF202E002F00F0875
:10418000120900BFDDF8009019F808B08846491CF4
:104190000DF1080909F808B0002AE2D1B14200DDAA
:1041A0000E469B1B04F01108B8F1000F10D117B197
:1041B000002B00DD5B1E06E0A84203D24FF0200872
:1041C00080F80080401CB3F10008A3F10103F3DC88
:1041D00027B1A84200D207705B1E401C04F01008F3
:1041E000B8F1000F0AD104E0A84201D280F800A083
:1041F000401CB3F10008A3F10103F5DC06E0A8427E
:1042000003D24FF0300880F80080401CB046761E84
:104210008845F4DC08E0A84205D20DF1080818F83A
:10422000018080F80080401CB1F10008A1F101017B
:1042300004DDDDF80480B8F1000FECD106E0A842FF
:1042400003D24FF0200880F80080401CB3F1000832
:10425000A3F10103F3DC06B0BDE8F08F147200088F
:104260000372000810B50D480078062813D2DFE865
:1042700000F00306090C120F00F012F80BE000F03A
:104280005FF808E000F01CF805E000F079F802E0C3
:1042900000F08AF800BF00BF10BD0000F416002037
:1042A00010B5012004498861044881680248C16052
:1042B000012000F08BF810BDF4160020C40E002081
:1042C00010B51D48C068401E1B49C8600846C0683C
:1042D000002830DC194841691748C1600146087E52
:1042E0000421FFF715FE14488069401C12498861BB
:1042F000084680691149096A884213DD01200E4988
:10430000886100F063F80C48C069401C0A49C86124
:104310000846C06942F20F7188420CDD0020064950
:10432000C86108E0052104484161032000F04EF80F
:10433000042001F07BFF10BDF4160020C40E002005
:1043400010B50C484068401C0A494860084640685F
:1043500009498968884206DA084890F88E000649BB
:104360008969884205DB002002494860022000F08C
:104370002DF810BDF4160020C40E0020980A00206D
:1043800010B508484069401E064948610846406922
:10439000002805DC052103484161022000F016F8E1
:1043A00010BD0000F416002001200649886106486F
:1043B00081680448C16005214161002001494860CD
:1043C00070470000F4160020C40E002010B504460B
:1043D000062C16D2DFE804F003040A13151410E0CB
:1043E00000200A49486001F021FF0AE00749087EE1
:1043F0000121FFF78DFD032001F018FF01E000E02F
:1044000000BF00BF0148047010BD0000F41600207A
:1044100008B520E04FF0FF33012269460E4800F056
:1044200016FA9DF80000C01E052813D2DFE800F040
:104430000304080C0F000DE0012001F001FF09E06A
:10444000002001F0FDFE05E000F026F802E000F09B
:104450000FF800BF00BFDDE7A00C002001B501226E
:104460006946024800F084FA08BD0000A00C002054
:1044700010B5012004490870FFF78AF801210846A9
:10448000FDF790FB10BD00006E00002010B5044643
:104490000720FFF7E3FF10BD10B50848007801289A
:1044A00004D1022005490870FFF798F8044801F08C
:1044B0000FF8034800F070FF10BD00006E000020F0
:1044C000EC0C00207FB50A4C14200A214FF48062C6
:1044D000084BCDE90032CDE902100023064A07A1BE
:1044E000204600F0BBFD0546204600F021FE7FBDC2
:1044F000C01B0020C0170020D13A00086D61696E12
:104500000000000010B5044C02E020688047241D24
:1045100002488442F9D310BD2C72000830720008A2
:1045200010B5044C02E020688047241D02488442F4
:10453000F9D310BD307200084C72000870B512E05B
:1045400000F014FD044604B90EE0256F204600F08B
:104550000BFB0646012E02D1204600F0AAFA0DB14F
:104560002046A84700BFEBE700BF70BD10B5FBF7C2
:104570004DFE044604480088401C00B202490880F1
:104580002046FBF747FE10BDE800002010B5FBF702
:104590003DFE04460C480088401E00B20A490880CF
:1045A0000846B0F9000000280ADC002008802046F8
:1045B000FBF730FE0548006828B100F0DFFA02E0A2
:1045C0002046FBF727FE10BDE8000020EC0000208D
:1045D00010B5FDF71BFAFEF713FAFEF74FFAFDF7D9
:1045E000DBFC4FF47A71B0FBF1F42046FEF754F88F
:1045F000FFF788FF10BD000070B50446261D064871
:10460000006838B12046044909688847054605B95D
:1046100070BD00BF00BFFEE790000020F0B504466B
:104620000D461646301D20F0070040380146002296
:1046300003E00C4F41F82270521C102AF9D30D628E
:104640004FF0000CC1F824C0C1F828C0C1F82CC03C
:10465000C1F830C04B638C634FF0807CC1F83CC024
:10466000F0BD0000EFBEADDE7047000010B5FBF7F7
:10467000CDFD044604480078401C034908702046DC
:10468000FBF7C8FD10BD0000A000002010B5FBF72F
:10469000BDFD044604480078401E034908702046CA
:1046A000FBF7B8FD10BD0000A000002040600060D6
:1046B00070474060006070470268516002680A609D
:1046C0000160486070474268116042684A6041601A
:1046D0000860704701460868884201D10120704790
:1046E0000020FCE701460868884201D1012070479C
:1046F0000020FCE7D0E900215160D0E900121160F0
:10470000406000607047D0E900215160D0E900129C
:1047100011604060006070472DE9F0410F46164679
:1047200004463D463346102B28D305F0030C04F015
:1047300003084CEA080CBCF1000F1FD121462A46A1
:1047400010E052F804CB41F804CB52F804CB41F806
:1047500004CB52F804CB41F804CB52F804CB41F817
:1047600004CB103B102BECD204E052F804CB41F800
:1047700004CB1B1F042BF8D20C46154603E015F89A
:1047800001CB04F801CBB3F1000CA3F10103F6D186
:10479000BDE8F081F0B50C460546E6B2042A15D313
:1047A00000F0030797B9014646EA062343EA0343AC
:1047B00004E008C108C108C108C1103A102AF8D2A3
:1047C00001E008C1121F042AFBD20D4601E005F8E2
:1047D000016B171EA2F10102F9D1F0BD2DE9F05FC6
:1047E00004460F4690469946DDE90AAB3A46062153
:1047F000204600F089F984F809B02046FEF717FA40
:10480000C4F81C8009F1030020F003002084208CF0
:10481000001DBAFBF0F060840020A062E06220631B
:10482000002608E0208C001DE16906FB0015206BC6
:1048300028602563761C608CB042F3DC0020A084E5
:1048400004F13400FFF732FF0020BDE8F09F2DE9AE
:10485000FF4704460F4690464FF0000900F040FC29
:104860000546FBF7D3FC8246A08C48B9039838B9BB
:104870005046FBF7CFFC6FF0010004B0BDE8F087B5
:104880003CE000202863039830B95046FBF7C2FC97
:104890006FF001002863F0E7627A294604F1140002
:1048A000FEF78EF9039800280CDD00F095FC814698
:1048B00003AA002105F1440000F00EFD05F14400BB
:1048C00000F06AFD5046FBF7A5FC00F057F9286B95
:1048D00008B1286BD1E7FBF799FC824603980028C2
:1048E0000CDD00F079FCA0EB09090398A0EB0900AE
:1048F00003900398002801DA00200390A08C002880
:10490000BFD0A66A3068A062E06AB04201D1002040
:10491000E062A08C002802DDA08C401EA0845046DE
:10492000FBF778FC208C404501D2208C00E040460B
:104930000246311D3846FFF7EFFEFBF767FC824663
:10494000206B3060266304F13400FFF7C3FE50B9DA
:1049500004F13400FEF72AF95046FBF75BFC00F047
:104960000DF9002089E75046FBF754FC002084E74E
:1049700070B504460D4616460023324629462046A9
:1049800000F001F870BD2DE9FF47044689469046C6
:10499000208C404504D24FF0FF3004B0BDE8F087D2
:1049A000002700F09DFB0646FBF730FC8246256B96
:1049B00035B9039820B95046FBF72CFCF81EECE7FC
:1049C00039E000203063039828B95046FBF722FCF9
:1049D0006FF00200E1E7627A314604F13400FEF73D
:1049E000EFF8039800280CDD00F0F6FB074603AA59
:1049F000002106F1440000F06FFC06F1440000F0D5
:104A0000CBFC5046FBF706FC00F0B8F8306B08B161
:104A1000306BC2E7FBF7FAFB8246039800280ADDF9
:104A200000F0DAFBC71B0398C01B03900398002813
:104A300001DA00200390206B051EC2D02868206395
:104A40005046FBF7E7FB0020286042464946281DF8
:104A5000FFF762FEFBF7DAFB8246E06A08B1E06A24
:104A60000560E562A06A00B9A562A08C4FF6FF71EF
:104A7000884203DAA08C401CA08405E05046FBF776
:104A8000C9FB6FF0020088E704F11400FFF722FE73
:104A900050B904F11400FEF789F85046FBF7BAFB51
:104AA00000F06CF8002078E75046FBF7B3FB0020DD
:104AB00073E770B5044600202072FBF7A7FB05469C
:104AC00004F10C00D0E900215160D0E9001211601E
:104AD0004060006000BF2846FBF79CFB70BD0000F3
:104AE000024600210AE0074800EB011000789042DE
:104AF00003D1044800EB01107047491C0429F2DB84
:104B00000020F9E7A40000202DE9F04704460D46F7
:104B1000904600262846FFF7E3FF0746FFF726FDED
:104B20007E6802E0A6F10C003668381D8642F9D195
:104B3000FFF72CFD45F080002072082241462046F8
:104B400000F093F9FBF762FB8146381D04F10C017C
:104B50000268516002680A600160486000BF484610
:104B6000FBF758FBBDE8F0870146087A00F08000AB
:104B700008B1012070470020FCE70000F8B5FBF702
:104B800045FB06463F480088002875D13E4800682E
:104B9000002870D000276846FEF752F804463B48CC
:104BA000006890F8340000F00700032825D137484A
:104BB000006890F835000099884202D233480468B2
:104BC00011E03248006890F835000099884209D118
:104BD0002E48006890F8340000F0080010B92B4807
:104BE000046800E001272948006890F8340020F0AC
:104BF00008002649096881F8340024480068844286
:104C000028D023490098087020480568046017B12F
:104C1000284600F041F8204600F08CF894F8340063
:104C200020F0070040F0030084F8340019480078B1
:104C300048B904F11C0105F11C00FBF7EEFA3046FF
:104C4000FBF7E8FA1CE004F11C0105F11C00FBF77E
:104C5000E4FA0FE00D48006800F06CF80B480068BB
:104C600090F8340020F0070040F00300074909687D
:104C700081F8340000BF00BF3046FBF7CBFA00BF1D
:104C8000F8BD0000E8000020E4000020EC00002057
:104C9000F0000020A000002070B50446FBF7B6FA33
:104CA000054621480068844208D194F8340020F079
:104CB000070040F0030084F8340030E014F8340FAB
:104CC00020F0070040F00100207014F8340900F0D3
:104CD000080070B194F83520144B03EBC20004F1C6
:104CE00014014268116042684A604160086000BF78
:104CF0000EE094F835200D4B03EBC20004F11401D3
:104D00000268516002680A600160486000BF00BF2D
:104D10000749A06B096808430549086000BF284699
:104D2000FBF778FA70BD0000EC000020C01D0020E9
:104D3000E400002070B50446FBF768FA054604F16C
:104D40001400D0E900215160D0E9001211604060E8
:104D5000006000BF94F83510094A02EBC1000168F9
:104D6000814201D1012100E0002129B10548A16B58
:104D700000688843034908602846FBF74BFA70BD7A
:104D8000C01D0020E4000020704700007CB568468C
:104D9000FFF78FFCFBF73AFA064646E02848006822
:104DA000A0F1140400F018FA0546A06A281A6FF062
:104DB0000041884237D22046FEF703F8607A00F0BF
:104DC000020018B9607A20F00100607204F1140149
:104DD0006846FFF771FC00201A4908703046FBF75F
:104DE00019FAD4E907108847FBF710FA06460120A4
:104DF000144908706846FFF775FC00B115E004F12E
:104E00001400FFF780FC607A00F0020060B1607A65
:104E100000F0010040B1607A20F00100607220468D
:104E200000F0BAFA00E005E000BF0548FFF75AFCC1
:104E30000028B3D000BF3046FBF7ECF97CBD000082
:104E400000010020FC0000200FB438B5044606A87D
:104E500000902046009A059900F0F2FC05460020DB
:104E60000090284638BC5DF814FB70B50346A2B12B
:104E700018460C4600BF14F8016B00F8016B3EB9F0
:104E800002E0002500F8015B551E2A1EF9D102E060
:104E9000551E2A1EEFD100BF00BF184670BD00008E
:104EA0000020094A1080014607E0084A02EBC100D1
:104EB0004060006000BF481C01462029F5DB00204F
:104EC000034A106070470000E8000020C01D002069
:104ED000E400002038B56846FDF7B2FE04460648F7
:104EE00004602046FFF726FF032084F8340004F115
:104EF0001C00FBF7C0F938BDEC00002010B5002401
:104F000005E0044901EBC400FFF7D3FB641C002C4F
:104F1000F7D010BDF40000201FB5002405E00D49B6
:104F200001EBC400FFF7C5FB641C002CF7D00A207E
:104F30000421CA01084BCDE90032CDE9021000235B
:104F4000064A07A1084800F089F8074800F0F0F881
:104F50001FBD000000010020381F0020E12D0008C7
:104F600074696D6572000000C01E002070B50025D8
:104F70000C4C2068A04213D02068A0F11405FBF768
:104F800045F9064605F11400D0E900215160D0E949
:104F9000001211604060006000BF3046FBF73AF934
:104FA000284670BD980000200246054802F1140111
:104FB0000368596003680B600160486000BF704778
:104FC0009800002010B50446204600F08FF810BD70
:104FD0000CE0002405E0064850F8245005B1A8472D
:104FE000641C042CF7D3FFF7A9FA00BFF1E7000017
:104FF000B01D002010B586B0002420E0224612A18A
:1050000004A8FFF721FF20211F22CB00104800EB4E
:105010000420CDE9013203910090C4EB04110D4A44
:1050200002EBC10000230C4A04A900F017F8C4EBFE
:105030000411084A02EBC10000F07AF8641C002C4D
:10504000DCD006B010BD00007469646C6525640096
:10505000B01C0020381C0020D14F00082DE9FF5F54
:1050600005460C4616461F46DDE910ABDDE90E8904
:10507000224601212846FFF747FD3B46324621469E
:1050800028468DE8000FFDF709FE04B0BDE8F09F4B
:1050900070B50446204600F083F80546284600F027
:1050A00025F870BD70B5044694F8340000F0070090
:1050B000022802D04FF0FF3070BDFBF7A7F805467D
:1050C00004F11400FFF716FB04F1440000F000FAAD
:1050D0002046FFF7E1FD2846FBF79CF80020EBE7B0
:1050E0000148006870470000EC00002031B5FFF770
:1050F000F7FF0446FBF78AF80546002020632046A8
:1051000000F02AF86A46002104F1440000F0E4F8B7
:1051100004F1440000F040F92846FBF77BF8FFF764
:105120002DFD206B801C08B900202063206B38BD4A
:1051300010B5044694F8351001208840A063022081
:1051400084F834002046FFF7ADFFFFF7C9FF08B130
:10515000FFF714FD002010BD70B5044694F834002C
:1051600000F00705012D04D0032D02D04FF0FF30D1
:1051700070BDFBF74BF806462046FFF7DBFD94F8C1
:10518000340020F0070040F0020084F8340004F1FD
:10519000440000F09DF93046FBF73CF80020E7E7BB
:1051A0000146002902DA4FF0FF3014E04FF47A7222
:1051B00091FBF2F24FF47A7302FB03F01A4691FB73
:1051C000F2F302FB13124FF47A735A4302F2E732FE
:1051D00092FBF3F2104470470148006870470000EA
:1051E0009400002070B5FBF711F8054610480068E0
:1051F000401C0F490860FFF773FF0446206C401EF7
:105200002064206C68B9E06B206494F8340040F0AE
:10521000080084F834002846FAF7FCFFFFF7AEFCDC
:1052200002E02846FAF7F6FF00F004F870BD00002F
:10523000940000207CB56846FFF73BFAFFF7CCFFEF
:105240000546FAF7E3FF06463AE022480068A0F177
:105250001404A06A281A6FF0004188422ED220461A
:10526000FDF7AFFD607A00F0020018B9607A20F017
:105270000100607204F114016846FFF71DFAD4E9D9
:1052800007108847FFF7A8FF05466846FFF72AFA88
:1052900000B115E004F11400FFF735FA607A00F070
:1052A000020060B1607A00F0010040B1607A20F045
:1052B00001006072204600F06FF800E005E000BFDA
:1052C0000448FFF70FFA0028BFD000BF3046FAF7B6
:1052D000A1FF7CBDF40000202DE9F04104460E46FC
:1052E0001546FAF793FF0746062E21D2DFE806F0AF
:1052F0000603090E131D606A28601AE028686062C0
:1053000017E0607A20F00200607212E0607A40F0EC
:10531000020060720DE0607A00F0010010B101201F
:10532000286001E00020286003E0A06A286000E017
:1053300000BF00BF3846FAF76DFF0020BDE8F081DE
:1053400070B50446FAF762FF05462046FDF739FDC1
:10535000607A20F0010060722846FAF75BFF204671
:10536000FFF7A7FB002070BD2DE9F84307460C4668
:1053700015461E46DDE9088922460A213846FFF710
:10538000C3FB4346324629463846CDF80090FDF728
:10539000DBFCBDE8F88300002DE9F84305464FF03B
:1053A0000008FAF733FF81462846FDF70AFD687AC0
:1053B00020F001006872FFF70FFF696A0844A862D5
:1053C000687A00F0040008B13C4E00E03C4E0096C4
:1053D00000242AE019E05DF824201168142202EB71
:1053E000C402881A826AAB6AD21A00D108E0826AC3
:1053F000AB6AD21A6FF000439A4200D20CE000BFB1
:105400005DF8240000684DF824005DF8240006EBE8
:10541000C40149688842DED100BF2CB15DF8240088
:105420000830611C4DF82100641C002CD2D02548A6
:105430000068401C234908600846076805F114010C
:105440000098FFF739F9022412E007F0030060B971
:10545000C4F1010305F1140202EBC301C4F101021E
:105460005DF82200FFF728F900E003E0BF08641CA4
:10547000012CEAD900BF687A40F001006872687AAE
:1054800000F0040078B11048007801280BD10F48D3
:1054900090F8340000F00700022804D10B48FFF711
:1054A00001FE4FF001084846FAF7B4FEB8F1000FCC
:1054B00001D0FFF763FB0020BDE8F8830001002066
:1054C000F400002008010020FC000020C01E002085
:1054D00070B50446607A00F0010010B94FF0FF305B
:1054E00070BDFAF793FE05462046FDF76AFC607A28
:1054F00020F0010060722846FAF78CFE0020EFE7EA
:105500002DE9FF4F89B081464C460A9809EB000609
:105510004E4504D24FF0FF36A6EB09000A9077E122
:105520000B980078252806D0B44202D20B98007858
:105530002070641C69E1002526E00B98401C0B904C
:105540000B9800782D2802D145F010051CE00B982F
:1055500000782B2802D145F0040515E00B9800785F
:10556000202802D145F008050EE00B98007823288A
:1055700002D145F0200507E00B980078302802D1D1
:1055800045F0010500E000E0D7E700BF4FF0FF372E
:105590000B98007830380A2804D20BA800F0CAFE15
:1055A00007460EE00B9800782A280AD10B98401C79
:1055B0000B900C9880C80C90002F02DA7F4245F0C7
:1055C00010054FF0FF3A0B9800782E281CD10B984D
:1055D000401C0B900B98007830380A2804D20BA896
:1055E00000F0A8FE82460AE00B9800782A2806D12F
:1055F0000B98401C0B900C9850F804AB0C90BAF12F
:10560000000F01DA4FF0000A002004900B98007898
:10561000682803D00B9800786C2805D10B98007887
:1056200004900B98401C0B900A2005900B98007872
:105630006F2873D00CDC632813D004DC25286ED0CF
:1056400058286DD195E064286BD06928F9D197E08E
:10565000702873D0732825D075286ED07828F0D1A3
:105660008AE005F0100040B904E0B44201D22020E5
:105670002070641C781E071EF7DC0C9810F8041BC1
:105680000C90C8B20790B44201D207982070641CF5
:1056900004E0B44201D220202070641C781E071E52
:1056A000F7DCB2E00C98006806900C98001D0C9096
:1056B000069808B960A006904FF0000801E008F1D4
:1056C0000108B84504D0069810F808000028F6D163
:1056D000BAF1000F02DDD04500DDD04605F0100024
:1056E00048B904E0B44201D220202070641C38463E
:1056F0007F1E4045F6DC002008900BE0B44202D249
:10570000069800782070641C0698401C0690089843
:10571000401C089008984045F0DB09E026E01FE0B7
:1057200032E02CE00AE0B44201D220202070641C58
:1057300038467F1E4045F6DC67E024E0781C10B94F
:10574000082745F00105CDE9007A02950C9804C8B8
:10575000102331460C902046FEF7B8FC044654E076
:10576000B44201D225202070641C4EE00820059030
:105770001DE045F0400500BF1020059017E000BF78
:1057800045F0020500BF12E0B44201D2252020708E
:10579000641C0B98007830B1B44202D20B980078A8
:1057A0002070641C02E00B98401E0B902DE000BF9F
:1057B00004986C2807D10C9850F804BB0C9005F0A5
:1057C0000200B8B116E0049868280BD10C9830F8A4
:1057D000041B1FFA81FB0C9005F0020050B10FFA78
:1057E0008BFB07E00C9850F804BB0C9005F002000E
:1057F00000B100BFCDE9007A02955A4631462046F5
:10580000059BFEF763FC044600BF0B98401C0B9001
:105810000B98007800287FF483AE0A9838B1B44220
:1058200002D20020207002E0002006F8010CA4EB58
:1058300009000DB0BDE8F08F284E554C4C290000F2
:1058400037B505460C4622464FF0FF312846029BED
:10585000FFF756FE3EBD0020704700207047002035
:1058600070470020704710B5FAF7D0FCFEF7B0FE85
:10587000FFF78AFAFFF742FBFFF712FBFEF722FE63
:10588000FFF74AFBFFF7B6FBFFF724FB002010BD34
:1058900008B500F053F80D48806AB0F15A3F01D0C6
:1058A00000F05CFD10E04FF0FF330122694608482C
:1058B000FEF7CDFF40B99DF80000012802D100F0AD
:1058C000BDF800E000BF00BFEDE70000C40E0020FF
:1058D000681000201FB50020102101230D4ACDE9DA
:1058E00000100DA10F48FEF779FF14200B214FF493
:1058F00080720D4BCDE90032CDE9021000230B4A36
:105900000BA10D48FFF7AAFB0B48FFF711FC002085
:1059100004B010BDA4100020736176655F6D7367DD
:105920000000000068100020680F00209158000857
:105930005341564500000000F00E002010B5002431
:10594000FBF77AFE2046641C324901EB8000D0F858
:105950000008314908602046641C2E4901EB800094
:10596000D0F800082C4948602046641C294901EB06
:105970008000D0F800082849C8602046641C2549EA
:1059800001EB8000D0F80008234908612046641C20
:10599000204901EB8000D0F800081F4988612046AB
:1059A000641C1C4901EB8000D0F800081A49C8614A
:1059B0002046641C174901EB8000D0F80008164906
:1059C00008622046641C134901EB8000D0F80008EF
:1059D000114948620F4901EB8400D0F800080E49D4
:1059E0008862084600684FF4616148430A49496883
:1059F000C1EB011100EB810007498860084600698E
:105A0000C968C1EB011100EB810003494861FBF754
:105A1000B1FD10BD00F00308C40E002038B50446E7
:105A20000094012269460448FEF7A2FF10B14FF02E
:105A3000FF3038BD0020FCE768100020F8B50024D6
:105A4000FBF7FAFD0020684908606848886001207B
:105A5000C86069466448FBF735FD18B1FBF78AFD5D
:105A6000601EF8BD62480068C61705462046641CE3
:105A70005E4A042303FB00212A4633460220FBF73B
:105A800083FD20B1FBF776FD4FF0FF30E9E7584882
:105A90004068C61705462046641C544A042303FB8D
:105AA00000212A4633460220FBF76EFD20B1FBF7AA
:105AB00061FD4FF0FF30D4E74D48C068C61705467A
:105AC0002046641C494A042303FB00212A4633462E
:105AD0000220FBF759FD20B1FBF74CFD4FF0FF30E2
