:020000040800F2
:10000000F81C0020CD01000801160008B902000804
:10001000FD1500081D0400086F170008000000000F
:10002000000000000000000000000000DF010008E8
:1000300089060008000000003B0200086116000865
:10004000E7010008E7010008E7010008E7010008F0
:10005000E7010008E7010008E7010008E7010008E0
:10006000E7010008E7010008E7010008E7010008D0
:10007000E7010008E7010008E7010008E7010008C0
:10008000E7010008E7010008E7010008E7010008B0
:10009000E7010008E7010008E7010008E7010008A0
:1000A000E7010008E7010008E7010008E701000890
:1000B000E7010008E7010008E7010008E701000880
:1000C000E7010008E7010008E7010008E701000870
:1000D000E7010008E7010008E7010008E701000860
:1000E000E7010008E7010008E7010008E701000850
:1000F000E7010008E7010008E7010008E701000840
:10010000E7010008E7010008E7010008E70100082F
:10011000E7010008E7010008E7010008E70100081F
:10012000E7010008E7010008E7010008E70100080F
:1001300000F002F800F03AF80AA090E8000C8244BF
:100140008344AAF10107DA4501D100F02FF8AFF29C
:10015000090EBAE80F0013F0010F18BFFB1A43F0A5
:1001600001031847A4420000C4420000103A24BF13
:1001700078C878C1FAD8520724BF30C830C144BF0C
:1001800004680C607047000000230024002500264E
:10019000103A28BF78C1FBD8520728BF30C148BFEA
:1001A0000B6070471FB51FBD10B510BD00F0EEF815
:1001B0001146FFF7F7FF00F01EF900F00CF903B449
:1001C000FFF7F2FF03BC00F00FF900000948804779
:1001D00009480047FEE7FEE7FEE7FEE7FEE7FEE729
:1001E000FEE7FEE7FEE7FEE704480549054A064B41
:1001F000704700006D17000831010008F816002054
:10020000F81C0020F8180020F8180020EFF31080E8
:1002100072B6704780F310887047344A1368012B18
:1002200004D04FF001031360314A1060314A11606D
:1002300031484FF0805101607047EFF3108272B681
:100240002A48016891B14FF0000101602848016817
:1002500029B1EFF3098121E9F00F00680160254918
:1002600009680968B1E8F00F81F3098882F3108802
:100270004EF0040E70471F4908601D494FF0000002
:1002800008601A494FF0010008601C481C49D0F86A
:10029000002041EA0201016017484FF080510160DF
:1002A00018480068006880F3088861B662B6BFF33A
:1002B0004F8FBFF36F8F70471EF0040F0CBFEFF32B
:1002C0000880EFF3098020E9F00F40F804ED1EF0FC
:1002D000040F0CBF80F3088880F3098800B502F092
:1002E0001FFA5DF804EB4EF0040E7047800000200A
:1002F000780000207C00002004ED00E020ED00E00C
:100300000000FFFF08ED00E0B2F120030AD5C2F1C2
:10031000200320FA02F001FA03F321FA02F140EA85
:100320000300704721FA03F04FF0000170474FF0CF
:10033000000200B5134694469646203922BFA0E835
:100340000C50A0E80C50B1F12001BFF4F7AF090741
:1003500028BFA0E80C5048BF0CC05DF804EB890032
:1003600028BF40F8042B08BF704748BF20F8022B75
:1003700011F0804F18BF00F8012B7047704770478D
:100380007047000000487047981600207546FFF738
:10039000F9FFAE4605006946534620F00700854642
:1003A00018B020B5FFF720FFBDE820404FF0000651
:1003B0004FF000074FF000084FF0000B21F007014D
:1003C000AC46ACE8C009ACE8C009ACE8C009ACE890
:1003D000C0098D46704710B50446AFF30080204633
:1003E000BDE81040FFF7EBBE01491820ABBEFEE7A9
:1003F00026000200704710B503F0C9FA002010BDB6
:10040000054A116800E0C96B0029FCD1024A126854
:10041000C263014A106070470000002000BFFEE781
:1004200010B5032902D10123C37503E0042901D1CA
:100430000223C37505290AD1002305E000F11C043D
:1004400044F823205C1CE3B2052BF7DB03E000F14A
:100450001C0343F8212010BD2DE9F04105460C4650
:1004600016461F4640212046FFF761FF102229460D
:10047000201D01F0DBF8207D20F00F00C01D20754D
:10048000207D20F0F000703020750720A0752660D8
:10049000607D67F30100607520688047617D60F3CF
:1004A00083016175002084F837002046FFF7A8FF1C
:1004B000BDE8F08170B50446206880470546607D40
:1004C000C0F38100A84226D094F83700401CC0B287
:1004D00084F8370002281EDB607D65F383006075B9
:1004E000002084F83700607D00F00300A8420DD1A1
:1004F000207D20F00F0020750020A075207E50B9CF
:10050000E06940B12046E169884704E0207D20F0A1
:100510000F00401C2075207D00F00F0010B1012855
:1005200079D154E0607DC0F38100617D01F0030169
:10053000884200D070E0E07D012802D0022844D13A
:100540002AE094F83500401CC0B284F83500322807
:1005500021DB3220343460702078401CC0B204F8B3
:100560003409052809DB002084F834000320A07535
:10057000A06A10B12046A16A884794F83600401C52
:10058000C0B284F83600962805DB962084F8360041
:1005900001202249087018E094F83800401CC0B2CD
:1005A00084F838004B280FDB4B2084F8380094F88F
:1005B000390048B9012084F839000420A075E06AA8
:1005C00010B12046E16A884700BF00BF24E0207ECA
:1005D000012807D194F8390020B9E06910B120460C
:1005E000E1698847002084F8340084F8350084F8F5
:1005F000360084F8380084F8390008490870207DF6
:1006000020F00F00C01D2075207D20F0F00070301C
:10061000207501E0FFE700BF00BF70BD04000020AF
:1006200010B50548046803E02046FFF743FFE46B7C
:10063000002CF9D110BD00000000002000B9704767
:10064000017600BFFBE700001FB514200F214FF417
:100650000072084BCDE90032CDE902100023064AB2
:1006600006A1084802F08EFD064802F0F5FD0020C4
:1006700004B010BD78010020C91B000862757474B5
:100680006F6E000000010020704772B600BFFEE7E9
:100690000021074AD1610749096941F00401054A6F
:1006A00011611146096941F0400111617047000074
:1006B000000D0020002002400021074AD1610749B7
:1006C000096941F00201054A116111464861096951
:1006D00041F0400111617047000D002000200240F0
:1006E0000022054BDA61054A126942F00102034B10
:1006F0001A61018070470000000D002000200240B8
:1007000000201E49C96801F0100139B11C49C969AE
:1007100041F002011A4AD16140F010001749C9683E
:1007200001F0040139B11649C96941F00101144AC7
:10073000D16140F004001149C96901F0010169B1BA
:100740000F49C96941F004010D4AD16100BF0B494D
:10075000C96921F00101094AD16100BF00BF40F21F
:100760000111884206D10549C96921F00101034AF6
:10077000D16101E00149C86000BF7047002002401C
:10078000000D002070B5044600F0BEFA054609E0F1
:10079000601C38B124B100F0B7FA401BA04201D967
:1007A000032070BD1248C06800F001000028EFD19E
:1007B0000F48C06800F0200020B100BF20200C4985
:1007C000C86000BF0A48C06800F0100048B9084877
:1007D000C06900F0010020B90548C06800F00400BD
:1007E00018B1FFF78DFF0120DBE70020D9E70000FB
:1007F000002002402DE9F04104460E460127002565
:1008000000BF2648007E012802D10220BDE8F08109
:1008100001202249087600BF2068022813D14CF23B
:100820005030FFF7AFFF90BB0120FFF731FF4CF2D4
:100830005030FFF7A7FF07461948006920F0040071
:100840001749086123E04CF25030FFF79BFFF0B9E5
:100850004FF0FF303060A56812E02846FFF72CFF0C
:100860004CF25030FFF78EFF07460D48006920F02C
:1008700002000B4908610FB1356007E005F500651E
:10088000D4E9021001EBC020A842E6D800BF00BFA7
:1008900000200249087600BF3846B7E7000D002067
:1008A000002002400348006940F0800001490861CF
:1008B00000207047002002402DE9FE4F05468B4680
:1008C00017469846012600240020029000BF2448C5
:1008D000007E012802D10220BDE8FE8F01202049C0
:1008E000087600BF4CF25030FFF74CFF064686BB3F
:1008F000012D02D10120029006E0022D02D102203A
:10090000029001E00420029000241EE02201B9467A
:10091000C24648465146FFF7F7FC80B201900220DC
:1009200000FB04B000900199FFF7DAFE4CF2503062
:10093000FFF728FF06460B48006920F0010009492F
:10094000086106B104E0601CC4B202988442DDDB99
:1009500000BF00BF00200249087600BF3046BBE759
:10096000000D00200020024000200849096901F024
:10097000800151B10649054A51600649516011464E
:10098000096901F0800101B1012070470020024097
:1009900023016745AB89EFCD2DE9F84702460023D7
:1009A0009C467BE14FF0010808FA03F4D1F800807F
:1009B00008EA0400A0427DD1DFF8F4A2D1F8048057
:1009C000A8EB0A09D0453AD014DCB8F1030F50D097
:1009D00009DCB8F1000F31D0B8F1010F1CD0B8F12B
:1009E000020F49D120E0B8F1110F18D0B8F1120F61
:1009F00042D11EE0B9F5881F25D006DCB9F5803F4D
:100A000020D0B9F5801F37D11AE0B9F5001F18D0F2
:100A1000B9F5041F30D117E0D1F80CC02DE0D1F8A2
:100A20000C8008F1040C28E0D1F80C8008F1080CC7
:100A300023E0D1F80C8008F10C0C1EE000BF00BFD1
:100A400000BF00BF00BF00BFD1F80880B8F1000FA1
:100A500002D14FF0040C0BE0D1F80880B8F1010F7F
:100A600003D14FF0080C146102E04FF0080C546100
:100A700003E04FF0000C00E000BF00BFFF2801D8EA
:100A8000904601E002F104084646FF2802D84FEAEA
:100A9000830803E0A3F108084FEA88084746D6F820
:100AA00000804FF00F0909FA07F928EA09080CFA43
:100AB00007F900E07AE048EA0908C6F80080D1F8B2
:100AC000048008F08058B8F1805F6FD100BFDFF874
:100AD000E481D8F8188048F00108DFF8D891C9F807
:100AE0001880C846D8F8188008F00108CDF80080B2
:100AF00000BF00BF4FEAB9384FEA930958F82950B0
:100B00004FEA83784FEA18794FF00F0808FA09F88E
:100B100025EA0805DFF8A081424502D14FF0000820
:100B200024E0DFF89881424502D14FF001081DE032
:100B3000DFF88C81424502D14FF0020816E0DFF861
:100B40008481424502D14FF003080FE0DFF878813D
:100B5000424502D14FF0040808E0DFF870814245B9
:100B600002D14FF0050801E04FF006084FEA837903
:100B70004FEA197908FA09F848EA0505DFF85081C3
:100B80004FEA930948F82950D1F8048008F48018F6
:100B9000B8F5801F0BD1DFF83C81D8F8008048EA17
:100BA0000008DFF83091C9F800800AE075E0DFF84E
:100BB0002481D8F8008028EA0008DFF81891C9F8E5
:100BC0000080D1F8048008F40018B8F5001F0ED199
:100BD000DFF8008108F10408D8F8008048EA00082E
:100BE000DFF8F09009F10409C9F800800DE0DFF8A2
:100BF000E48008F10408D8F8008028EA0008DFF84B
:100C0000D49009F10409C9F80080D1F8048008F4EF
:100C10000038B8F5003F0ED1DFF8B880A8F104081D
:100C2000D8F8008048EA0008DFF8A890A9F1040984
:100C3000C9F800800DE0DFF89C80A8F10408D8F81E
:100C4000008028EA0008DFF88C90A9F10409C9F8AF
:100C50000080D1F8048008F48038B8F5803F0ED1C8
:100C6000DFF87080A8F10808D8F8008048EA00088A
:100C7000DFF86090A9F10809C9F800800DE0DFF8FD
:100C80005480A8F10808D8F8008028EA0008DFF8A6
:100C90004490A9F10809C9F800805B1CD1F80080D4
:100CA00028FA03F8B8F1000F7FF47CAEBDE8F887AE
:100CB000000011100010024000080140000C01402B
:100CC000001001400014014000180140001C0140C8
:100CD0000800014008040140024693680B400BB134
:100CE000012000E00020704710B5C26821EA02032D
:100CF00002EA010443EA0443036110BD0AB1016141
:100D000001E00B0403617047014800687047000070
:100D10006800002010B50848006840F0100006493F
:100D20000860032000F098F8002000F007F800F0B9
:100D30002BF8002010BD00000020024070B50446D2
:100D40000E4800784FF47A71B1FBF0F00C49096855
:100D5000B1FBF0F5284600F0C9FB08B1012070BDD9
:100D6000102C07D200222146501E00F037F805480B
:100D7000046001E00120F2E70020F0E770000020AD
:100D8000740000206C00002008B500BF1148806985
:100D900040F001000F4988610846806900F00100B9
:100DA000009000BF00BF00BF0846C06940F08050FF
:100DB000C8610846C06900F08050009000BF00BFC5
:100DC00000BF0549486820F0E06040F000704860CE
:100DD00000BF08BD00100240000001402DE9F05F97
:100DE00080460D461646002700F0C4FC07463946EB
:100DF0002A46334601F00700C0F1070ABAF1040F92
:100E000002D94FF0040A01E0C0F1070AD14600F10F
:100E1000040ABAF1070F02D24FF0000A01E0A0F174
:100E2000030AD4464FF0010A0AFA09FAAAF1010AA4
:100E30000AEA020A0AFA0CFA4FF0010B0BFA0CFB51
:100E4000ABF1010B0BEA030B4AEA0B0421464046C7
:100E500000F098FCBDE8F09F00BF00F00702064BD1
:100E600019684FF6FF031940044B0B4343EA022174
:100E7000014B196000BF70470CED00E00000FA055F
:100E800070B504460D460CB9012070BD5A48006883
:100E900000F00700A8420ED25748006820F0070073
:100EA0002843554908600846006800F00700A8423A
:100EB00001D00120E9E7207800F0020002281DD1CE
:100EC000207800F00400042805D14C48406840F424
:100ED000E0604A494860207800F00800082805D101
:100EE0004648406840F46050444948604348406880
:100EF00020F0F000A168084340494860207800F0E5
:100F0000010078B36068012806D13C48006800F40D
:100F1000003090B90120B8E76068022806D1374850
:100F2000006800F0007040B90120AEE73348006867
:100F300000F0020008B90120A7E73048406820F01F
:100F40000300616808432D494860FFF7DDFE06464F
:100F500009E0FFF7D9FE801B41F28831884202D9AF
:100F6000032092E707E02548406800F00C00616824
:100F7000B0EB810FEDD12048006800F00700A842D7
:100F80000ED91D48006820F0070028431A49086060
:100F90000846006800F00700A84201D0012074E76D
:100FA000207800F00400042807D11448406820F499
:100FB000E060E168084311494860207800F00800CB
:100FC000082808D10D48406820F46050216940EAA3
:100FD000C1000A49486000F01FF808494968C1F398
:100FE0000311074A515CC84006490860064800687A
:100FF000FFF7A4FE002048E7002002400010024056
:10100000AD420008740000206C0000200148006818
:10101000704700007400002070B5002100220024F9
:1010200000230020134D696801F00C05F5B1042D73
:1010300002D0082D19D101E00F4819E00F4DC1F37E
:101040008346AB5D01F4803555B10A4D6D68C5F33B
:1010500040450B4E725D084D5D43B5FBF2F402E076
:10106000084D03FB05F4204602E000BF024800BF24
:1010700000BF70BD0010024000127A009B420008C1
:10108000AB42000800093D00F8B504460CB9012048
:10109000F8BD207800F00100002878D0F8484068BA
:1010A00000F00C0004280CD0F548406800F00C005B
:1010B000082811D1F248406800F48030B0F5803F34
:1010C0000AD1EF48006800F4003000285FD0606863
:1010D00000285CD10120DBE700BF6068B0F5803FED
:1010E00006D1E748006840F48030E549086028E010
:1010F000606858B9E248006820F48030E049086030
:101100000846006820F4802008601AE06068B0F5A6
:10111000A02F0BD1DA48006840F48020D84908603D
:101120000846006840F4803008600AE0D44800684F
:1011300020F48030D24908600846006820F48020FE
:10114000086000BF606888B1FFF7DEFD054606E075
:10115000FFF7DAFD401B642801D9032098E7C8484F
:10116000006800F400300028F2D010E0FFF7CCFD5A
:10117000054606E0FFF7C8FD401B642801D903209F
:1011800086E7BF48006800F400300028F2D12078DC
:1011900000F00200022857D1B948406800F00C0066
:1011A00050B1B748406800F00C00082818D1B44886
:1011B000406800F4803098B9B148006800F002003F
:1011C00020B12069012801D0012061E7AC48006806
:1011D00020F0F800616940EAC100A949086033E0E5
:1011E0002069E8B10120A7490860FFF78DFD054699
:1011F00006E0FFF789FD401B022801D9032047E7DD
:101200009F48006800F002000028F2D09C48006867
:1012100020F0F800616940EAC1009949086013E0D4
:10122000002098490860FFF76FFD054606E0FFF7CC
:101230006BFD401B022801D9032029E79048006874
:1012400000F002000028F2D1207800F00800082801
:101250002DD1A069B8B101208B490860FFF754FD7A
:10126000054606E0FFF750FD401B022801D9032088
:101270000EE78348406A00F002000028F2D0012007
:1012800000F0C0F913E000207F490860FFF73CFD43
:10129000054606E0FFF738FD401B022801D9032070
:1012A000F6E67748406A00F002000028F2D1207884
:1012B00000F00400042873D100277148C06900F0D1
:1012C000805070B900BF6E48C06940F080506C49D2
:1012D000C8610846C06900F08050009000BF00BFA0
:1012E00001276A48006800F48070B0B96748006858
:1012F00040F4807065490860FFF706FD054606E08A
:10130000FFF702FD401B642801D90320C0E65F48B7
:10131000006800F480700028F2D000BFE068012867
:1013200006D15748006A40F001005549086227E09D
:10133000E06858B95248006A20F00100504908623C
:101340000846006A20F00400086219E0E0680528F9
:101350000BD14B48006A40F0040049490862084636
:10136000006A40F0010008620AE04548006A20F087
:101370000100434908620846006A20F00400086240
:1013800000BFE068A0B1FFF7BFFC054609E0FFF72A
:10139000BBFC401B41F28831884202D9032077E62A
:1013A00022E03748006A00F002000028EFD012E087
:1013B000FFF7AAFC054608E0FFF7A6FC401B41F238
:1013C0008831884201D9032062E62D48006A00F086
:1013D00002000028F0D1012F05D12948C06920F072
:1013E00080502749C86100BFE069C8B324484068FD
:1013F00000F00C00082860D0E069022848D10020E5
:1014000020490866FFF780FC054606E0FFF77CFCF4
:10141000401B022801D903203AE61948006800F071
:1014200000700028F2D1206AB0F5803F07D114483F
:10143000406820F40030A168084311494860D4E9AD
:10144000080108430E49496821F4741108430C4906
:10145000486001200B490866FFF756FC054607E087
:101460003DE0FFF751FC401B022801D903200FE6A5
:101470000348006800F000700028F2D02FE0000060
:1014800000100240000042428004424200700040CE
:10149000002014490866FFF737FC054606E0FFF711
:1014A00033FC401B022801D90320F1E50E480068F7
:1014B00000F000700028F2D111E0E069012800D1AD
:1014C000E6E50948466806F48031206A814204D185
:1014D00006F47011606A814201D00120D8E5002035
:1014E000D6E50000000042420010024070B50446FC
:1014F0002546681EB0F1807F01D301200FE0681EF1
:101500004FF0E02148610F214FF0FF3000F03AF931
:1015100000204FF0E021886107200861002070BDA5
:1015200000B585B00020019002900390049000BFA8
:101530002F48806940F010002D4988610846806975
:1015400000F01000009000BF00BF00BF0846806997
:1015500040F0040088610846806900F004000090B3
:1015600000BF00BF00BF0846806940F008008861E6
:101570000846806900F00800009000BF00BF00220C
:101580004FF442611B48FFF7B9FB0022F0211A48D3
:10159000FFF7B4FB0F20019000200290039001A9F7
:1015A0001448FFF7F9F94FF44260019001200290CE
:1015B000002003900220049001A90E48FFF7ECF9E7
:1015C000F02001900120029000200390022004905E
:1015D00001A90948FFF7E0F94FF4007001900020DD
:1015E0000290039001A90448FFF7D6F905B000BDA9
:1015F0000010024000100140000C014000BFFEE757
:1016000000BFFEE708B508490968C9084FF47A72B7
:10161000B1FBF2F14143009100BF00BF00994A1EA7
:1016200000920029F9D108BD7400002070B503466E
:10163000A2B118460C4600BF14F8016B00F8016B0C
:101640003EB902E0002500F8015B551E2A1EF9D1C3
:1016500002E0551E2A1EEFD100BF00BF184670BD24
:1016600010B501F097F801F051FE01F0A3F810BD9C
:1016700000B58FB0282105A8FEF759FE1421684651
:10168000FEF755FE022005900120099010200A90D7
:1016900000200C9005A8FFF7F7FC08B1FEF7F5FF56
:1016A0000F2000900020019002904FF48060039082
:1016B0000020049000216846FFF7E2FB08B1FEF726
:1016C000E4FF0FB000BD000010B500210020002293
:1016D000214B5B6803F00C0121B1042906D00829D5
:1016E00028D107E01D4B1E4C236027E01B4B1C4CF0
:1016F000236023E0184B5B6803F47010164B5B68A3
:1017000003F48032022303EB904022B9154B43438C
:10171000134C23600DE0104B5B6803F4003323B1DE
:10172000104B43430E4C236003E00C4B43430C4CE3
:10173000236003E0094B0A4C236000BF00BF064B47
:101740005B68C3F30313084CE15C054B1B68CB409B
:10175000034C236010BD00000010024000127A000C
:101760007400002000093D00AD420008704700BF32
:10177000FEE7000002480068C0F302207047000046
:101780000CED00E010B5002804DB0A07130E054A33
:10179000135406E00A07140E034A00F00F031B1F40
:1017A000D45410BD00E400E018ED00E0014609B992
:1017B00000207047C8B220B1C8B20E4A105C401C6D
:1017C000F7E701F47F4028B10A48C1F30722805CA3
:1017D0000930EEE701F47F0028B10648C1F3074263
:1017E000805C1130E5E7034800EB116000781930A8
:1017F000DFE70000C542000870B504462068A0F18C
:101800001405284601F0E2FC002070BD2DE9F041EE
:1018100005460C469046204601F032FDB8F1000F17
:1018200003D0B8F1010F23D105E004F114012846DB
:1018300000F0DDFF1DE02E680FE0A6F1140794F81C
:10184000350097F83510884206DA04F1140107F1E3
:10185000140000F0CCFF02E03668AE42EDD100BFCC
:10186000AE4204D104F11401284600F0C0FF00E0AC
:1018700000BF00BF0020BDE8F08110B5044604F1B0
:10188000140000F0A7FF002010BD000070B5044652
:1018900006480068FFF78AFF451E054850F83500E6
:1018A000A0F114062560304670BD0000D80000206D
:1018B0002013002070B501F0A7FC0446FEF7A6FC3B
:1018C0000546204601F0CAFA04F1440001F0CCFDBF
:1018D000042084F83400204601F0FAFB2846FEF785
:1018E00099FC01F0DFF970BD2DE9FC5F04468B46E1
:1018F00015461E46DDE90D9ADDF830800F9F04F194
:1019000014004060006000BF25626662C4F8288051
:10191000C4F82C902321D4E90A0200F0CFFFD4E9C7
:101920000A3C63441A1F0E4BD4E9080100F00AFF79
:10193000E06184F835A00020A063E763276420639A
:1019400084F834002067606700902346054A2146EA
:10195000019004F1440001F09BFD0020BDE8FC9FD4
:10196000B51800086919000870B504462546FEF749
:101970004DFC06466FF00100286305F1140000F0ED
:101980004DFF284601F01CFA3046FEF743FC01F0FB
:1019900089F970BD2DE9F04704460E461746984672
:1019A000DDF8209084F80990607A20F001006072E0
:1019B000E66127620020A062C4F82480002506E0CA
:1019C00004F1140101EBC50000F007FF6D1C012DAF
:1019D000F6DBBDE8F0872DE9F04104460D46FEF741
:1019E00015FC0746204600F011FF50B92068A0F111
:1019F0001406B06A28603846FEF70CFC0020BDE8EB
:101A0000F0813846FEF706FC4FF0FF30F7E770B57F
:101A10000546002406E005F1140101EBC40000F0C6
:101A200006FF641C012CF6DB70BD000008B51EE04B
:101A300069460F48FFF7CFFF38B101F0E5FB0446D8
:101A400001F01EFC01F02EF90FE001F059FC0446F4
:101A50000098001B6FF00041884205D20098001BDF
:101A60000090009801F042FB00BF01F023FADFE78D
:101A7000F40000207047000008B50BE04FF0FF3382
:101A800001226946044800F076FF18B99DF800006D
:101A900000F058F8F2E70000740A00201FB500209B
:101AA00032210346174ACDE9001017A1194801F069
:101AB000EFFC002032210346174ACDE9001012A1A5
:101AC000164801F0E5FC002010210123144ACDE95D
:101AD000001014A1154800F015FF14200E218022DB
:101AE000134BCDE90032CDE902100023114A12A1B7
:101AF000134801F047FB124801F0AEFB002004B090
:101B000010BD0000951B0008626565705F74696D0B
:101B100065720000C00A0020BD1B0008EC0A00200E
:101B2000B00A002065635F6D73670000740A0020CF
:101B3000F4090020791A0008626565700000000051
:101B40007C09002010B50446012C02D0022C10D1D3
:101B500006E00120FFF78EFF074801F0B1FC09E025
:101B6000012006490870FFF785FF034801F0A8FC33
:101B700000E000BF00BF10BDC00A002062000020CE
:101B800001B501226946024800F086FF08BD000049
:101B9000740A002010B504460020FFF76BFF0548CB
:101BA000007828B1002003490870034801F088FC40
:101BB00010BD000062000020EC0A002010B50446B1
:101BC0000120FFF7DDFF10BD0023304A304931A06E
:101BD000FEF742FC314A00212D48FEF721FC304A35
:101BE00003212B48FEF71CFC00212948FEF726FDA7
:101BF00000232C4A2C492DA0FEF72EFC2E4A002152
:101C00002948FEF70DFC2D4A03212748FEF708FC62
:101C100000212548FEF712FD0023294A29492AA060
:101C2000FEF71AFC2B4A00212648FEF7F9FB2A4A48
:101C300004212448FEF7F4FB01212248FEF7FEFCB4
:101C40000023264A264927A0FEF706FC284A002141
:101C50002348FEF7E5FB00212148FEF7EFFC0023B7
:101C6000244A254925A0FEF7F7FB264A00212248F1
:101C7000FEF7D6FB00212048FEF7E0FC04E0FEF76B
:101C8000CFFC142001F098FAF9E700000D240008B9
:101C9000780300206B65795F75700000F5230008FC
:101CA000012400083D210008B80300206B65795F1E
:101CB000646F776E000000003121000825210008C4
:101CC0004D210008F80300206B65795F656E747222
:101CD000790000007D210008BD210008B92000081E
:101CE000380400206B65795F6261636B000000005F
:101CF0008520000869210008780400206D616E7558
:101D0000616C00005D21000810B52022002102480E
:101D100000F0D4FD10BD00005C0900202DE9F04763
:101D2000054688461B4810F808A000242DE0012035
:101D3000A04000EA0A0098B1C5EBC5001649084466
:101D400010F804904FEA191609F00F07701EC6B27A
:101D5000781EC7B201223946304600F065F813E01C
:101D6000C5EBC5000C49084410F804904FEA191659
:101D700009F00F07701EC6B2781EC7B2002239469E
:101D8000304600F051F800BF641C072CCFDBBDE8E3
:101D9000F087000090420008280000202DE9F04361
:101DA00004460D46072603274FF00C084FF00309A1
:101DB000012C05D12A463946304600F035F806E0B8
:101DC000022C04D12A464946404600F02DF8BDE8D1
:101DD000F083000070B504460E46142C1CDA0F4840
:101DE000055DFF2D17D028090D49087005F00F007B
:101DF0000C4908700A480078401E094908700948D3
:101E00000078401E074908703246084601780448A9
:101E1000007800F009F800BF70BD00001400002039
:101E2000600000206100002070B5034618460C4693
:101E30003AB1084D2D5C0126A6403543054E355478
:101E400006E0044D2D5C0126A640B543014E3554F5
:101E500070BD00005C09002010B5002405E0044AB4
:101E6000115DE0B200F0DAF8641C202CF7DB10BD45
:101E70005C09002010B50446002240210D48FEF701
:101E80003DFF012000F084FC2CB101228021094893
:101E9000FEF734FF04E0002280210648FEF72EFF03
:101EA000012240210348FEF729FF012000F070FCC9
:101EB00010BD0000000C014070B504460D46002620
:101EC00023E0002240211248FEF718FF012000F015
:101ED0005FFC04F0800028B1012280210C48FEF74D
:101EE0000DFF04E0002280210948FEF707FF0120D2
:101EF00000F04EFC012240210548FEF7FFFE0120C4
:101F000000F046FC6006040E761CAE42D9DB70BDC4
:101F1000000C014070B504460D46002622E0002268
:101F200040211248FEF7EAFE012000F031FC04F0E7
:101F3000010028B1012280210C48FEF7DFFE04E0F9
:101F4000002280210948FEF7D9FE012000F020FC84
:101F5000012240210548FEF7D1FE012000F018FCC7
:101F60006410761CAE42DADB70BD0000000C01404C
:101F700070B504462546002210211448FEF7BEFE27
:101F8000012000F005FC0120FFF774FF0020FFF79F
:101F900071FF0020FFF76EFF0020FFF76BFF0026A8
:101FA00006E005F08000FFF765FF6806050E761C69
:101FB000082EF6DB012000F0EBFB01221021034884
:101FC000FEF79CFE012000F0E3FB70BD000C014019
:101FD00010B5012210211048FEF790FE0122402189
:101FE0000D48FEF78BFE012280210B48FEF786FE8E
:101FF0000A2001F07BF80220FFF7BAFF0720FFF765
:10200000B7FF3020FFF7B4FF5220FFF7B1FF0520E4
:1020100001F0D2F810BD0000000C014070B504467C
:102020000D46002210211648FEF768FE012000F040
:10203000AFFB0321A020FFF73FFF012000F0A8FB2A
:10204000A106080E0621FFF737FF012000F0A0FBD4
:1020500004212846FFF75EFF012000F099FB0122D2
:1020600010210748FEF74AFE012000F091FB0122F3
:1020700040210348FEF742FE012000F089FB70BDBD
:10208000000C014010B504460A48007820B1012830
:1020900004D0022806D100E005E000BF002002F0D5
:1020A00043F800E010BD00BF0120FFF769FD00BF4D
:1020B000F8E700001000002010B508210148FEF7E5
:1020C0000BFE10BD0010014010B504461448C07846
:1020D00007281DD2DFE800F01C04080C10141800BB
:1020E000204600F0BBF814E0204600F0FFF810E0B6
:1020F000204600F043F90CE0204600F091F808E09B
:10210000204600F06FF804E0204600F055F900E0AA
:1021100010BD00BF0120FFF733FD00BFF8E700004E
:102120001000002010B504460020FFF7CDFF10BDC1
:1021300010B504460020FFF7C7FF10BD10B50221FF
:102140000148FEF7C9FD10BD0010014010B5012186
:102150000148FEF7C1FD10BD0010014010B5044656
:102160000120FFF70DFD10BD10B54FF400710248BE
:10217000FEF7B2FD10BD0000000C014010B5044692
:102180000D48007820B1012809D002280DD109E0BE
:10219000012001F0C9FF00200749887006E001F026
:1021A000FBFF03E001F0DEFF00E010BD00BF0120F7
:1021B000FFF7E6FC00BFF8E71000002010B504466A
:1021C0000748007848B90220FFF7DAFC022001F046
:1021D000ABFF01200249C87000E000BF00BF10BD86
:1021E0001000002058B10D49C969491C0B4AD16142
:1021F0001146C96963290FDD0021D1610CE007494F
:10220000C969002903DC6321044AD16104E0034960
:10221000C969491E014AD16170470000280B00209E
:1022200058B10D490969491C0B4A116111460969E8
:1022300063290FDD002111610CE0074909690029BC
:1022400003DC6321044A116104E003490969491E62
:10225000014A116170470000280B0020F8B12149A4
:10226000097829B1204949680A311F4A516004E0C0
:102270001D494968491C1C4A51601B4949683B2952
:102280002FDD0021184A516011460968491C116070
:1022900011460968182924DD0021116021E0124946
:1022A000496800290FDC3B210F4A5160114609683B
:1022B000002902DC1821116013E00B490968491E4E
:1022C000094A11600DE00749097829B106494968B2
:1022D0000A39054A516004E003494968491E024A27
:1022E0005160704704000020280B0020F8B12149FC
:1022F000097829B12049C9680A311F4AD16004E030
:102300001D49C968491C1C4AD1601B49C9683B2941
:102310002FDD0021184AD16011468968491C91605F
:10232000114689683B2924DD0021916021E0124992
:10233000C96800290FDC3B210F4AD160114689682A
:10234000002902DC3C21916013E00B498968491E99
:10235000094A91600DE00749097829B10649C96821
:102360000A39054AD16004E00349C968491E024A96
:10237000D160704704000020280B002058B10D499F
:102380004969491C0B4A51611146496963290FDDAE
:10239000002151610CE007494969002903DC6321F0
:1023A000044A516104E003494969491E014A5161E7
:1023B00070470000280B002058B10D498969491C5D
:1023C0000B4A91611146896963290FDD00219161F2
:1023D0000CE007498969002903DC6321044A916103
:1023E00004E003498969491E014A91617047000070
:1023F000280B002010B504460120FFF765FE10BD34
:1024000010B504460120FFF75FFE10BD10B5042192
:102410000148FEF761FC10BD00100140FEF77AFC98
:10242000FFF726F9FFF77CF808E04FF47A7000F028
:102430005DFE4FF480610248FEF756FCF5E70000B0
:102440000010014010B5044600F0FEF8FFF7E6FF6B
:1024500010BD00002DE9F04F86B00D469C46DDE929
:10246000106401960F9B04F04008B8F1000F02D0F1
:10247000DFF8708101E0DFF87081CDF8008004F0B2
:102480001008B8F1000F01D024F0010404F0010895
:10249000B8F1000F02D04FF0300801E04FF02008F3
:1024A000C246002704F00208B8F1000F11D0002A3C
:1024B00002DA2D2752420CE004F00408B8F1000FB4
:1024C00001D02B2705E004F00808B8F1000F00D078
:1024D0002027002142B94FF0300B8846491C0DF1EE
:1024E000080909F808B01DE01AE0E146B9F10A0F41
:1024F00008D14FF00A0BB2FBFBFE0BFB1E28B2FB10
:10250000FBF202E002F00F08120900BFDDF80090B4
:1025100019F808B08846491C0DF1080909F808B0F7
:10252000002AE2D1B14200DD0E469B1B04F01108E7
:10253000B8F1000F10D117B1002B00DD5B1E06E0D3
:10254000A84203D24FF0200880F80080401CB3F16D
:102550000008A3F10103F3DC27B1A84200D2077001
:102560005B1E401C04F01008B8F1000F0AD104E013
:10257000A84201D280F800A0401CB3F10008A3F1EA
:102580000103F5DC06E0A84203D24FF0300880F8E2
:102590000080401CB046761E8845F4DC08E0A84266
:1025A00005D20DF1080818F8018080F80080401C61
:1025B000B1F10008A1F1010104DDDDF80480B8F1FA
:1025C000000FECD106E0A84203D24FF0200880F8BB
:1025D0000080401CB3F10008A3F10103F3DC06B056
:1025E000BDE8F08FD6430008C54300087FB50A4C0C
:1025F00014200A214FF48062084BCDE90032CDE966
:1026000002100023064A07A1204600F0BBFD054644
:10261000204600F021FE7FBD20110020200D00206B
:10262000452400086D61696E0000000010B5044C7F
:1026300002E020688047241D02488442F9D310BD7F
:10264000EC430008F043000810B5044C02E0206899
:102650008047241D02488442F9D310BDF04300088E
:102660000444000870B512E000F014FD044604B9FB
:102670000EE0256F204600F00BFB0646012E02D12E
:10268000204600F0AAFA0DB12046A84700BFEBE7AC
:1026900000BF70BD10B5FDF7B9FD044604480088C1
:1026A000401C00B2024908802046FDF7B3FD10BD72
:1026B000DC00002010B5FDF7A9FD04460C48008899
:1026C000401E00B20A4908800846B0F90000002800
:1026D0000ADC002008802046FDF79CFD05480068C4
:1026E00028B100F0DFFA02E02046FDF793FD10BDAF
:1026F000DC000020E000002010B5FEF70BFBFEF729
:10270000B7FFFEF7E1FFFEF781FC4FF47A71B0FBF3
:10271000F1F42046FEF7EAFEFFF788FF10BD000047
:1027200070B50446261D0648006838B120460449A5
:1027300009688847054605B970BD00BF00BFFEE7C0
:1027400084000020F0B504460D461646301D20F0EA
:10275000070040380146002203E00C4F41F8227088
:10276000521C102AF9D30D624FF0000CC1F824C09E
:10277000C1F828C0C1F82CC0C1F830C04B638C63CD
:102780004FF0807CC1F83CC0F0BD0000EFBEADDE74
:102790007047000010B5FDF739FD04460448007885
:1027A000401C034908702046FDF734FD10BD0000B1
:1027B0009400002010B5FDF729FD04460448007878
:1027C000401E034908702046FDF724FD10BD00009F
:1027D00094000020406000607047406000607047D7
:1027E0000268516002680A60016048607047426890
:1027F000116042684A60416008607047014608689D
:10280000884201D1012070470020FCE7014608689A
:10281000884201D1012070470020FCE7D0E9002167
:102820005160D0E900121160406000607047D0E94B
:1028300000215160D0E900121160406000607047D3
:102840002DE9F0410F46164604463D463346102B0F
:1028500028D305F0030C04F003084CEA080CBCF183
:10286000000F1FD121462A4610E052F804CB41F850
:1028700004CB52F804CB41F804CB52F804CB41F816
:1028800004CB52F804CB41F804CB103B102BECD214
:1028900004E052F804CB41F804CB1B1F042BF8D200
:1028A0000C46154603E015F801CB04F801CBB3F153
:1028B000000CA3F10103F6D1BDE8F081F0B50C46A0
:1028C0000546E6B2042A15D300F0030797B901467E
:1028D00046EA062343EA034304E008C108C108C1ED
:1028E00008C1103A102AF8D201E008C1121F042AC8
:1028F000FBD20D4601E005F8016B171EA2F10102A3
:10290000F9D1F0BD2DE9F05F04460F469046994697
:10291000DDE90AAB3A460621204600F089F984F841
:1029200009B02046FEF7A9FFC4F81C8009F1030096
:1029300020F003002084208C001DBAFBF0F060849E
:102940000020A062E0622063002608E0208C001DC9
:10295000E16906FB0015206B28602563761C608CFE
:10296000B042F3DC0020A08404F13400FFF732FF12
:102970000020BDE8F09F2DE9FF4704460F46904632
:102980004FF0000900F040FC0546FDF73FFC824691
:10299000A08C48B9039838B95046FDF73BFC6FF05E
:1029A000010004B0BDE8F0873CE0002028630398F4
:1029B00030B95046FDF72EFC6FF001002863F0E7B8
:1029C000627A294604F11400FEF720FF03980028DC
:1029D0000CDD00F095FC814603AA002105F14400BE
:1029E00000F00EFD05F1440000F06AFD5046FDF7D1
:1029F00011FC00F057F9286B08B1286BD1E7FDF7FF
:102A000005FC8246039800280CDD00F079FCA0EB61
:102A100009090398A0EB090003900398002801DA44
:102A200000200390A08C0028BFD0A66A3068A06266
:102A3000E06AB04201D10020E062A08C002802DDF3
:102A4000A08C401EA0845046FDF7E4FB208C40453E
:102A500001D2208C00E040460246311D3846FFF787
:102A6000EFFEFDF7D3FB8246206B3060266304F156
:102A70003400FFF7C3FE50B904F13400FEF7BCFE8A
:102A80005046FDF7C7FB00F00DF9002089E75046DE
:102A9000FDF7C0FB002084E770B504460D461646DE
:102AA000002332462946204600F001F870BD2DE98A
:102AB000FF47044689469046208C404504D24FF09B
:102AC000FF3004B0BDE8F087002700F09DFB06460C
:102AD000FDF79CFB8246256B35B9039820B950461B
:102AE000FDF798FBF81EECE739E00020306303980F
:102AF00028B95046FDF78EFB6FF00200E1E7627ADD
:102B0000314604F13400FEF781FE039800280CDD05
:102B100000F0F6FB074603AA002106F1440000F08E
:102B20006FFC06F1440000F0CBFC5046FDF772FB51
:102B300000F0B8F8306B08B1306BC2E7FDF766FB08
:102B40008246039800280ADD00F0DAFBC71B0398D1
:102B5000C01B03900398002801DA00200390206B2B
:102B6000051EC2D0286820635046FDF753FB0020A5
:102B7000286042464946281DFFF762FEFDF746FBE6
:102B80008246E06A08B1E06A0560E562A06A00B9C1
:102B9000A562A08C4FF6FF71884203DAA08C401C1E
:102BA000A08405E05046FDF735FB6FF0020088E792
:102BB00004F11400FFF722FE50B904F11400FEF7EF
:102BC0001BFE5046FDF726FB00F06CF8002078E76E
:102BD0005046FDF71FFB002073E770B50446002048
:102BE0002072FDF713FB054604F10C00D0E900212B
:102BF0005160D0E9001211604060006000BF2846BB
:102C0000FDF708FB70BD0000024600210AE00748FE
:102C100000EB01100078904203D1044800EB011052
:102C20007047491C0429F2DB0020F9E798000020D6
:102C30002DE9F04704460D46904600262846FFF74A
:102C4000E3FF0746FFF726FD7E6802E0A6F10C00D1
:102C50003668381D8642F9D1FFF72CFD45F080001B
:102C6000207208224146204600F093F9FDF7CEFA83
:102C70008146381D04F10C010268516002680A6047
:102C80000160486000BF4846FDF7C4FABDE8F08720
:102C90000146087A00F0800008B10120704700204A
:102CA000FCE70000F8B5FDF7B1FA06463F4800889A
:102CB000002875D13E480068002870D0002768467B
:102CC000FEF7E4FD04463B48006890F8340000F04D
:102CD0000700032825D13748006890F8350000998F
:102CE000884202D23348046811E03248006890F804
:102CF00035000099884209D12E48006890F83400C8
:102D000000F0080010B92B48046800E001272948AA
:102D1000006890F8340020F008002649096881F81E
:102D2000340024480068844228D023490098087061
:102D300020480568046017B1284600F041F8204695
:102D400000F08CF894F8340020F0070040F0030005
:102D500084F834001948007848B904F11C0105F1E1
:102D60001C00FDF75AFA3046FDF754FA1CE004F156
:102D70001C0105F11C00FDF750FA0FE00D4800683A
:102D800000F06CF80B48006890F8340020F0070061
:102D900040F003000749096881F8340000BF00BF14
:102DA0003046FDF737FA00BFF8BD0000DC00002018
:102DB000D8000020E0000020E40000209400002063
:102DC00070B50446FDF722FA0546214800688442A2
:102DD00008D194F8340020F0070040F0030084F894
:102DE000340030E014F8340F20F0070040F0010008
:102DF000207014F8340900F0080070B194F8352000
:102E0000144B03EBC20004F11401426811604268E4
:102E10004A604160086000BF0EE094F835200D4B19
:102E200003EBC20004F114010268516002680A60F9
:102E30000160486000BF00BF0749A06B09680843F4
:102E40000549086000BF2846FDF7E4F970BD0000A1
:102E5000E000002020130020D800002070B50446B8
:102E6000FDF7D4F9054604F11400D0E900215160C2
:102E7000D0E9001211604060006000BF94F8351086
:102E8000094A02EBC1000168814201D1012100E041
:102E9000002129B10548A16B0068884303490860F7
:102EA0002846FDF7B7F970BD20130020D800002098
:102EB000704700007CB56846FFF78FFCFDF7A6F968
:102EC000064646E028480068A0F1140400F018FA0D
:102ED0000546A06A281A6FF00041884237D2204682
:102EE000FEF795FD607A00F0020018B9607A20F0D4
:102EF0000100607204F114016846FFF771FC0020C4
:102F00001A4908703046FDF785F9D4E9071088475B
:102F1000FDF77CF906460120144908706846FFF762
:102F200075FC00B115E004F11400FFF780FC607A35
:102F300000F0020060B1607A00F0010040B1607AF8
:102F400020F001006072204600F0BAFA00E005E0CF
:102F500000BF0548FFF75AFC0028B3D000BF304639
:102F6000FDF758F97CBD0000F4000020F0000020BF
:102F70000FB438B5044606A800902046009A05997B
:102F800000F0F2FC054600200090284638BC5DF8B1
:102F900014FB70B50346A2B118460C4600BF14F8E6
:102FA000016B00F8016B3EB902E0002500F8015BFF
:102FB000551E2A1EF9D102E0551E2A1EEFD100BF70
:102FC00000BF184670BD00000020094A108001466D
:102FD00007E0084A02EBC1004060006000BF481CE7
:102FE00001462029F5DB0020034A106070470000ED
:102FF000DC00002020130020D800002038B56846EF
:10300000FEF744FC0446064804602046FFF726FF0E
:10301000032084F8340004F11C00FDF72CF938BDBE
:10302000E000002010B5002405E0044901EBC400D5
:10303000FFF7D3FB641C002CF7D010BDE800002084
:103040001FB5002405E00D4901EBC400FFF7C5FBE7
:10305000641C002CF7D00A200421CA01084BCDE9DA
:103060000032CDE902100023064A07A1084800F00B
:1030700089F8074800F0F0F81FBD0000F4000020B8
:10308000981400202D1A000874696D657200000004
:103090002014002070B500250C4C2068A04213D0ED
:1030A0002068A0F11405FDF7B1F8064605F11400FB
:1030B000D0E900215160D0E9001211604060006049
:1030C00000BF3046FDF7A6F8284670BD8C000020F2
:1030D0000246054802F114010368596003680B6059
:1030E0000160486000BF70478C00002010B50446A6
:1030F000204600F08FF810BD0CE0002405E00648E3
:1031000050F8245005B1A847641C042CF7D3FFF7EE
:10311000A9FA00BFF1E700001013002010B586B037
:10312000002420E0224612A104A8FFF721FF20215D
:103130001F22CB00104800EB0420CDE9013203919F
:103140000090C4EB04110D4A02EBC10000230C4AAD
:1031500004A900F017F8C4EB0411084A02EBC100FF
:1031600000F07AF8641C002CDCD006B010BD000022
:103170007469646C652564001012002098110020A9
:10318000F93000082DE9FF5F05460C4616461F463C
:10319000DDE910ABDDE90E89224601212846FFF763
:1031A00047FD3B463246214628468DE8000FFEF794
:1031B0009BFB04B0BDE8F09F70B50446204600F0CC
:1031C00083F80546284600F025F870BD70B5044622
:1031D00094F8340000F00700022802D04FF0FF30CE
:1031E00070BDFDF713F8054604F11400FFF716FB58
:1031F00004F1440000F000FA2046FFF7E1FD284604
:10320000FDF708F80020EBE7014800687047000070
:10321000E000002031B5FFF7F7FF0446FCF7F6FFAA
:10322000054600202063204600F02AF86A46002167
:1032300004F1440000F0E4F804F1440000F040F927
:103240002846FCF7E7FFFFF72DFD206B801C08B92F
:1032500000202063206B38BD10B5044694F835106B
:1032600001208840A063022084F834002046FFF744
:10327000ADFFFFF7C9FF08B1FFF714FD002010BD37
:1032800070B5044694F8340000F00705012D04D011
:10329000032D02D04FF0FF3070BDFCF7B7FF06469C
:1032A0002046FFF7DBFD94F8340020F0070040F0E3
:1032B000020084F8340004F1440000F09DF9304627
:1032C000FCF7A8FF0020E7E70146002902DA4FF0EB
:1032D000FF3014E04FF47A7291FBF2F24FF47A73FC
:1032E00002FB03F01A4691FBF2F302FB13124FF4B8
:1032F0007A735A4302F2E73292FBF3F210447047BA
:1033000001480068704700008800002070B5FCF795
:103310007DFF054610480068401C0F490860FFF714
:1033200073FF0446206C401E2064206C68B9E06B7B
:10333000206494F8340040F0080084F834002846F3
:10334000FCF768FFFFF7AEFC02E02846FCF762FFDF
:1033500000F004F870BD0000880000207CB56846CD
:10336000FFF73BFAFFF7CCFF0546FCF74FFF064699
:103370003AE022480068A0F11404A06A281A6FF00D
:10338000004188422ED22046FEF741FB607A00F0D1
:10339000020018B9607A20F00100607204F1140193
:1033A0006846FFF71DFAD4E907108847FFF7A8FF22
:1033B00005466846FFF72AFA00B115E004F114004B
:1033C000FFF735FA607A00F0020060B1607A00F031
:1033D000010040B1607A20F001006072204600F0E8
:1033E0006FF800E005E000BF0448FFF70FFA00287F
:1033F000BFD000BF3046FCF70DFF7CBDE8000020C9
:103400002DE9F04104460E461546FCF7FFFE07463F
:10341000062E21D2DFE806F00603090E131D606AAE
:1034200028601AE02868606217E0607A20F00200E5
:10343000607212E0607A40F0020060720DE0607A23
:1034400000F0010010B10120286001E00020286098
:1034500003E0A06A286000E000BF00BF3846FCF728
:10346000D9FE0020BDE8F08170B50446FCF7CEFE21
:1034700005462046FEF7CBFA607A20F00100607224
:103480002846FCF7C7FE2046FFF7A7FB002070BDCB
:103490002DE9F84307460C4615461E46DDE9088926
:1034A00022460A213846FFF7C3FB434632462946E7
:1034B0003846CDF80090FEF76DFABDE8F8830000BD
:1034C0002DE9F84305464FF00008FCF79FFE8146C2
:1034D0002846FEF79CFA687A20F001006872FFF730
:1034E0000FFF696A0844A862687A00F0040008B116
:1034F0003C4E00E03C4E009600242AE019E05DF8C6
:1035000024201168142202EBC402881A826AAB6A72
:10351000D21A00D108E0826AAB6AD21A6FF0004377
:103520009A4200D20CE000BF5DF8240000684DF81C
:1035300024005DF8240006EBC40149688842DED10E
:1035400000BF2CB15DF824000830611C4DF821004B
:10355000641C002CD2D025480068401C2349086018
:103560000846076805F114010098FFF739F90224AD
:1035700012E007F0030060B9C4F1010305F1140281
:1035800002EBC301C4F101025DF82200FFF728F944
:1035900000E003E0BF08641C012CEAD900BF687A90
:1035A00040F001006872687A00F0040078B11048B9
:1035B000007801280BD10F4890F8340000F0070084
:1035C000022804D10B48FFF701FE4FF001084846DE
:1035D000FCF720FEB8F1000F01D0FFF763FB0020DD
:1035E000BDE8F883F4000020E8000020FC00002083
:1035F000F00000202014002070B50446607A00F02E
:10360000010010B94FF0FF3070BDFCF7FFFD05461B
:103610002046FEF7FCF9607A20F00100607228462F
:10362000FCF7F8FD0020EFE72DE9FF4F89B0814658
:103630004C460A9809EB00064E4504D24FF0FF367F
:10364000A6EB09000A9077E10B980078252806D0B0
:10365000B44202D20B9800782070641C69E1002506
:1036600026E00B98401C0B900B9800782D2802D177
:1036700045F010051CE00B9800782B2802D145F08E
:10368000040515E00B980078202802D145F00805C4
:103690000EE00B980078232802D145F0200507E0C2
:1036A0000B980078302802D145F0010500E000E0D9
:1036B000D7E700BF4FF0FF370B98007830380A2863
:1036C00004D20BA800F0B0FD07460EE00B9800787E
:1036D0002A280AD10B98401C0B900C9880C80C909B
:1036E000002F02DA7F4245F010054FF0FF3A0B98A9
:1036F00000782E281CD10B98401C0B900B9800785A
:1037000030380A2804D20BA800F08EFD82460AE069
:103710000B9800782A2806D10B98401C0B900C9827
:1037200050F804AB0C90BAF1000F01DA4FF0000A28
:10373000002004900B980078682803D00B9800783C
:103740006C2805D10B98007804900B98401C0B90C6
:103750000A2005900B9800786F2873D00CDC632842
:1037600013D004DC25286ED058286DD195E064284C
:103770006BD06928F9D197E0702873D0732825D0D1
:1037800075286ED07828F0D18AE005F0100040B995
:1037900004E0B44201D220202070641C781E071E71
:1037A000F7DC0C9810F8041B0C90C8B20790B442D8
:1037B00001D207982070641C04E0B44201D220209A
:1037C0002070641C781E071EF7DCB2E00C980068BD
:1037D00006900C98001D0C90069808B960A0069001
:1037E0004FF0000801E008F10108B84504D0069840
:1037F00010F808000028F6D1BAF1000F02DDD0451C
:1038000000DDD04605F0100048B904E0B44201D212
:1038100020202070641C38467F1E4045F6DC0020C6
:1038200008900BE0B44202D2069800782070641C25
:103830000698401C06900898401C0890089840453F
:10384000F0DB09E026E01FE032E02CE00AE0B442C1
:1038500001D220202070641C38467F1E4045F6DCD3
:1038600067E024E0781C10B9082745F00105CDE990
:10387000007A02950C9804C8102331460C9020461B
:10388000FEF7E8FD044654E0B44201D22520207042
:10389000641C4EE0082005901DE045F0400500BF87
:1038A0001020059017E000BF45F0020500BF12E0B0
:1038B000B44201D225202070641C0B98007830B1EE
:1038C000B44202D20B9800782070641C02E00B987E
:1038D000401E0B902DE000BF04986C2807D10C9877
:1038E00050F804BB0C9005F00200B8B116E0049843
:1038F00068280BD10C9830F8041B1FFA81FB0C9040
:1039000005F0020050B10FFA8BFB07E00C9850F85D
:1039100004BB0C9005F0020000B100BFCDE9007AB5
:1039200002955A4631462046059BFEF793FD044614
:1039300000BF0B98401C0B900B98007800287FF478
:1039400083AE0A9838B1B44202D20020207002E05F
:10395000002006F8010CA4EB09000DB0BDE8F08FC3
:10396000284E554C4C29000037B505460C462246DA
:103970004FF0FF312846029BFFF756FE3EBD002068
:10398000704700207047002070470020704710B536
:10399000FCF73CFCFEF7B0FEFFF78AFAFFF742FBAC
:1039A000FFF712FBFEF722FEFFF74AFBFFF7B6FB1D
:1039B000FFF724FB002010BD08B500F055F80D48B6
:1039C000006AB0F15A3F01D000F042FC10E04FF025
:1039D000FF33012269460848FEF7CDFF38B99DF84C
:1039E000000010B900F09CF800E000BF00BF00BF6D
:1039F000EDE70000280B0020C40C00201FB50020BC
:103A0000052101230E4ACDE900100EA11048FEF752
:103A100079FF044614200D214FF480720D4BCDE93F
:103A20000032CDE9021000230B4A0CA10D48FFF72C
:103A3000A9FB0C48FFF710FC002004B010BD0000EB
:103A400063000020736176655F6D7367000000009E
:103A5000C40C0020C40B0020B9390008534156455E
:103A6000000000004C0B002010B50024FCF77CFF88
:103A70002046641C284901EB8000D0F80008274943
:103A800008602046641C244901EB8000D0F800083F
:103A9000224948602046641C1F4901EB8000D0F891
:103AA00000081E4988602046641C1B4901EB800009
:103AB000D0F800081949C8602046641C164901EB7B
:103AC0008000D0F80008154908612046641C12499E
:103AD00001EB8000D0F80008104948612046641CC2
:103AE0000D4901EB8000D0F800080C4988612046A0
:103AF000641C094901EB8000D0F800080749C8613F
:103B00002046641C044901EB8000D0F800080349FA
:103B10000862FCF7C7FE10BD00F00308280B002068
:103B2000F8B50024FCF720FF0020684908606848C9
:103B300088600120C86069466448FCF75BFE18B1E4
:103B4000FCF7B0FE601EF8BD62480068C617054667
:103B50002046641C5E4A042303FB00212A463346A8
:103B60000220FCF7A9FE20B1FCF79CFE4FF0FF30CD
:103B7000E9E758484068C61705462046641C544A81
:103B8000042303FB00212A4633460220FCF794FE5F
:103B900020B1FCF787FE4FF0FF30D4E74D48806836
:103BA000C61705462046641C494A042303FB00212E
:103BB0002A4633460220FCF77FFE20B1FCF772FE56
:103BC0004FF0FF30BFE74348C068C61705462046A0
:103BD000641C3F4A042303FB00212A46334602208B
:103BE000FCF76AFE20B1FCF75DFE4FF0FF30AAE75C
:103BF00038480069C61705462046641C344A042329
:103C000003FB00212A4633460220FCF755FE20B173
:103C1000FCF748FE4FF0FF3095E72E484069C61785
:103C200005462046641C2A4A042303FB00212A4639
:103C300033460220FCF740FE20B1FCF733FE4FF084
:103C4000FF3080E723488069C61705462046641C7C
:103C50001F4A042303FB00212A4633460220FCF7B7
:103C60002BFE20B1FCF71EFE4FF0FF306BE719482A
:103C7000C069C61705462046641C154A042303FB89
:103C800000212A4633460220FCF716FE20B1FCF73D
:103C900009FE4FF0FF3056E70E48006AC61705468A
:103CA0002046641C0A4A042303FB00212A463346AB
:103CB0000220FCF701FE20B1FCF7F4FD4FF0FF30CD
:103CC00041E7FCF7EFFD00203DE70000180B002066
:103CD00000F80308280B002010B50F48C07807280B
:103CE00017D2DFE800F01604070A0D10130000F0E9
:103CF000D1F80FE000F00CF90CE000F043F909E016
:103D000000F0A2F806E000F081F803E000F05CF9B2
:103D100000E000BF00BF10BD1000002010B50C482F
:103D2000807830B1012807D0022808D003280CD1B0
:103D300008E000F043FA09E000F051FA06E000F074
:103D40005FFA03E000F020FA00E000BF00BF10BD02
:103D50001000002070B50446632C00DD63240A20A7
:103D600094FBF0F0C5B20A2094FBF0F100FB114087
:103D7000C6B229460120FDF7D1FF31460220FDF7EA
:103D8000CDFF70BD10B513480068401C1149086094
:103D90000846006828280ED900200860FDF7B4FF07
:103DA0000D484078401C0C4948700846407802286D
:103DB00001DB002048700848407810B1012806D186
:103DC00002E000F01FF903E000F03CF900E000BF62
:103DD00000BF10BD0C0000201000002070B504468C
:103DE000632C00DD63240A2094FBF0F0C5B20A20A6
:103DF00094FBF0F100FB1140C6B229460320FDF709
:103E00008DFF31460420FDF789FF70BD30B50121DB
:103E10000B20FDF7DFFF0B48C0690A2190FBF1F092
:103E2000C4B20848C06990FBF1F201FB1200C5B2B0
:103E300021460320FDF772FF29460420FDF76EFF9F
:103E400030BD0000280B002030B501210420FDF713
:103E5000C1FF01210D20FDF7BDFF01211320FDF75A
:103E6000B9FF0B4800690A2190FBF1F0C4B2084881
:103E7000006990FBF1F201FB1200C5B2214603205C
:103E8000FDF74CFF29460420FDF748FF30BD000038
:103E9000280B00202DE9F04101210846FDF79AFF8B
:103EA00001210F20FDF796FF01210E20FDF792FF63
:103EB00000F0EEF8154800680A2190FBF1F0C4B25A
:103EC0001248006890FBF1F201FB1200C5B20F48E6
:103ED000406890FBF1F0C6B20C48406890FBF1F2EC
:103EE00001FB1200C7B221460120FDF717FF29464A
:103EF0000220FDF713FF31460320FDF70FFF39467F
:103F00000420FDF70BFFBDE8F0810000280B002026
:103F1000F0B501210220FDF75DFF01211120FDF721
:103F200059FF01211020FDF755FF154880680A212F
:103F300090FBF1F0C4B21248806890FBF1F201FBF3
:103F40001200C5B20E48C06890FBF1F0C6B20C4832
:103F5000C06890FBF1F201FB1200C7B221460120BC
:103F6000FDF7DCFE29460220FDF7D8FE314603208E
:103F7000FDF7D4FE39460420FDF7D0FEF0BD000069
:103F8000280B002030B501210320FDF723FF01217C
:103F90001020FDF71FFF0B4840690A2190FBF1F04C
:103FA000C4B20848406990FBF1F201FB1200C5B2AF
:103FB00021460320FDF7B2FE29460420FDF7AEFEA0
:103FC00030BD0000280B002030B501210520FDF791
:103FD00001FF0B4880690A2190FBF1F0C4B2084848
:103FE000806990FBF1F201FB1200C5B2214603206B
:103FF000FDF794FE29460420FDF790FE30BD000039
:10400000280B002010B501210C20FDF7E3FE012153
:104010000D20FDF7DFFE01211220FDF7DBFE01215F
:104020001320FDF7D7FE01210846FDF7B7FE012159
:104030000220FDF7B3FE0C20FFF78CFE2D20FFF7CA
:10404000CDFE10BD2DE9F04101210846FDF7C2FE6D
:1040500001210F20FDF7BEFE01210E20FDF7BAFE63
:1040600000F016F801240325042605272146012027
:10407000FDF754FE29460220FDF750FE314603208D
:10408000FDF74CFE39460420FDF748FEBDE8F081FF
:1040900030B509240225012229462046FDF7C4FE39
:1040A00030BD0000002000F049F86420FFF784F8DC
:1040B000FDF78EFF0A4909780A4A52F82100804725
:1040C000002000F031F80AE005490978054A52F865
:1040D00021008047FDF7C0FE6420FFF76DF8F3E78D
:1040E00010000020540000201FB5142010218A0168
:1040F000084BCDE90032CDE902100023064A07A1A2
:104100000848FFF73FF80748FFF7A6F8002004B07B
:1041100010BD00005C050020A540000873637265B7
:10412000656E0000B804002010B50446FDF7ECFDF4
:104130000148047010BD00001000002010B50446B6
:1041400034B900224FF400610548FCF7D7FD04E0C4
:104150000122D1020248FCF7D1FD002010BD000071
:104160000010014010B5FDF7CFFD0648C078401C97
:104170000449C8700846C078072801DB0120C870D0
:1041800010BD00001000002010B50020FFF7E2FD78
:104190000020FFF723FE10BD10B5FDF7B5FD064862
:1041A0008078401C0449887008468078042801DB28
:1041B0000020887010BD00001000002010B5012103
:1041C0000C20FDF707FE01211220FDF703FE01215F
:1041D0000846FDF7E3FD0C20FFF7BCFD10BD10B550
:1041E00001210620FDF7F6FD01210820FDF7F2FD73
:1041F0000020FFF7AFFD0020FFF7F0FD10BD00002D
:1042000010B501210620FDF7E5FD01210720FDF78E
:10421000E1FD0020FFF79EFD02490879FFF7DEFD72
:1042200010BD0000280B00200146002009E00B68AB
:104230005A1C0A601A7800EB800302EB4302A2F1D9
:1042400030000A681278303A0A2AF0D3704700002A
:1042500010B501200D4908600220486003208860E5
:104260000420C86005200861062048610720886195
:104270000820C8614FF05A300862FFF751FC10B1B6
:104280004FF0FF3010BD0020FCE70000280B00209D
:104290003F065B4F666D7D077F6F000203040506D6
:1042A0000708090A0B0C0D0E0F1010010200000088
:1042B00000000000000102030406070809000000D6
:1042C00000010203040000010002000100030001DC
:1042D00000020001000400010002000100030001CF
:1042E00000020001000500010002000100030001BE
:1042F00000020001000400010002000100030001AF
:10430000000200010006000100020001000300019C
:10431000000200010004000100020001000300018E
:10432000000200010005000100020001000300017D
:10433000000200010004000100020001000300016E
:10434000000200010007000100020001000300015B
:10435000000200010004000100020001000300014E
:10436000000200010005000100020001000300013D
:10437000000200010004000100020001000300012E
:10438000000200010006000100020001000300011C
:10439000000200010004000100020001000300010E
:1043A00000020001000500010002000100030001FD
:1043B00000020001000400010002000100030001EE
:1043C000000200010030313233343536373839617C
:1043D00062636465660030313233343536373839DC
:1043E00041424344454600008B39000883390008A8
:1043F0007F39000849060008E94000089D1A0008B6
:10440000FD39000887390008284400080000002012
:10441000000100006C010008284500080001002090
:10442000F81B0000880100080000000000000000E8
:104430000000000000000000000000000011121346
:10444000145453525122213464B4F3A4F2A2A1F1C2
:104450000000000000000074737271616362949345
:104460009291818382C4C3C2C1B1B3B2E4E3E2E1F9
:10447000D1D3D2444342413133320000853D00085C
:104480001D3D0008D93C00080000000000000000AD
:1044900000000000100000000100000000127A007F
:1044A000000000000000000000000000000000000C
:1044B000000000008C0000208C00002000000000A4
:1044C000010000009C0000209C00002078000000FB
:1044D00003000000AC000020AC000020240000001D
:1044E00006000000BC000020BC0000203C000000D2
:1044F0000A000000CC000020CC0000202C000000AE
:1045000000000000000000000000000000000000AB
:10451000000000000000000001000000000000009A
:08452000000000000000000093
:0400000508000131BD
:00000001FF
