:020000040800F2
:1000000040140020CD0100087F0E0008B90200084E
:100010007D0E0008D9030008530F000800000000FF
:10002000000000000000000000000000DF010008E8
:10003000F1050008000000003B020008810E0008E6
:10004000E7010008E7010008E7010008E7010008F0
:10005000E7010008E7010008E7010008E7010008E0
:10006000E7010008E7010008E7010008E7010008D0
:10007000E7010008E7010008E7010008E7010008C0
:10008000E7010008E7010008E7010008E7010008B0
:10009000E7010008E7010008E7010008E7010008A0
:1000A000E7010008E7010008E7010008E701000890
:1000B000E7010008E7010008E7010008E701000880
:1000C000E7010008E7010008E7010008E701000870
:1000D000E7010008E7010008E7010008E701000860
:1000E000E7010008E7010008E7010008E701000850
:1000F000E7010008E7010008E7010008E701000840
:10010000E7010008E7010008E7010008E70100082F
:10011000E7010008E7010008E7010008E70100081F
:10012000E7010008E7010008E7010008E70100080F
:1001300000F002F800F03AF80AA090E8000C8244BF
:100140008344AAF10107DA4501D100F02FF8AFF29C
:10015000090EBAE80F0013F0010F18BFFB1A43F0A5
:10016000010318475421000074210000103A24BFF5
:1001700078C878C1FAD8520724BF30C830C144BF0C
:1001800004680C607047000000230024002500264E
:10019000103A28BF78C1FBD8520728BF30C148BFEA
:1001A0000B6070471FB51FBD10B510BD00F0D6F82D
:1001B0001146FFF7F7FF00F00AF900F0F4F803B476
:1001C000FFF7F2FF03BC00F0FBF80000094880478E
:1001D00009480047FEE7FEE7FEE7FEE7FEE7FEE729
:1001E000FEE7FEE7FEE7FEE704480549054A064B41
:1001F00070470000510F000831010008400E002038
:10020000401400204010002040100020EFF3108028
:1002100072B6704780F310887047344A1368012B18
:1002200004D04FF001031360314A1060314A11606D
:1002300031484FF0805101607047EFF3108272B681
:100240002A48016891B14FF0000101602848016817
:1002500029B1EFF3098121E9F00F00680160254918
:1002600009680968B1E8F00F81F3098882F3108802
:100270004EF0040E70471F4908601D494FF0000002
:1002800008601A494FF0010008601C481C49D0F86A
:10029000002041EA0201016017484FF080510160DF
:1002A00018480068006880F3088861B662B6BFF33A
:1002B0004F8FBFF36F8F70471EF0040F0CBFEFF32B
:1002C0000880EFF3098020E9F00F40F804ED1EF0FC
:1002D000040F0CBF80F3088880F3098800B501F093
:1002E000FDF85DF804EB4EF0040E7047200000208E
:1002F000180000201C00002004ED00E020ED00E0CC
:100300000000FFFF08ED00E04FF0000200B51346CB
:1003100094469646203922BFA0E80C50A0E80C5025
:10032000B1F12001BFF4F7AF090728BFA0E80C50D6
:1003300048BF0CC05DF804EB890028BF40F8042BCF
:1003400008BF704748BF20F8022B11F0804F18BF3C
:1003500000F8012B7047704770477047754600F0F2
:100360002BF8AE4605006946534620F00700854647
:1003700018B020B5FFF738FFBDE820404FF0000669
:100380004FF000074FF000084FF0000B21F007017D
:10039000AC46ACE8C009ACE8C009ACE8C009ACE8C0
:1003A000C0098D46704710B50446AFF30080204663
:1003B000BDE81040FFF703BF00487047E00D002084
:1003C00001491820ABBEFEE726000200704710B5B9
:1003D00001F09CFE002010BDFEE7072903D000EBD2
:1003E000810082617047002100EB8103491CC9B282
:1003F0009A610729F8D370472DE9F0410C4605466C
:100400001F46164644212046FFF77EFF201D2A4640
:100410001021002512F8013B00F8013BEBB1491E09
:10042000F8D1207D20F00F00093020F0F00090304E
:1004300020750920A0752660607D67F30100607556
:10044000B047617D0A4A60F38301617584F83A50D0
:100450001068014605E000F8015B491EFBD1E0E7AA
:10046000006C0028FCD121641460BDE8F08100001C
:100470000000002010B5044600688047617D00221E
:10048000C1F3810383421DD094F83A305B1CDBB288
:1004900084F83A30022B15D360F38301617584F838
:1004A0003A20207D00F00F01092904D0022902D052
:1004B000010703D006E020F00F0002E020F00F005B
:1004C000401C2075207D10F00F0112D0012934D07E
:1004D000022931D194F83910491CC9B284F8391075
:1004E0000F2929D320F00F00093020F0F0009030C0
:1004F00050E0607DC0F3810100F0030081421BD118
:10050000A27594F83B00401CC0B284F83B0032282E
:1005100012D394F83C0030B9012084F83C00616AA1
:1005200009B1204688470320A07594F83B00FF28B6
:1005300002D1322084F83B0010BDA17D61B10329B6
:10054000FAD120F00F00093084F83C2020F0F000B0
:1005500084F83B2030301DE094F839100F290AD878
:100560000221B1EB101F06D1A175216A09B1204605
:100570008847207DB6E784F8392084F83B20A169BC
:1005800009B120468847207D20F00F00801C20F014
:10059000F0002030207510BD054810B5046803E058
:1005A0002046FFF767FF246C002CF9D110BD000036
:1005B000000000201FB50A4814230F224FF40071D9
:1005C0008DE80F000023074A07A1783801F05EFA92
:1005D0000348783801F0C0FA04B0002010BD0000D4
:1005E0001001002039110008627574746F6E0000EC
:1005F000704700002DE9F84FDFF8C0910024A9F101
:10060000040B23464FF00F0809F1040AABF1040E66
:10061000CCE00127A7403A40BA4272D1DFF8A0C12E
:100620004D68A5EB0C0665452BD00DDC032D34D0B1
:1006300005DC35B3012D19D0022D2FD11BE0112D72
:1006400016D0122D2AD119E0B6F5881F19D006DC74
:10065000B6F5803F15D0B6F5801F1FD111E0B6F575
:10066000001F0ED0B6F5041F18D10AE0CB6815E0C4
:10067000CB681B1D12E0CB6808330FE0CB680C334E
:100680000CE08B682BB1012B4FF0080303D04761BE
:1006900004E0042302E0076100E00023FF2A01D800
:1006A000064601E000F104064FEA840501D9A5F1F0
:1006B0002005376808FA05FC27EA0C0703FA05F558
:1006C00047EA050737604D68ED006ED53D4DAE69D0
:1006D00046F00106AE61AD6924F0030605F00105A0
:1006E0000095394D7719BE68A5072D0F08FA05FC4E
:1006F00026EA0C06DFF8D4C0604503D14FF0000CA9
:1007000025E052E0DFF8C8C0604502D14FF0010C8F
:100710001DE0DFF8C0C0604502D14FF0020C16E0CA
:10072000DFF8B4C0604502D14FF0030C0FE0DFF8F2
:10073000ACC0604502D14FF0040C08E0DFF8A0C067
:10074000604502D14FF0050C01E04FF0060C0CFAA9
:1007500005FC4CEA060CC7F808C04D68D9F80060E3
:10076000ED024D4601D5164300E096432E604D68DC
:10077000DAF80060AD02554601D5164300E0964315
:100780002E604D68DBF80060AD035D4601D5164371
:1007900000E096432E604D68DEF80060ED0375467C
:1007A00001D5164300E096432E60641C0A6832FAB5
:1007B00004F57FF42EAFBDE8F88F00000804014077
:1007C000000011100010024000000140000801402C
:1007D000000C0140001001400014014000180140CD
:1007E000001C01408068084000D001207047C268AA
:1007F00021EA02030A4043EA0241016170470AB15B
:10080000016170470904FBE70148806870470000F8
:1008100004000020074810B5016841F01001016094
:10082000032000F067F8002000F006F800F024F83C
:10083000002010BD0020024070B50D4D04464FF45D
:100840007A712878B1FBF0F00A490968B1FBF0F041
:1008500000F0B6FA48B9102C07D200222146501EEB
:1008600000F028F800206C6070BD012070BD000011
:1008700004000020100000200C4808B5816941F0F8
:1008800001018161816901F001010091C16941F0BB
:100890008051C161C069064900F0805000904868ED
:1008A00020F0E06040F00070486008BD0010024099
:1008B00000000140F0B40E4B1B68C3F30223C3F1E8
:1008C0000704042C00D904241D1D072D01D2002388
:1008D00000E0DB1E012606FA04F56D1E0D409D406A
:1008E0009E40761E164045EA0601F0BC00F032BB81
:1008F0000CED00E0064A00F0070110684FF6FF0318
:10090000184040EA01200349084310607047000086
:100910000CED00E00000FA052DE9F0470D4604005B
:1009200067D0DFF81881D8F8000000F00700A8426F
:100930000CD2D8F8001021F007012943C8F80010A4
:10094000D8F8000000F00700A84252D120683C4EC1
:10095000810712D5400703D5706840F4E0607060ED
:100960002078000703D5706840F4605070607068AC
:10097000A16820F0F000084370602078C00727D0FD
:100980006068012810D03168022810D0890700293A
:100990002FDA716821F0030101437160FFF734FF22
:1009A000074641F288390CE031688903EFE7890195
:1009B000EDE7FFF729FFC11B494502D90320BDE838
:1009C000F0877068616800F00C00B0EB810FF0D127
:1009D000D8F80010404601F00701A9420BD9016880
:1009E00021F0070129430160006800F00700A842D8
:1009F00001D00120E3E72078400705D57068E16861
:100A000020F4E060084370602078000706D5706825
:100A1000216920F4605040EAC100706000F01EF8C7
:100A20007168084AC1F30311515CC8400649086067
:100A300006480068FFF700FF0020C0E700200240E2
:100A40000010024070210008100000200800002063
:100A50000148006870470000100000200E4B5968E4
:100A60000E4801F00C02042A11D0082A0FD10C48BC
:100A7000C1F38342C903805C0AD55968084AC1F3AF
:100A80004041921E515C054A5043B0FBF1F0704763
:100A900004494843704700000010024000127A00E9
:100AA0006021000800093D002DE9F84F04006FD0D7
:100AB0002078BE4DC00747D06868C0F38100012888
:100AC00007D06868C0F38100022809D16868C003B4
:100AD00006D52868800337D560680028E7D033E062
:100AE0006068B0F5803F0BD010B1B0F5A02F11D0E9
:100AF000286820F480302860286820F4802002E0F4
:100B0000286840F480302860606888B1FFF77CFE78
:100B1000064609E0286840F480202860F0E7FFF7E7
:100B200073FE801B642873D828688003F7D50BE018
:100B3000FFF76AFE064604E0FFF766FE801B6428A6
:100B4000F1D828688003F7D42078DFF86482800722
:100B50004FF0010A4FF0000939D5686810F00C0F0A
:100B600007D06868C0F38100022809D16868C00313
:100B700006D42868800714D52069012808D110E020
:100B80002069B0B1C8F800A0FFF73EFE064605E0B8
:100B900007E1FFF739FE801B0228C4D828688007C8
:100BA000F7D52868616920F0F80040EAC1002860A4
:100BB0000DE0C8F80090FFF727FE064604E0FFF7B7
:100BC00023FE801B022823D828688007F7D42078CA
:100BD00000072CD57748A169D9B1C0F800A0FFF76C
:100BE00013FE064604E0FFF70FFE801B02280FD815
:100BF000686A8007F7D570484FF4FA510068B0FB77
:100C0000F1F0009000BF0098411E0091FAD20EE072
:100C10007CE0C0F80090FFF7F7FD064604E0FFF720
:100C2000F3FD801B022871D8686A8007F7D420780A
:100C300040075BD5E8690027C00008D4E86940F0A8
:100C40008050E861E869012700F0805000905B481F
:100C50000168C90511D40168834641F480710160BF
:100C6000FFF7D2FD064604E0FFF7CEFD801B6428A7
:100C70004CD8DBF80000C005F6D5E06801280AD0A2
:100C800008B1052813D0286A20F001002862286ADC
:100C900020F0040002E0286A40F001002862E068C9
:100CA00041F2883B88B1FFF7AFFD064609E0286AAC
:100CB00040F004002862EEE7FFF7A6FD811B5945CE
:100CC0005BD8286A8007F7D50BE0FFF79DFD064645
:100CD00004E0FFF799FD811B59454ED8286A80072B
:100CE000F7D41FB1E86920F08050E861E069A8B34B
:100CF0006968C1F38101022946D00228484606D01E
:100D0000C8F86000FFF780FD044639E035E047464B
:100D1000C8F86000FFF778FD064604E0FFF774FDB1
:100D2000801B022829D828688001F7D4206AB0F5F2
:100D3000803F05D16868A16820F4003008436860EE
:100D4000D4E908010843696821F474110843686014
:100D5000C7F860A0FFF758FD044605E023E0FFF761
:100D600053FD001B022808D828688001F7D51AE037
:100D7000FFF74AFD001B022802D90320BDE8F88FC7
:100D800028688001F4D40EE00128F7D06868226A50
:100D900000F48031914204D1616A00F470108842FD
:100DA00001D00120EAE70020E8E70000001002403F
:100DB00000004242800442421000002000700040C7
:100DC00010B5401EB0F1807F01D3012010BD4FF05F
:100DD000E02460610F21601700F0BCF80020A061E2
:100DE00007202061002010BD70B586B00024204887
:100DF0000094019402940394816941F0100181618F
:100E0000816901F010010491816941F0040181615F
:100E1000816901F004010491816941F00801816157
:100E20008069144E00F008004FF4806504900022A1
:100E300029463046FFF7E3FC0F20CDE90004694660
:100E400030460294FFF7D6FB01200095CDE901045E
:100E50000220039069463046FFF7CCFB6810CDE9CD
:100E60000004694604480294FFF7C4FB06B070BD55
:100E70000010024000100140000C0140FEE7FEE7B8
:100E800010B500F055FB00F0BDFEBDE8104000F0CD
:100E90005DBB10B590B028216846FFF735FA1421E4
:100EA0000AA8FFF731FA02200090012004901020D8
:100EB0000024059007946846FFF7F6FD08B172B666
:100EC000FEE70F20CDE90A044FF48060CDE90C4025
:100ED00000210AA80E94FFF71FFD002801D072B66A
:100EE000FEE710B010BD0000144A10B55068144B56
:100EF00010F00C01134803D0042901D0082901D0B7
:100F0000036012E05168536801F470114FF002045D
:100F100013F4803F04EB914102D053689B0301D549
:100F2000094B00E0064B594301605168074AC1F381
:100F30000311515C0268CA40026010BD00100240FB
:100F400000127A001000002000093D007021000806
:100F50007047FEE70907090E002804DB00F1E020D6
:100F600080F80014704700F00F0000F1E02080F8D6
:100F7000141D7047002806D00E4910F0FF0F03D053
:100F8000C0B2085C401C704710F47F4F04D0C0F31F
:100F90000720085C0930704710F47F0F04D0C0F3BD
:100FA0000740085C1130704701EB10600078193081
:100FB000704700008021000810B50446054880688D
:100FC000FFF7D8FF0449401E51F830102060A1F10E
:100FD000140010BD74000020680A002070B50C4891
:100FE0000468FFF713F90546204600F0EBFB04F117
:100FF000440000F09BFE042084F83400204600F0FA
:10100000E9FC2846FFF706F9BDE8704000F042BB56
:10101000780000202DE9FC4119460446DDE9083737
:10102000DDE90A65143040600060C4E90821C4E9C4
:101030000A373A462321184600F0B6FAD4E90A01E5
:101040004218D4E908010E4B121F00F053FAE06178
:1010500084F835600020C4E90E052564206384F817
:10106000340020676067009023460190054A1946C6
:1010700004F1440000F06EFE0020BDE8FC81000099
:10108000DD0F00088910000870B50446FFF7BEF8B0
:1010900005466FF00100206304F1140000F072FABD
:1010A000204600F055FB2846FFF7B4F8BDE8704035
:1010B00000F0F0BA70B50C460646FFF7A7F80546F3
:1010C000304600F058FA28B12846FFF7A3F84FF051
:1010D000FF3070BD3268506920602846FFF79AF8EB
:1010E000002070BD70B50546002405EBC400143027
:1010F00000F051FA641C012CF7DB70BD08B56FF0ED
:10110000004469460B48FFF7D5FF30B100F0FCFC06
:1011100000F036FD00F0BEFA08E000F06DFD009929
:10112000081AA04202D2009000F060FC00F072FBAE
:10113000E7E70000900000200023214A214922A077
:10114000FFF75AF9224A00211E48FFF746F91D49C8
:101150000023204A443120A0FFF74EF91948214AC4
:1011600000214430FFF739F9164900231E4A88311F
:101170001EA0FFF741F913481E4A00218830FFF7EF
:101180002CF9104900231C4ACC311CA0FFF734F97C
:101190000C481D4A0021CC30FFF71FF900231B4AE1
:1011A0001B491CA0FFF728F91D4A00211848FFF72A
:1011B00014F9FFF7F1F9142000F080FCF9E70000C2
:1011C0006D120008100300206B65795F75700000D8
:1011D000691200083D1200086B65795F646F776ED5
:1011E00000000000391200084D1200086B65795F9D
:1011F0006F6B0000491200085D1200086B65795F93
:1012000073746F7000000000591200082912000862
:10121000200400206B65795F6261636B0000000051
:1012200025120008704700004FF400710148FFF7D5
:10123000D9BA0000000C01407047000002210148AB
:10124000FFF7D0BA001001407047000001210148AB
:10125000FFF7C8BA0010014070470000082101489C
:10126000FFF7C0BA00100140704700000421014898
:10127000FFF7B8BA00100140FFF7CCFAFFF709FEFC
:10128000FFF7B2FD094D4FF47A764FF48064304693
:1012900000F014FC21462846FFF7A9FA304600F07A
:1012A0000DFC21462846FFF7A2FAF0E700100140A6
:1012B00010B500F0C7F8BDE81040FFF7DDBF000033
:1012C0002DE9FF4F9B46DDE90DE50F9CA84663061F
:1012D00001D5454B01E0444B113B9946E30601D54E
:1012E00024F00104E30701D0302300E020239A46D4
:1012F0000026A3070BD5002A02DA2D26524206E06B
:10130000630701D52B2602E0230700D52026002302
:1013100022B930228DF8002001230CE0BBF10A0F26
:1013200014D002F00F0C120919F80CC00DF803C00C
:101330005B1C002AF2D1AB4200DD1D46AEEB05027C
:1013400014F0110F4FF0200C08D015E00A27B2FB63
:10135000F7FC07FB1C2CB2FBF7F2E5E746B1002ACD
:1013600006DD521E04E0884201D280F800C0401C15
:10137000171EA2F10102F6DC26B1884200D20670E7
:10138000401C521EE40605D508E0884201D280F8D0
:1013900000A0401C141EA2F10102F6DC30242E46EF
:1013A0006D1E9E420ADD884200D20470401CF6E7A2
:1013B000884201D2E55C0570401C00E06C461D1EB1
:1013C000A3F1010308DDB8F1000FF1D104E0884278
:1013D00001D280F800C0401C131EA2F10102F6DC0D
:1013E00004B0BDE8F08F0000912200081FB50A4C40
:1013F00014230A224FF48061A4F580608DE80F0069
:101400000023064A06A1204600F040FB04B0204617
:10141000BDE8104000F0A0BB68080020B112000831
:101420006D61696E0000000070B5044C044D02E06F
:1014300020688047241DAC42FAD370BDA822000862
:10144000AC22000870B5044C044D02E020688047CF
:10145000241DAC42FAD370BDAC220008B4220008AF
:1014600010B5FEF7D3FE044A5188491C5180BDE8EF
:101470001040FEF7CFBE00007400002010B5FEF74C
:10148000C5FE0B4C6188491E09B2618000290ADC47
:1014900000216180FEF7BEFE6068002807D0BDE82D
:1014A000104000F0F7B8BDE81040FEF7B3BE10BD25
:1014B0007400002010B5FFF7ADF9FFF7EAFCFFF765
:1014C00013FDFFF7C5FA4FF47A71B0FBF1F0FFF7A7
:1014D00077FCBDE81040FFF7A7BF0000044910B536
:1014E000096811B18847002800D0FEE710BD000050
:1014F0001400002070B50546121D22F00700403888
:101500000A4C0646002240F82240521C102AFAD308
:10151000016200214162816200F13002C16282E811
:101520002A004FF08071F16370BD0000EFBEADDEA8
:1015300010B5FEF76BFE044A1178491C1170BDE826
:101540001040FEF767BE00003000002010B5FEF727
:101550005DFE044A1178491E1170BDE81040FEF787
:1015600059BE0000300000200268516002680A6025
:101570000160486070470168814201D101207047D5
:1015800000207047D0E900124A60D0E900121160D3
:10159000406000607047D0E900124A60D0E9001254
:1015A000116040600060704710B50346CCB2042A59
:1015B00019D3810717D1194644EA042343EA0343A8
:1015C00006E008C1103A08C141F8083B41F8043C64
:1015D000102AF6D201E008C1121F042AFBD20B46E2
:1015E00001E003F8014B521EFBD210BD10B50446BA
:1015F00000202072FEF70AFEF4E903124A60D4E9E3
:101600000012116064602460BDE81040FEF702BE65
:10161000074A002102EB01131B78834202D102EB3F
:1016200001107047491C0429F4DB002070470000BA
:10163000340000202DE9F041054617460E460846C5
:10164000FFF7E6FF0446FFF70BFF211D606800E08F
:1016500000688842FCD1FFF711FF46F08000287235
:1016600008223946284600F030F9FEF7CFFD54F83D
:10167000041F0C354D602168296025606C60BDE851
:10168000F041FEF7C7BD007A000601D50120704782
:1016900000207047F8B5FEF7B9FD2B4D0746688866
:1016A000D8BBA868C8B300266846FFF785FC696800
:1016B0000446284691F8342002F00703032B0ED18C
:1016C00091F83530009DAB4202D303D1130701D40A
:1016D0000C4600E0012622F0080281F834208C42FA
:1016E00022D0009A02700D46446016B1084600F000
:1016F0002FF8204600F066F894F8340020F0070038
:10170000C01C84F834001148007804F11C01002842
:1017100005F11C0002D0FEF780FD10E0FEF77DFD14
:101720003846FEF777FDF8BD0446084600F04AF853
:10173000606810F8341F21F00701C91C0170384699
:10174000BDE8F840FEF766BD7400002030000020C0
:1017500070B50446FEF75AFD184B0246586884429D
:1017600006D114F8340F20F00700C01C207020E0D0
:1017700094F83400124920F00700401C84F834002B
:10178000050794F8355004F1140001EBC50106D5A6
:101790004D6828604D6845604860016005E00D684F
:1017A00068600D68056008604160A06B9968084337
:1017B0009860BDE870401046FEF72CBD7400002014
:1017C000680A002070B50546FEF720FD05F11404F7
:1017D0000146D4E900024260D4E900021060AC6125
:1017E0006C6195F83500084A02EBC000026882423D
:1017F00004D10648AB6B82689A438260BDE87040B2
:101800000846FEF707BD0000680A002074000020AB
:10181000704700002DE9FC41CDF804D0CDF800D090
:10182000FEF7F4FC05463AE022480468143C00F058
:10183000E3F9A16A401A6FF00041884234D2204691
:10184000FFF750FC607A810702D420F0010060723B
:1018500004F114010F466846FFF786FE154E00207E
:10186000103E30702846FEF7D5FCD4E907108847B3
:10187000FEF7CCFC0546012030706846FFF77BFE82
:1018800068B93846FFF787FE607A810707D5C10738
:1018900005D020F001006072204600F079FA05487A
:1018A000FFF769FE0028BFD02846FEF7B3FCBDE86D
:1018B000FC810000900000200FB410B504AA039929
:1018C00000F014FC10BC5DF814FB10B5002A07D022
:1018D000034611F8014B03F8014B2CB1521EF8D10D
:1018E00010BD03F8011B00E00021521EF9D110BD0C
:1018F00010B5074B0022074C5A80104604EBC0017C
:10190000401C496009602028F8DB9A6010BD000087
:1019100074000020680A002038B56846FFF74CFBC9
:101920000446064844602046FFF74CFF032084F835
:10193000340004F11C00FEF79EFC38BD740000204A
:10194000044A002002EBC001401C49600960F9D044
:1019500070470000880000201FB50D4A002002EBF0
:10196000C001401C49600960F9D0042209480A23DB
:10197000D1018DE80F000023074A08A1783800F054
:1019800085F804B00348BDE81040783800F0E4B8AA
:1019900090000020E00B0020FD10000874696D65C8
:1019A0007200000070B50A4900250C688C420DD009
:1019B000A4F11405FEF72AFCD4E900124A60D4E928
:1019C0000012116064602460FEF724FC284670BD9C
:1019D00028000020044914300A6850600A68026038
:1019E00008604160704700002800002000F092B8B5
:1019F0000C4E002456F8240000B18047641C042CCF
:101A0000F8D3FFF7CFFF0400F3D0256FFFF73BFEBD
:101A1000012802D12046FFF7E9FD002DF1D0204634
:101A2000A847EEE7580A00202DE9F047DFF84CA060
:101A3000002486B020264FF01F084FF48079AAF1C9
:101A4000780522460EA104A8FFF736FF0AEB042111
:101A5000CDE90019C4EB0410CDE9028605EBC00006
:101A600007460023084A04A900F010F8384600F0A1
:101A700073F8641CE5D006B0BDE8F0875809002073
:101A80007469646C65256400F11900082DE9FF5F35
:101A900092460EAA0F4692E870010A46994683467E
:101AA0000121FFF7C7FD8DE870014B4652463946CC
:101AB0005846FFF7AFFA04B0BDE8F09F10B500F04C
:101AC00082F8BDE8104000F025B870B5044690F8E3
:101AD000340000F00700022802D04FF0FF3070BD44
:101AE000FEF794FB054604F11400FFF74BFD04F1EB
:101AF000440000F0B3F92046FFF72AFE2846FEF71F
:101B000089FB002070BD000001480068704700009C
:101B100078000020F1B50F480468FEF777FB064611
:101B200000252046256300F02BF804F144006A46A6
:101B30000021074600F0D4F8384600F029F9304675
:101B4000FEF768FBFFF7A6FD206B801C00D1256324
:101B5000206BF8BD7800002010B590F835200121E9
:101B600091408163022180F83410FFF7AEFF0348F3
:101B7000006808B1FFF78EFD002010BD780000203E
:101B800070B5044690F8340000F00700012804D036
:101B9000032802D04FF0FF3070BDFEF737FB05463B
:101BA0002046FFF70FFE94F8340020F00700801C59
:101BB00084F8340004F1440000F050F92846FEF7A0
:101BC00029FB002070BD002802DA4FF0FF3070477B
:101BD0004FF47A7190FBF1F290FBF1F301FB1300EB
:101BE00000EB40034A43C3EBC0104B1E03EBC000A5
:101BF00090FBF1F010447047014800687047000006
:101C00002400002010B5FEF701FB04460E480168D1
:101C1000491C0160FFF778FF016C491E016406D082
:101C20002046FEF7F7FABDE8104000F00FB8C16B90
:101C3000016410F8341F41F0080101702046FEF7DE
:101C4000E9FAFFF727FDEEE7240000202DE9FC412B
:101C5000CDF804D0CDF800D0FFF7CEFF0646FEF752
:101C6000D5FA05462FE01D486FF000410468606911
:101C7000143C301A88422BD22046FFF733FA607AA0
:101C8000810702D420F00100607204F114010F46B4
:101C90006846FFF769FCD4E907108847FFF7ACFFF7
:101CA00006466846FFF767FC68B93846FFF773FCDD
:101CB000607A810707D5C10705D020F00100607266
:101CC000204600F065F80548FFF755FC0028CAD00B
:101CD0002846FEF79FFABDE8FC810000880000203E
:101CE00070B515460E460446FEF790FA062E17D23A
:101CF000DFE806F00503080C111A616A0FE0296895
:101D000061620DE0617A21F0020102E0617A41F046
:101D10000201617204E0617AC90700D001212960E3
:101D2000FEF778FA002070BDA16AF8E770B50446A6
:101D3000FEF76CFA05462046FFF7D4F9607A20F0EA
:101D4000010060722846FEF765FA2046FFF74EFC58
:101D5000002070BD2DE9F0411646DDE906580A461F
:101D60001F4604460A21FFF765FC28F00101617255
:101D70000021C4E90951C4E9076704EBC10014302C
:101D8000491C406000600129F7DBBDE8F0810000DC
:101D90002DE9F84304460025FEF738FA814620462F
:101DA000FFF7A0F9607A20F001006072FFF724FFCE
:101DB000616A4618A662607A400701D5254B01E0AA
:101DC000244B083B00226F4600930DE0D0F800C082
:101DD000ACEBC2014969B14204D0891B6FF00048E5
:101DE000414508D347F822C003EBC20157F822004F
:101DF00049688842EAD11AB107EB8201083048608D
:101E0000521CF1D0134E04F11401103E7068401CB6
:101E100070600098FFF7A8FB607A40F001006072E4
:101E200040070DD5307801280AD10B4890F83400CE
:101E300000F00700022803D10748FFF746FE0125FE
:101E40004846FEF7E7F90DB1FFF724FC0020BDE896
:101E5000F883000090000020680B002070B5044655
:101E6000407AC0070ED0FEF7D1F905462046FFF7AD
:101E700039F9607A20F0010060722846FEF7CAF94D
:101E8000002070BD4FF0FF3070BD00002DE9FF4F06
:101E900083B08146044604981F4609EB00084FF0C2
:101EA000FF3B4FF0200AA04503D2C9F1FF30D846CE
:101EB0000490FAE0252803D044457CD220707AE0D3
:101EC00000250599491C059108782D2811D02B284B
:101ED00012D0202813D0232814D0302815D00A7807
:101EE0005E46303A0A2A13D205A800F024F90646C5
:101EF00018E045F01005E4E745F00405E1E745F09A
:101F00000805DEE745F02005DBE745F00105D8E7E9
:101F10002A2807D1491C059140CF002E02DA7642CB
:101F200045F0100505985B4601782E2913D1401C19
:101F300005900178A1F130020A2A04D205A800F028
:101F4000FAF8034604E02A2904D1401C059008CF82
:101F5000002B00DA0023059A00201178682901D0AF
:101F60006C2902D1521C0846059211784FF00A0CD8
:101F70006F297FD00CDC63291FD004DC252975D0A4
:101F800058290DD179E064297CD0692908D179E0FC
:101F9000702960D073292AD0752975D078296ED020
:101FA000444501D2252020700598641C0178D1B3E6
:101FB000444500D22170641C74E0E80608D4514600
:101FC000761E002E04DD444500D22170641CF7E724
:101FD00017F8040B444500D22070514602E04445F6
:101FE00000D22170641C761E002EF8DC5AE002CF6D
:101FF00001B93CA1002000E0401CB04202D00A5CC4
:10200000002AF9D1002B02DD984200DD1846EA06CD
:102010000AD452463346761E834205DD444500D23B
:102020002270641CF6E74CE0002206E0444501D231
:102030000B782370491C521C641C8242F6DB52460A
:102040003146761E81422DDD444500D22270641C4B
:10205000F6E70FE00AE0701C02D1082645F0010502
:102060000096CDE9013504CF102316E04445A2D2F5
:10207000252023E74FF0080C06E045F040054FF01F
:10208000100C01E045F002056C2801D068281BD037
:1020900004CF0096CDE90135634641462046FFF75F
:1020A0000FF904460598401C059005980078002813
:1020B0007FF400AF049880B1002044450BD220701B
:1020C0000BE0401E0590EDE737F8040B82B2A8073D
:1020D000DFD512B2DDE708F8010C07B0A4EB090068
:1020E000BDE8F08F284E554C4C290000134610B522
:1020F0000A464FF0FF31FFF7C9FE10BD00207047C0
:1021000000207047002070470020704710B5FEF790
:102110007DF8FFF7CFF9FFF77BFBFFF711FCFFF727
:10212000E7FBFFF763F9FFF717FCFFF77DFCFFF70D
:10213000F3FB002010BD10B5024600206FF02F0405
:1021400007E04B1C1360097800EB800004EB4000B3
:10215000084411680B78303B0A2BF2D310BD010202
:1021600002030405060708090A0B0C0D0E0F1010D8
:102170000000000000000000010203040607080937
:102180000000010002000100030001000200010044
:102190000400010002000100030001000200010030
:1021A000050001000200010003000100020001001F
:1021B0000400010002000100030001000200010010
:1021C00006000100020001000300010002000100FE
:1021D00004000100020001000300010002000100F0
:1021E00005000100020001000300010002000100DF
:1021F00004000100020001000300010002000100D0
:1022000007000100020001000300010002000100BC
:1022100004000100020001000300010002000100AF
:10222000050001000200010003000100020001009E
:10223000040001000200010003000100020001008F
:10224000060001000200010003000100020001007D
:10225000040001000200010003000100020001006F
:10226000050001000200010003000100020001005E
:10227000040001000200010003000100020001004F
:1022800030313233343536373839616263646566EC
:1022900000303132333435363738394142434445E2
:1022A000460000000921000801210008FD20000867
:1022B000B505000805210008D8220008000000200C
:1022C000980000006C0100087023000898000020AE
:1022D000A8130000880100080000000001000000B1
:1022E000100000000000000000127A000000000052
:1022F00000000000000000000000000000000000DE
:10230000280000202800002000000000010000003C
:102310003800002038000020780000000300000092
:1023200048000020480000202400000006000000B3
:1023300058000020580000203C0000000A00000067
:1023400068000020680000202C0000000000000051
:10235000000000000000000001000000000000007C
:10236000000000000000000000000000000000006D
:0400000508000131BD
:00000001FF
