:020000040800F2
:10000000D01A0020CD010008C5120008B90200086E
:10001000C1120008F50300083314000800000000B6
:10002000000000000000000000000000DF010008E8
:1000300055060008000000003B02000825130008D8
:10004000E7010008E7010008E7010008E7010008F0
:10005000E7010008E7010008E7010008E7010008E0
:10006000E7010008E7010008E7010008E7010008D0
:10007000E7010008E7010008E7010008E7010008C0
:10008000E7010008E7010008E7010008E7010008B0
:10009000E7010008E7010008E7010008E7010008A0
:1000A000E7010008E7010008E7010008E701000890
:1000B000E7010008E7010008E7010008E701000880
:1000C000E7010008E7010008E7010008E701000870
:1000D000E7010008E7010008E7010008E701000860
:1000E000E7010008E7010008E7010008E701000850
:1000F000E7010008E7010008E7010008E701000840
:10010000E7010008E7010008E7010008E70100082F
:10011000E7010008E7010008E7010008E70100081F
:10012000E7010008E7010008E7010008E70100080F
:1001300000F002F800F03AF80AA090E8000C8244BF
:100140008344AAF10107DA4501D100F02FF8AFF29C
:10015000090EBAE80F0013F0010F18BFFB1A43F0A5
:100160000103184794350000B4350000103A24BF4D
:1001700078C878C1FAD8520724BF30C830C144BF0C
:1001800004680C607047000000230024002500264E
:10019000103A28BF78C1FBD8520728BF30C148BFEA
:1001A0000B6070471FB51FBD10B510BD00F0DAF829
:1001B0001146FFF7F7FF00F00AF900F0F8F803B472
:1001C000FFF7F2FF03BC00F0FBF80000094880478E
:1001D00009480047FEE7FEE7FEE7FEE7FEE7FEE729
:1001E000FEE7FEE7FEE7FEE704480549054A064B41
:1001F000704700003114000831010008D0140020BD
:10020000D01A0020D0160020D0160020EFF3108066
:1002100072B6704780F310887047344A1368012B18
:1002200004D04FF001031360314A1060314A11606D
:1002300031484FF0805101607047EFF3108272B681
:100240002A48016891B14FF0000101602848016817
:1002500029B1EFF3098121E9F00F00680160254918
:1002600009680968B1E8F00F81F3098882F3108802
:100270004EF0040E70471F4908601D494FF0000002
:1002800008601A494FF0010008601C481C49D0F86A
:10029000002041EA0201016017484FF080510160DF
:1002A00018480068006880F3088861B662B6BFF33A
:1002B0004F8FBFF36F8F70471EF0040F0CBFEFF32B
:1002C0000880EFF3098020E9F00F40F804ED1EF0FC
:1002D000040F0CBF80F3088880F3098800B501F093
:1002E000D3FE5DF804EB4EF0040E7047740000205E
:1002F0006C0000207000002004ED00E020ED00E024
:100300000000FFFF08ED00E04FF0000200B51346CB
:1003100094469646203922BFA0E80C50A0E80C5025
:10032000B1F12001BFF4F7AF090728BFA0E80C50D6
:1003300048BF0CC05DF804EB890028BF40F8042BCF
:1003400008BF704748BF20F8022B11F0804F18BF3C
:1003500000F8012B7047704770477047004870479E
:10036000701400207546FFF7F9FFAE460500694698
:10037000534620F00700854618B020B5FFF734FF3C
:10038000BDE820404FF000064FF000074FF0000896
:100390004FF0000B21F00701AC46ACE8C009ACE817
:1003A000C009ACE8C009ACE8C0098D46704710B57B
:1003B0000446AFF300802046BDE81040FFF7FFBEC3
:1003C00001491820ABBEFEE726000200704710B5B9
:1003D00002F091FF002010BD054A116800E0096C91
:1003E0000029FCD1024A12680264014A1060704779
:1003F0000000002000BFFEE710B507290AD1002346
:1004000005E000F1180444F823205C1CE3B2072B3C
:10041000F7DB03E000F1180343F8212010BD2DE9BC
:10042000F04105460C4616461F4644212046FFF77C
:100430006BFF10222946201D00F05AFF207D20F07E
:100440000F0009302075207D20F0F00090302075DD
:100450000920A0752660607D67F301006075206843
:100460008047617D60F383016175002084F83A0064
:100470002046FFF7B1FFBDE8F08170B50446206863
:1004800080470546607DC0F38100A84226D094F8DD
:100490003A00401CC0B284F83A0002281EDB607D9E
:1004A00065F383006075002084F83A00207D00F039
:1004B0000F00092804D0207D00F00F00022804D18D
:1004C000207D20F00F00207508E0207D00F00F0057
:1004D00020B9207D20F00F00401C2075207D00F009
:1004E0000F0020B1012829D002287ED16CE0607D68
:1004F000C0F38100617D01F0030188421DD100201D
:10050000A07594F83B00401CC0B284F83B00322830
:1005100013DB94F83C0038B9012084F83C00606A91
:1005200010B12046616A88470320A07594F83B000B
:10053000FF2802D1322084F83B005BE0A07D78BB2D
:1005400094F839000F2816DC207D0221B1EB101F32
:1005500011D10220A075206A10B12046216A884777
:10056000207D20F00F0009302075207D20F0F00064
:100570009030207527E0002084F8390084F83B0093
:10058000A06910B12046A1698847207D20F00F00A6
:10059000801C2075207D20F0F0002030207512E0B6
:1005A000FFE7A07D03280ED1002084F83C0084F8EA
:1005B0003B00207D20F00F0009302075207D20F0C9
:1005C000F0003030207515E014F8390F401C207011
:1005D00014F839090F280BDB207D20F00F000930BB
:1005E0002075207D20F0F00000E002E090302075C2
:1005F00000E000BF00BF70BD10B50548046803E00F
:100600002046FFF73AFF246C002CF9D110BD000002
:10061000000000201FB514200F214FF40072084B7A
:10062000CDE90032CDE902100023064A06A10848B0
:1006300002F05CFA064802F0C3FA002004B010BDD4
:100640006C01002045180008627574746F6E00001C
:10065000F4000020704772B600BFFEE72DE9F847AE
:10066000024600239C467BE14FF0010808FA03F4A0
:10067000D1F8008008EA0400A0427DD1DFF8F4A29E
:10068000D1F80480A8EB0A09D0453AD014DCB8F1BF
:10069000030F50D009DCB8F1000F31D0B8F1010FD1
:1006A0001CD0B8F1020F49D120E0B8F1110F18D0D9
:1006B000B8F1120F42D11EE0B9F5881F25D006DC33
:1006C000B9F5803F20D0B9F5801F37D11AE0B9F5D0
:1006D000001F18D0B9F5041F30D117E0D1F80CC0B5
:1006E0002DE0D1F80C8008F1040C28E0D1F80C8042
:1006F00008F1080C23E0D1F80C8008F10C0C1EE086
:1007000000BF00BF00BF00BF00BF00BFD1F808801E
:10071000B8F1000F02D14FF0040C0BE0D1F80880C3
:10072000B8F1010F03D14FF0080C146102E04FF053
:10073000080C546103E04FF0000C00E000BF00BF64
:10074000FF2801D8904601E002F104084646FF2840
:1007500002D84FEA830803E0A3F108084FEA8808AB
:100760004746D6F800804FF00F0909FA07F928EA42
:1007700009080CFA07F900E07AE048EA0908C6F827
:100780000080D1F8048008F08058B8F1805F6FD104
:1007900000BFDFF8E481D8F8188048F00108DFF8DE
:1007A000D891C9F81880C846D8F8188008F0010810
:1007B000CDF8008000BF00BF4FEAB9384FEA930977
:1007C00058F829504FEA83784FEA18794FF00F080C
:1007D00008FA09F825EA0805DFF8A081424502D1A8
:1007E0004FF0000824E0DFF89881424502D14FF035
:1007F00001081DE0DFF88C81424502D14FF002086C
:1008000016E0DFF88481424502D14FF003080FE083
:10081000DFF87881424502D14FF0040808E0DFF8A4
:100820007081424502D14FF0050801E04FF0060803
:100830004FEA83794FEA197908FA09F848EA050579
:10084000DFF850814FEA930948F82950D1F8048025
:1008500008F48018B8F5801F0BD1DFF83C81D8F878
:10086000008048EA0008DFF83091C9F800800AE00B
:1008700075E0DFF82481D8F8008028EA0008DFF866
:100880001891C9F80080D1F8048008F40018B8F570
:10089000001F0ED1DFF8008108F10408D8F80080AD
:1008A00048EA0008DFF8F09009F10409C9F800806F
:1008B0000DE0DFF8E48008F10408D8F8008028EAA9
:1008C0000008DFF8D49009F10409C9F80080D1F8D4
:1008D000048008F40038B8F5003F0ED1DFF8B88086
:1008E000A8F10408D8F8008048EA0008DFF8A890CA
:1008F000A9F10409C9F800800DE0DFF89C80A8F197
:100900000408D8F8008028EA0008DFF88C90A9F1E4
:100910000409C9F80080D1F8048008F48038B8F5DB
:10092000803F0ED1DFF87080A8F10808D8F8008069
:1009300048EA0008DFF86090A9F10809C9F80080CA
:100940000DE0DFF85480A8F10808D8F8008028EA04
:100950000008DFF84490A9F10809C9F800805B1C81
:10096000D1F8008028FA03F8B8F1000F7FF47CAECC
:10097000BDE8F88700001110001002400008014097
:10098000000C01400010014000140140001801401B
:10099000001C014008000140080401400246936821
:1009A0000B400BB1012000E00020704710B5C26879
:1009B00021EA020302EA010443EA0443036110BD91
:1009C0000AB1016101E00B0403617047014800684E
:1009D000704700005C00002010B50848006840F037
:1009E000100006490860032000F098F8002000F08D
:1009F00007F800F02BF8002010BD00000020024096
:100A000070B504460E4800784FF47A71B1FBF0F0EF
:100A10000C490968B1FBF0F5284600F0C9FB08B1A4
:100A2000012070BD102C07D200222146501E00F07C
:100A300037F80548046001E00120F2E70020F0E704
:100A400064000020680000206000002008B500BF9E
:100A50001148806940F001000F49886108468069AB
:100A600000F00100009000BF00BF00BF0846C06951
:100A700040F08050C8610846C06900F08050009086
:100A800000BF00BF00BF0549486820F0E06040F0AB
:100A90000070486000BF08BD001002400000014027
:100AA0002DE9F05F80460D461646002700F0C4FC95
:100AB000074639462A46334601F00700C0F1070AC7
:100AC000BAF1040F02D94FF0040A01E0C0F1070A9D
:100AD000D14600F1040ABAF1070F02D24FF0000A22
:100AE00001E0A0F1030AD4464FF0010A0AFA09FA1C
:100AF000AAF1010A0AEA020A0AFA0CFA4FF0010BFB
:100B00000BFA0CFBABF1010B0BEA030B4AEA0B04EB
:100B10002146404600F098FCBDE8F09F00BF00F081
:100B20000702064B19684FF6FF031940044B0B43AD
:100B300043EA0221014B196000BF70470CED00E051
:100B40000000FA0570B504460D460CB9012070BDD1
:100B50005A48006800F00700A8420ED257480068C3
:100B600020F007002843554908600846006800F057
:100B70000700A84201D00120E9E7207800F0020038
:100B800002281DD1207800F00400042805D14C482B
:100B9000406840F4E0604A494860207800F008006E
:100BA000082805D14648406840F4605044494860F0
:100BB0004348406820F0F000A1680843404948607D
:100BC000207800F0010078B36068012806D13C4825
:100BD000006800F4003090B90120B8E7606802288E
:100BE00006D13748006800F0007040B90120AEE738
:100BF0003348006800F0020008B90120A7E7304838
:100C0000406820F00300616808432D494860FFF701
:100C1000DDFE064609E0FFF7D9FE801B41F2883170
:100C2000884202D9032092E707E02548406800F097
:100C30000C006168B0EB810FEDD12048006800F036
:100C40000700A8420ED91D48006820F0070028437D
:100C50001A4908600846006800F00700A84201D061
:100C6000012074E7207800F00400042807D114481C
:100C7000406820F4E060E16808431149486020784A
:100C800000F00800082808D10D48406820F46050A2
:100C9000216940EAC1000A49486000F01FF808498C
:100CA0004968C1F30311074A515CC840064908600E
:100CB00006480068FFF7A4FE002048E70020024035
:100CC00000100240A13500086800002060000020EC
:100CD00001480068704700006800002070B50021DE
:100CE0000022002400230020134D696801F00C0548
:100CF000F5B1042D02D0082D19D101E00F4819E0FB
:100D00000F4DC1F38346AB5D01F4803555B10A4DFB
:100D10006D68C5F340450B4E725D084D5D43B5FBF4
:100D2000F2F402E0084D03FB05F4204602E000BFA8
:100D3000024800BF00BF70BD0010024000127A00E0
:100D40008F3500089F35000800093D00F8B50446BE
:100D50000CB90120F8BD207800F00100002878D0FF
:100D6000F848406800F00C0004280CD0F5484068B2
:100D700000F00C00082811D1F248406800F48030DF
:100D8000B0F5803F0AD1EF48006800F40030002839
:100D90005FD0606800285CD10120DBE700BF60689D
:100DA000B0F5803F06D1E748006840F48030E5495F
:100DB000086028E0606858B9E248006820F4803094
:100DC000E04908600846006820F4802008601AE0C6
:100DD0006068B0F5A02F0BD1DA48006840F480209D
:100DE000D84908600846006840F4803008600AE08E
:100DF000D448006820F48030D24908600846006872
:100E000020F48020086000BF606888B1FFF7DEFD35
:100E1000054606E0FFF7DAFD401B642801D90320F0
:100E200098E7C848006800F400300028F2D010E0CD
:100E3000FFF7CCFD054606E0FFF7C8FD401B642820
:100E400001D9032086E7BF48006800F4003000287D
:100E5000F2D1207800F00200022857D1B94840684A
:100E600000F00C0050B1B748406800F00C000828B2
:100E700018D1B448406800F4803098B9B14800688F
:100E800000F0020020B12069012801D0012061E7B3
:100E9000AC48006820F0F800616940EAC100A94947
:100EA000086033E02069E8B10120A7490860FFF736
:100EB0008DFD054606E0FFF789FD401B022801D99C
:100EC000032047E79F48006800F002000028F2D0A6
:100ED0009C48006820F0F800616940EAC100994927
:100EE000086013E0002098490860FFF76FFD054691
:100EF00006E0FFF76BFD401B022801D9032029E71C
:100F00009048006800F002000028F2D1207800F03C
:100F1000080008282DD1A069B8B101208B490860CC
:100F2000FFF754FD054606E0FFF750FD401B022881
:100F300001D903200EE78348406A00F00200002830
:100F4000F2D0012000F0C0F913E000207F490860D2
:100F5000FFF73CFD054606E0FFF738FD401B022881
:100F600001D90320F6E67748406A00F00200002825
:100F7000F2D1207800F00400042873D100277148D2
:100F8000C06900F0805070B900BF6E48C06940F081
:100F900080506C49C8610846C06900F080500090DC
:100FA00000BF00BF01276A48006800F48070B0B934
:100FB0006748006840F4807065490860FFF706FDE7
:100FC000054606E0FFF702FD401B642801D9032017
:100FD000C0E65F48006800F480700028F2D000BFCF
:100FE000E068012806D15748006A40F001005549E1
:100FF000086227E0E06858B95248006A20F0010012
:10100000504908620846006A20F00400086219E0AE
:10101000E06805280BD14B48006A40F004004949BC
:1010200008620846006A40F0010008620AE045488C
:10103000006A20F00100434908620846006A20F077
:101040000400086200BFE068A0B1FFF7BFFC0546DE
:1010500009E0FFF7BBFC401B41F28831884202D90E
:10106000032077E622E03748006A00F002000028FB
:10107000EFD012E0FFF7AAFC054608E0FFF7A6FC58
:10108000401B41F28831884201D9032062E62D4895
:10109000006A00F002000028F0D1012F05D1294894
:1010A000C06920F080502749C86100BFE069C8B31B
:1010B0002448406800F00C00082860D0E06902284D
:1010C00048D1002020490866FFF780FC054606E06D
:1010D000FFF77CFC401B022801D903203AE619489F
:1010E000006800F000700028F2D1206AB0F5803F5F
:1010F00007D11448406820F40030A1680843114922
:101100004860D4E9080108430E49496821F4741184
:1011100008430C49486001200B490866FFF756FC5C
:10112000054607E03DE0FFF751FC401B022801D9CE
:1011300003200FE60348006800F000700028F2D09A
:101140002FE00000001002400000424280044242B2
:1011500000700040002014490866FFF737FC054680
:1011600006E0FFF733FC401B022801D90320F1E51C
:101170000E48006800F000700028F2D111E0E0692C
:10118000012800D1E6E50948466806F48031206A66
:10119000814204D106F47011606A814201D00120BD
:1011A000D8E50020D6E500000000424200100240D1
:1011B00070B504462546681EB0F1807F01D301203A
:1011C0000FE0681E4FF0E02148610F214FF0FF3023
:1011D00000F03AF900204FF0E02188610720086113
:1011E000002070BD00B585B00020019002900390F2
:1011F000049000BF2F48806940F010002D4988619D
:101200000846806900F01000009000BF00BF00BFDA
:101210000846806940F0040088610846806900F053
:101220000400009000BF00BF00BF0846806940F086
:10123000080088610846806900F00800009000BF3F
:1012400000BF00224FF442611B48FFF7B9FB0022A8
:10125000F0211A48FFF7B4FB0F2001900020029004
:10126000039001A91448FFF7F9F94FF44260019087
:1012700001200290002003900220049001A90E4852
:10128000FFF7ECF9F020019001200290002003907C
:101290000220049001A90948FFF7E0F94FF400701B
:1012A000019000200290039001A90448FFF7D6F9AD
:1012B00005B000BD0010024000100140000C0140CC
:1012C00000BFFEE700BFFEE708B508490968C90886
:1012D0004FF47A72B1FBF2F14143009100BF00BFBD
:1012E00000994A1E00920029F9D108BD680000202B
:1012F00070B50346A2B118460C4600BF14F8016B46
:1013000000F8016B3EB902E0002500F8015B551EB4
:101310002A1EF9D102E0551E2A1EEFD100BF00BFE0
:10132000184670BD10B500F0E9FE01F0A3FC00F016
:10133000F5FE10BD00B58FB0282105A8FEF7E4FF2B
:1013400014216846FEF7E0FF022005900120099075
:1013500010200A9000200C9005A8FFF7F7FC08B1B8
:10136000FFF779F90F2000900020019002904FF4D0
:10137000806003900020049000216846FFF7E2FBA4
:1013800008B1FFF768F90FB000BD000010B50021EB
:1013900000200022214B5B6803F00C0121B10429DD
:1013A00006D0082928D107E01D4B1E4C236027E0FA
:1013B0001B4B1C4C236023E0184B5B6803F470103C
:1013C000164B5B6803F48032022303EB904022B992
:1013D000154B4343134C23600DE0104B5B6803F443
:1013E000003323B1104B43430E4C236003E00C4BFE
:1013F00043430C4C236003E0094B0A4C236000BFBD
:1014000000BF064B5B68C3F30313084CE15C054B5C
:101410001B68CB40034C236010BD0000001002404D
:1014200000127A006800002000093D00A135000884
:10143000704700BFFEE7000002480068C0F30220CA
:10144000704700000CED00E010B5002804DB0A072F
:10145000130E054A135406E00A07140E034A00F05F
:101460000F031B1FD45410BD00E400E018ED00E092
:10147000014609B900207047C8B220B1C8B20E4A6F
:10148000105C401CF7E701F47F4028B10A48C1F323
:101490000722805C0930EEE701F47F0028B106489E
:1014A000C1F30742805C1130E5E7034800EB1160AF
:1014B00000781930DFE70000B935000870B5044640
:1014C0002068A0F11405284601F034FB002070BD0F
:1014D0002DE9F04105460C469046204601F084FB7C
:1014E000B8F1000F03D0B8F1010F23D105E004F1EA
:1014F0001401284600F02FFE1DE02E680FE0A6F133
:10150000140794F8350097F83510884206DA04F18C
:10151000140107F1140000F01EFE02E03668AE422E
:10152000EDD100BFAE4204D104F11401284600F011
:1015300012FE00E000BF00BF0020BDE8F08110B542
:10154000044604F1140000F0F9FD002010BD000075
:1015500070B5044606480068FFF78AFF451E054837
:1015600050F83500A0F114062560304670BD00002B
:10157000CC000020F810002070B501F0F9FA044604
:10158000FEF744FE0546204601F01CF904F1440034
:1015900001F01EFC042084F83400204601F04CFACF
:1015A0002846FEF737FE01F031F870BD2DE9FC5FEB
:1015B00004468B4615461E46DDE90D9ADDF830805F
:1015C0000F9F04F114004060006000BF2562666256
:1015D000C4F82880C4F82C902321D4E90A0200F032
:1015E00021FED4E90A3C63441A1F0E4BD4E90801DA
:1015F00000F05CFDE06184F835A00020A063E763A3
:101600002764206384F834002067606700902346D5
:10161000054A2146019004F1440001F0EDFB002051
:10162000BDE8FC9F791500082D16000870B504462A
:101630002546FEF7EBFD06466FF00100286305F135
:10164000140000F09FFD284601F06EF83046FEF7CA
:10165000E1FD00F0DBFF70BD2DE9F04704460E46CA
:1016600017469846DDF8209084F80990607A20F0BB
:1016700001006072E66127620020A062C4F8248045
:10168000002506E004F1140101EBC50000F059FD4E
:101690006D1C012DF6DBBDE8F0872DE9F041044615
:1016A0000D46FEF7B3FD0746204600F063FD50B936
:1016B0002068A0F11406B06A28603846FEF7AAFD3B
:1016C0000020BDE8F0813846FEF7A4FD4FF0FF3062
:1016D000F7E770B50546002406E005F1140101EBBB
:1016E000C40000F058FD641C012CF6DB70BD000046
:1016F00008B51EE069460F48FFF7CFFF38B101F08B
:1017000037FA044601F070FA00F080FF0FE001F0B4
:10171000ABFA04460098001B6FF00041884205D2E6
:101720000098001B0090009801F094F900BF01F0B0
:1017300075F8DFE7E800002010B504462CB101225F
:1017400020210548FFF73CF904E00022202102484F
:10175000FFF736F910BD00000010014008B50BE09E
:101760004FF0FF3301226946044800F0B8FD18B974
:101770009DF8000000F048F8F2E700007C0A002025
:101780001FB5002032210346114ACDE9001011A1F6
:10179000134801F031FB002010210123114ACDE94B
:1017A000001011A1124800F061FD14208022114B9D
:1017B000CDE901200093039000230F4A0FA11148A7
:1017C00001F094F90F4801F0FBF9002004B010BDBE
:1017D00039180008626565705F74696D6572000094
:1017E000C80A0020B80A002065635F6D73670000B7
:1017F0007C0A0020FC0900205D1700086265657006
:10180000000000008409002010B50446012C03D11B
:10181000034801F009FB00E000BF00BF10BD00005D
:10182000C80A002001B501226946024800F0E8FD1F
:1018300008BD00007C0A002010B504460020FFF718
:101840007BFF10BD00231E4A1E491FA0FEF7E7FDC7
:101850001F4A00211B48FEF7CFFD00231D4A1E49E9
:101860001EA0FEF7DCFD204A00211B48FEF7C4FD48
:1018700000231E4A1E491FA0FEF7D1FD1F4A00216A
:101880001B48FEF7B9FD00231D4A1E491EA0FEF7A6
:10189000C6FD204A00211B48FEF7AEFD00231E4A6C
:1018A0001E491FA0FEF7BBFD1F4A00211B48FEF783
:1018B000A3FD04E0FEF7A0FE142001F031F9F9E7E2
:1018C000751D00086C0300206B65795F7570000062
:1018D000691D0008F11C0008B00300206B65795FEA
:1018E000646F776E00000000E51C0008591D0008B9
:1018F000F40300206B65795F6F6B0000211D000809
:10190000D51C0008380400206B65795F6261636B49
:1019100000000000A91C00080D1D00087C04002028
:101920006D616E75616C0000011D000810B520220C
:101930000021024800F076FC10BD00006409002080
:101940002DE9F047054688461B4810F808A00024FA
:101950002DE00120A04000EA0A0098B1C5EBC500C7
:101960001649084410F804904FEA191609F00F07B9
:10197000701EC6B2781EC7B201223946304600F04A
:1019800065F813E0C5EBC5000C49084410F8049055
:101990004FEA191609F00F07701EC6B2781EC7B2BB
:1019A00000223946304600F051F800BF641C072C75
:1019B000CFDBBDE8F0870000843500081F00002061
:1019C0002DE9F04304460D46072603274FF00C0887
:1019D0004FF00309012C05D12A463946304600F064
:1019E00035F806E0022C04D12A464946404600F06C
:1019F0002DF8BDE8F083000070B504460E46142CA7
:101A00001CDA0F48055DFF2D17D028090D49087015
:101A100005F00F000C4908700A480078401E09497B
:101A2000087009480078401E074908703246084689
:101A300001780448007800F009F800BF70BD00008C
:101A40000B000020580000205900002070B503460C
:101A500018460C463AB1084D2D5C0126A640354388
:101A6000054E355406E0044D2D5C0126A640B543D5
:101A7000014E355470BD00006409002010B50024EB
:101A800005E0044A115DE0B200F0DAF8641C202C95
:101A9000F7DB10BD6409002010B504460022402188
:101AA0000D48FEF78DFF012000F026FB2CB101222E
:101AB00080210948FEF784FF04E0002280210648C7
:101AC000FEF77EFF012240210348FEF779FF012047
:101AD00000F012FB10BD0000000C014070B5044680
:101AE0000D46002623E0002240211248FEF768FF41
:101AF000012000F001FB04F0800028B101228021C8
:101B00000C48FEF75DFF04E0002280210948FEF743
:101B100057FF012000F0F0FA012240210548FEF7AE
:101B20004FFF012000F0E8FA6006040E761CAE427A
:101B3000D9DB70BD000C014070B504460D4600268F
:101B400022E0002240211248FEF73AFF012000F077
:101B5000D3FA04F0010028B1012280210C48FEF7DD
:101B60002FFF04E0002280210948FEF729FF012011
:101B700000F0C2FA012240210548FEF721FF0120B2
:101B800000F0BAFA6410761CAE42DADB70BD0000D9
:101B9000000C014070B5044625460022102114486F
:101BA000FEF70EFF012000F0A7FA0120FFF774FFF7
:101BB0000020FFF771FF0020FFF76EFF0020FFF706
:101BC0006BFF002606E005F08000FFF765FF680662
:101BD000050E761C082EF6DB012000F08DFA01229E
:101BE00010210348FEF7ECFE012000F085FA70BDDD
:101BF000000C014010B5012210211048FEF7E0FE54
:101C0000012240210D48FEF7DBFE012280210B4816
:101C1000FEF7D6FE0A2000F01DFF0220FFF7BAFFF4
:101C20000720FFF7B7FF3020FFF7B4FF5220FFF780
:101C3000B1FF052000F074FF10BD0000000C014052
:101C400070B504460D46002210211648FEF7B8FE76
:101C5000012000F051FA0321A020FFF73FFF0120EF
:101C600000F04AFAA106080E0621FFF737FF01200F
:101C700000F042FA04212846FFF75EFF012000F041
:101C80003BFA012210210748FEF79AFE012000F0DE
:101C900033FA012240210348FEF792FE012000F0B2
:101CA0002BFA70BD000C014010B504460120FFF76F
:101CB000B9FD07480078012802D0022805D100E0CC
:101CC00004E0012001F0DEFB00E000BF00BF10BD1A
:101CD0000800002010B508210148FEF75FFE10BD86
:101CE0000010014010B504460120FFF79BFD10BD18
:101CF00010B502210148FEF751FE10BD0010014051
:101D000010B504460120FFF78DFD10BD10B54FF44E
:101D100000710248FEF742FE10BD0000000C0140B9
:101D200010B504460120FFF77DFD0A480078012820
:101D300002D002280AD106E0022001F0A3FB002015
:101D40000449887003E001F0C7FB00E000BF00BF5A
:101D500010BD00000800002010B501210148FEF769
:101D60001DFE10BD0010014010B504460120FFF714
:101D700059FD10BD10B504210148FEF70FFE10BD3E
:101D800000100140FEF728FEFFF7D4FAFFF72AFA09
:101D900008E04FF47A7000F05DFE4FF48061024875
:101DA000FEF704FEF5E700000010014010B5044600
:101DB00000F0FEF8FFF7E6FF10BD00002DE9F04F40
:101DC00086B00D469C46DDE9106401960F9B04F039
:101DD0004008B8F1000F02D0DFF8708101E0DFF8B1
:101DE0007081CDF8008004F01008B8F1000F01D028
:101DF00024F0010404F00108B8F1000F02D04FF004
:101E0000300801E04FF02008C246002704F0020825
:101E1000B8F1000F11D0002A02DA2D2752420CE04F
:101E200004F00408B8F1000F01D02B2705E004F0FE
:101E30000808B8F1000F00D02027002142B94FF068
:101E4000300B8846491C0DF1080909F808B01DE05F
:101E50001AE0E146B9F10A0F08D14FF00A0BB2FBC4
:101E6000FBFE0BFB1E28B2FBFBF202E002F00F08A8
:101E7000120900BFDDF8009019F808B08846491C27
:101E80000DF1080909F808B0002AE2D1B14200DDDD
:101E90000E469B1B04F01108B8F1000F10D117B1CA
:101EA000002B00DD5B1E06E0A84203D24FF02008A5
:101EB00080F80080401CB3F10008A3F10103F3DCBB
:101EC00027B1A84200D207705B1E401C04F0100826
:101ED000B8F1000F0AD104E0A84201D280F800A0B6
:101EE000401CB3F10008A3F10103F5DC06E0A842B1
:101EF00003D24FF0300880F80080401CB046761EB8
:101F00008845F4DC08E0A84205D20DF1080818F86D
:101F1000018080F80080401CB1F10008A1F10101AE
:101F200004DDDDF80480B8F1000FECD106E0A84232
:101F300003D24FF0200880F80080401CB3F1000865
:101F4000A3F10103F3DC06B0BDE8F08FCA36000848
:101F5000B93600087FB50A4C14200A214FF480627C
:101F6000084BCDE90032CDE902100023064A07A153
:101F7000204600F0BBFD0546204600F021FE7FBD57
:101F8000F80E0020F80A0020AD1D00086D61696E92
:101F90000000000010B5044C02E020688047241DBA
:101FA00002488442F9D310BDE0360008E436000848
:101FB00010B5044C02E020688047241D024884428A
:101FC000F9D310BDE4360008F436000870B512E00D
:101FD00000F014FD044604B90EE0256F204600F021
:101FE0000BFB0646012E02D1204600F0AAFA0DB1E5
:101FF0002046A84700BFEBE700BF70BD10B5FEF755
:1020000005F9044604480088401C00B202490880D3
:102010002046FEF7FFF810BDD000002010B5FEF7F7
:10202000F5F804460C480088401E00B20A490880B2
:102030000846B0F9000000280ADC0020088020468D
:10204000FEF7E8F80548006828B100F0DFFA02E082
:102050002046FEF7DFF810BDD0000020D40000209D
:1020600010B5FEF7B9FCFFF765F9FFF78FF9FEF73A
:102070002FFE4FF47A71B0FBF1F42046FFF798F889
:10208000FFF788FF10BD000070B50446261D064806
:10209000006838B12046044909688847054605B9F3
:1020A00070BD00BF00BFFEE778000020F0B5044619
:1020B0000D461646301D20F007004038014600222C
:1020C00003E00C4F41F82270521C102AF9D30D6224
:1020D0004FF0000CC1F824C0C1F828C0C1F82CC0D2
:1020E000C1F830C04B638C634FF0807CC1F83CC0BA
:1020F000F0BD0000EFBEADDE7047000010B5FEF78A
:1021000085F8044604480078401C034908702046BE
:10211000FEF780F810BD00008800002010B5FEF723
:1021200075F8044604480078401E034908702046AC
:10213000FEF770F810BD00008800002040600060CD
:1021400070474060006070470268516002680A6032
:102150000160486070474268116042684A604160AF
:102160000860704701460868884201D10120704725
:102170000020FCE701460868884201D10120704731
:102180000020FCE7D0E900215160D0E90012116085
:10219000406000607047D0E900215160D0E9001232
:1021A00011604060006070472DE9F0410F4616460F
:1021B00004463D463346102B28D305F0030C04F0AB
:1021C00003084CEA080CBCF1000F1FD121462A4637
:1021D00010E052F804CB41F804CB52F804CB41F89C
:1021E00004CB52F804CB41F804CB52F804CB41F8AD
:1021F00004CB103B102BECD204E052F804CB41F896
:1022000004CB1B1F042BF8D20C46154603E015F82F
:1022100001CB04F801CBB3F1000CA3F10103F6D11B
:10222000BDE8F081F0B50C460546E6B2042A15D3A8
:1022300000F0030797B9014646EA062343EA034341
:1022400004E008C108C108C108C1103A102AF8D238
:1022500001E008C1121F042AFBD20D4601E005F877
:10226000016B171EA2F10102F9D1F0BD2DE9F05F5B
:1022700004460F4690469946DDE90AAB3A460621E8
:10228000204600F089F984F809B02046FFF757F995
:10229000C4F81C8009F1030020F003002084208C86
:1022A000001DBAFBF0F060840020A062E0622063B1
:1022B000002608E0208C001DE16906FB0015206B5C
:1022C00028602563761C608CB042F3DC0020A0847B
:1022D00004F13400FFF732FF0020BDE8F09F2DE944
:1022E000FF4704460F4690464FF0000900F040FCBF
:1022F0000546FDF78BFF8246A08C48B9039838B994
:102300005046FDF787FF6FF0010004B0BDE8F0878D
:102310003CE000202863039830B95046FDF77AFF6F
:102320006FF001002863F0E7627A294604F1140097
:10233000FFF7CEF8039800280CDD00F095FC8146ED
:1023400003AA002105F1440000F00EFD05F1440050
:1023500000F06AFD5046FDF75DFF00F057F9286B6D
:1023600008B1286BD1E7FDF751FF8246039800289A
:102370000CDD00F079FCA0EB09090398A0EB090043
:1023800003900398002801DA00200390A08C002815
:10239000BFD0A66A3068A062E06AB04201D10020D6
:1023A000E062A08C002802DDA08C401EA084504674
:1023B000FDF730FF208C404501D2208C00E04046E4
:1023C0000246311D3846FFF7EFFEFDF71FFF82463C
:1023D000206B3060266304F13400FFF7C3FE50B970
:1023E00004F13400FFF76AF85046FDF713FF00F0E0
:1023F0000DF9002089E75046FDF70CFF002084E727
:1024000070B504460D46164600233246294620463E
:1024100000F001F870BD2DE9FF470446894690465B
:10242000208C404504D24FF0FF3004B0BDE8F08767
:10243000002700F09DFB0646FDF7E8FE8246256B6F
:1024400035B9039820B95046FDF7E4FEF81EECE7D5
:1024500039E000203063039828B95046FDF7DAFED2
:102460006FF00200E1E7627A314604F13400FFF7D1
:102470002FF8039800280CDD00F0F6FB074603AAAE
:10248000002106F1440000F06FFC06F1440000F06A
:10249000CBFC5046FDF7BEFE00F0B8F8306B08B13B
:1024A000306BC2E7FDF7B2FE8246039800280ADDD2
:1024B00000F0DAFBC71B0398C01B039003980028A9
:1024C00001DA00200390206B051EC2D0286820632B
:1024D0005046FDF79FFE0020286042464946281DD1
:1024E000FFF762FEFDF792FE8246E06A08B1E06AFD
:1024F0000560E562A06A00B9A562A08C4FF6FF7185
:10250000884203DAA08C401CA08405E05046FDF709
:1025100081FE6FF0020088E704F11400FFF722FE4D
:1025200050B904F11400FEF7C9FF5046FDF772FEE2
:1025300000F06CF8002078E75046FDF76BFE0020B5
:1025400073E770B5044600202072FDF75FFE054674
:1025500004F10C00D0E900215160D0E900121160B3
:102560004060006000BF2846FDF754FE70BD0000CB
:10257000024600210AE0074800EB01100078904273
:1025800003D1044800EB01107047491C0429F2DB19
:102590000020F9E78C0000202DE9F04704460D46A5
:1025A000904600262846FFF7E3FF0746FFF726FD83
:1025B0007E6802E0A6F10C003668381D8642F9D12B
:1025C000FFF72CFD45F0800020720822414620468E
:1025D00000F093F9FDF71AFE8146381D04F10C0155
:1025E0000268516002680A600160486000BF4846A6
:1025F000FDF710FEBDE8F0870146087A00F0800084
:1026000008B1012070470020FCE70000F8B5FDF795
:10261000FDFD06463F480088002875D13E48006809
:10262000002870D000276846FEF792FF04463B481A
:10263000006890F8340000F00700032825D13748DF
:10264000006890F835000099884202D23348046847
:1026500011E03248006890F835000099884209D1AD
:102660002E48006890F8340000F0080010B92B489C
:10267000046800E001272948006890F8340020F041
:1026800008002649096881F834002448006884421B
:1026900028D023490098087020480568046017B1C5
:1026A000284600F041F8204600F08CF894F83400F9
:1026B00020F0070040F0030084F834001948007847
:1026C00048B904F11C0105F11C00FDF7A6FD3046D8
:1026D000FDF7A0FD1CE004F11C0105F11C00FDF755
:1026E0009CFD0FE00D48006800F06CF80B48006896
:1026F00090F8340020F0070040F003000749096813
:1027000081F8340000BF00BF3046FDF783FD00BFF5
:10271000F8BD0000D0000020CC000020D400002034
:10272000D80000208800002070B50446FDF76EFD3B
:10273000054621480068844208D194F8340020F00E
:10274000070040F0030084F8340030E014F8340F40
:1027500020F0070040F00100207014F8340900F068
:10276000080070B194F83520144B03EBC20004F15B
:1027700014014268116042684A604160086000BF0D
:102780000EE094F835200D4B03EBC20004F1140168
:102790000268516002680A600160486000BF00BFC3
:1027A0000749A06B096808430549086000BF28462F
:1027B000FDF730FD70BD0000D4000020F8100020AF
:1027C000CC00002070B50446FDF720FD054604F15D
:1027D0001400D0E900215160D0E90012116040607E
:1027E000006000BF94F83510094A02EBC10001688F
:1027F000814201D1012100E0002129B10548A16BEE
:1028000000688843034908602846FDF703FD70BD52
:10281000F8100020CC000020704700007CB568460E
:10282000FFF78FFCFDF7F2FC064646E028480068FB
:10283000A0F1140400F018FA0546A06A281A6FF0F7
:102840000041884237D22046FEF743FF607A00F00D
:10285000020018B9607A20F00100607204F11401DE
:102860006846FFF771FC00201A4908703046FDF7F2
:10287000D1FCD4E907108847FDF7C8FC06460120C3
:10288000144908706846FFF775FC00B115E004F1C3
:102890001400FFF780FC607A00F0020060B1607AFB
:1028A00000F0010040B1607A20F001006072204623
:1028B00000F0BAFA00E005E000BF0548FFF75AFC57
:1028C0000028B3D000BF3046FDF7A4FC7CBD00005B
:1028D000E8000020E40000200FB438B5044606A844
:1028E00000902046009A059900F0F2FC0546002071
:1028F0000090284638BC5DF814FB70B50346A2B1C1
:1029000018460C4600BF14F8016B00F8016B3EB985
:1029100002E0002500F8015B551E2A1EF9D102E0F5
:10292000551E2A1EEFD100BF00BF184670BD000023
:102930000020094A1080014607E0084A02EBC10066
:102940004060006000BF481C01462029F5DB0020E4
:10295000034A106070470000D0000020F8100020EB
:10296000CC00002038B56846FEF7F2FD0446064864
:1029700004602046FFF726FF032084F8340004F1AA
:102980001C00FDF778FC38BDD400002010B50024F1
:1029900005E0044901EBC400FFF7D3FB641C002CE5
:1029A000F7D010BDDC0000201FB5002405E00D4964
:1029B00001EBC400FFF7C5FB641C002CF7D00A2014
:1029C0000421CA01084BCDE90032CDE902100023F1
:1029D000064A07A1084800F089F8074800F0F0F817
:1029E0001FBD0000E800002070120020F116000852
:1029F00074696D6572000000F811002070B5002543
:102A00000C4C2068A04213D02068A0F11405FDF7FB
:102A1000FDFB064605F11400D0E900215160D0E924
:102A2000001211604060006000BF3046FDF7F2FB0D
:102A3000284670BD800000200246054802F11401BE
:102A40000368596003680B600160486000BF70470D
:102A50008000002010B50446204600F08FF810BD1D
:102A60000CE0002405E0064850F8245005B1A847C2
:102A7000641C042CF7D3FFF7A9FA00BFF1E70000AC
:102A8000E810002010B586B0002420E0224612A1F4
:102A900004A8FFF721FF20211F22CB00104800EBE4
:102AA0000420CDE9013203910090C4EB04110D4ADA
:102AB00002EBC10000230C4A04A900F017F8C4EB94
:102AC0000411084A02EBC10000F07AF8641C002CE3
:102AD000DCD006B010BD00007469646C652564002C
:102AE000E80F0020700F0020612A00082DE9FF5F29
:102AF00005460C4616461F46DDE910ABDDE90E899A
:102B0000224601212846FFF747FD3B463246214633
:102B100028468DE8000FFEF749FD04B0BDE8F09FA0
:102B200070B50446204600F083F80546284600F0BC
:102B300025F870BD70B5044694F8340000F0070025
:102B4000022802D04FF0FF3070BDFDF75FFB054655
:102B500004F11400FFF716FB04F1440000F000FA42
:102B60002046FFF7E1FD2846FDF754FB0020EBE788
:102B70000148006870470000D400002031B5FFF71D
:102B8000F7FF0446FDF742FB054600202063204680
:102B900000F02AF86A46002104F1440000F0E4F84D
:102BA00004F1440000F040F92846FDF733FBFFF73D
:102BB0002DFD206B801C08B900202063206B38BDE0
:102BC00010B5044694F8351001208840A063022017
:102BD00084F834002046FFF7ADFFFFF7C9FF08B1C6
:102BE000FFF714FD002010BD70B5044694F83400C2
:102BF00000F00705012D04D0032D02D04FF0FF3067
:102C000070BDFDF703FB06462046FFF7DBFD94F899
:102C1000340020F0070040F0020084F8340004F192
:102C2000440000F09DF93046FDF7F4FA0020E7E794
:102C30000146002902DA4FF0FF3014E04FF47A72B7
:102C400091FBF2F24FF47A7302FB03F01A4691FB08
:102C5000F2F302FB13124FF47A735A4302F2E73293
:102C600092FBF3F21044704701480068704700007F
:102C70007C00002070B5FDF7C9FA054610480068D1
:102C8000401C0F490860FFF773FF0446206C401E8C
:102C90002064206C68B9E06B206494F8340040F044
:102CA000080084F834002846FDF7B4FAFFF7AEFCBC
:102CB00002E02846FDF7AEFA00F004F870BD00000F
:102CC0007C0000207CB56846FFF73BFAFFF7CCFF9D
:102CD0000546FDF79BFA06463AE022480068A0F157
:102CE0001404A06A281A6FF0004188422ED22046B0
:102CF000FEF7EFFC607A00F0020018B9607A20F06D
:102D00000100607204F114016846FFF71DFAD4E96E
:102D100007108847FFF7A8FF05466846FFF72AFA1D
:102D200000B115E004F11400FFF735FA607A00F005
:102D3000020060B1607A00F0010040B1607A20F0DA
:102D400001006072204600F06FF800E005E000BF6F
:102D50000448FFF70FFA0028BFD000BF3046FDF748
:102D600059FA7CBDDC0000202DE9F04104460E46F6
:102D70001546FDF74BFA0746062E21D2DFE806F08E
:102D80000603090E131D606A28601AE02868606255
:102D900017E0607A20F00200607212E0607A40F082
:102DA000020060720DE0607A00F0010010B10120B5
:102DB000286001E00020286003E0A06A286000E0AD
:102DC00000BF00BF3846FDF725FA0020BDE8F081BE
:102DD00070B50446FDF71AFA05462046FEF779FC61
:102DE000607A20F0010060722846FDF713FA204651
:102DF000FFF7A7FB002070BD2DE9F84307460C46FE
:102E000015461E46DDE9088922460A213846FFF7A5
:102E1000C3FB4346324629463846CDF80090FEF7BC
:102E20001BFCBDE8F88300002DE9F84305464FF090
:102E30000008FDF7EBF981462846FEF74AFC687A60
:102E400020F001006872FFF70FFF696A0844A8626A
:102E5000687A00F0040008B13C4E00E03C4E009659
:102E600000242AE019E05DF824201168142202EB06
:102E7000C402881A826AAB6AD21A00D108E0826A58
:102E8000AB6AD21A6FF000439A4200D20CE000BF46
:102E90005DF8240000684DF824005DF8240006EB7E
:102EA000C40149688842DED100BF2CB15DF824001E
:102EB0000830611C4DF82100641C002CD2D025483C
:102EC0000068401C234908600846076805F11401A2
:102ED0000098FFF739F9022412E007F0030060B907
:102EE000C4F1010305F1140202EBC301C4F10102B4
:102EF0005DF82200FFF728F900E003E0BF08641C3A
:102F0000012CEAD900BF687A40F001006872687A43
:102F100000F0040078B11048007801280BD10F4868
:102F200090F8340000F00700022804D10B48FFF7A6
:102F300001FE4FF001084846FDF76CF9B8F1000FAB
:102F400001D0FFF763FB0020BDE8F883E800002014
:102F5000DC000020F0000020E4000020F811002038
:102F600070B50446607A00F0010010B94FF0FF30F0
:102F700070BDFDF74BF905462046FEF7AAFB607AC7
:102F800020F0010060722846FDF744F90020EFE7C9
:102F90002DE9FF4F89B081464C460A9809EB00069F
:102FA0004E4504D24FF0FF36A6EB09000A9077E1B8
:102FB0000B980078252806D0B44202D20B980078EE
:102FC0002070641C69E1002526E00B98401C0B90E2
:102FD0000B9800782D2802D145F010051CE00B98C5
:102FE00000782B2802D145F0040515E00B980078F5
:102FF000202802D145F008050EE00B980078232820
:1030000002D145F0200507E00B980078302802D166
:1030100045F0010500E000E0D7E700BF4FF0FF37C3
:103020000B98007830380A2804D20BA800F097FAE1
:1030300007460EE00B9800782A280AD10B98401C0E
:103040000B900C9880C80C90002F02DA7F4245F05C
:1030500010054FF0FF3A0B9800782E281CD10B98E2
:10306000401C0B900B98007830380A2804D20BA82B
:1030700000F075FA82460AE00B9800782A2806D1FB
:103080000B98401C0B900C9850F804AB0C90BAF1C4
:10309000000F01DA4FF0000A002004900B9800782E
:1030A000682803D00B9800786C2805D10B9800781D
:1030B00004900B98401C0B900A2005900B98007808
:1030C0006F2873D00CDC632813D004DC25286ED065
:1030D00058286DD195E064286BD06928F9D197E024
:1030E000702873D0732825D075286ED07828F0D139
:1030F0008AE005F0100040B904E0B44201D220207B
:103100002070641C781E071EF7DC0C9810F8041B56
:103110000C90C8B20790B44201D207982070641C8A
:1031200004E0B44201D220202070641C781E071EE7
:10313000F7DCB2E00C98006806900C98001D0C902B
:10314000069808B960A006904FF0000801E008F169
:103150000108B84504D0069810F808000028F6D1F8
:10316000BAF1000F02DDD04500DDD04605F01000B9
:1031700048B904E0B44201D220202070641C3846D3
:103180007F1E4045F6DC002008900BE0B44202D2DE
:10319000069800782070641C0698401C06900898D9
:1031A000401C089008984045F0DB09E026E01FE04D
:1031B00032E02CE00AE0B44201D220202070641CEE
:1031C00038467F1E4045F6DC67E024E0781C10B9E5
:1031D000082745F00105CDE9007A02950C9804C84E
:1031E000102331460C902046FEF7E8FD044654E0DB
:1031F000B44201D225202070641C4EE008200590C6
:103200001DE045F0400500BF1020059017E000BF0D
:1032100045F0020500BF12E0B44201D22520207023
:10322000641C0B98007830B1B44202D20B9800783D
:103230002070641C02E00B98401E0B902DE000BF34
:1032400004986C2807D10C9850F804BB0C9005F03A
:103250000200B8B116E0049868280BD10C9830F839
:10326000041B1FFA81FB0C9005F0020050B10FFA0D
:103270008BFB07E00C9850F804BB0C9005F00200A3
:1032800000B100BFCDE9007A02955A46314620468A
:10329000059BFEF793FD044600BF0B98401C0B9066
:1032A0000B98007800287FF483AE0A9838B1B442B6
:1032B00002D20020207002E0002006F8010CA4EBEE
:1032C00009000DB0BDE8F08F284E554C4C29000088
:1032D00037B505460C4622464FF0FF312846029B83
:1032E000FFF756FE3EBD00207047002070470020CB
:1032F00070470020704710B5FCF788FFFEF7B0FE5E
:10330000FFF78AFAFFF742FBFFF712FBFEF722FEF8
:10331000FFF74AFBFFF7B6FBFFF724FB002010BDC9
:1033200070B50446632C00DD63240A2094FBF0F0A2
:10333000C5B20A2094FBF0F100FB1140C6B2294649
:103340000120FEF7FDFA31460220FEF7F9FA70BDC2
:1033500010B500F035F810BD70B50446632C00DDE3
:1033600063240A2094FBF0F0C5B20A2094FBF0F12C
:1033700000FB1140C6B229460320FEF7E1FA3146B0
:103380000420FEF7DDFA70BD10B50C48807830B12E
:10339000012807D0022808D003280CD108E000F04B
:1033A000ADF809E000F0BBF806E000F0C8F803E073
:1033B00000F08AF800E000BF00BF10BD0800002048
:1033C00010B501210C20FEF717FB01210D20FEF79F
:1033D00013FB01211220FEF70FFB01211320FEF742
:1033E0000BFB01210846FEF7EBFA01210220FEF754
:1033F000E7FA0C20FFF794FF2D20FFF7ADFF10BD7B
:10340000002000F04DF86420FFF78AFBFEF7F2FB86
:103410000A4909780A4A52F821008047012000F041
:1034200031F80AE005490978054A52F82100804739
:10343000FEF724FB6420FFF773FBF3E7080000208E
:103440004C0000201FB5142010218A01084BCDE943
:103450000032CDE902100023064A07A10848FFF711
:1034600045FB0748FFF7ACFB002004B010BD00008F
:10347000640500200134000873637265656E000006
:10348000C004002010B50446FEF750FA014804704D
:1034900010BD00000800002010B5FEF747FA10BD6F
:1034A00010B5044634B900224FF400610548FDF719
:1034B00087FA04E00122D1020248FDF781FA0020D8
:1034C00010BD00000010014010B50020FFF728FFDC
:1034D0000020FFF741FF10BD10B5FEF727FA0648A0
:1034E0008078401C0449887008468078042801DBF5
:1034F0000020887010BD00000800002010B50121D8
:103500000C20FEF779FA01211220FEF775FA01214D
:103510000846FEF755FA0C20FFF702FF10BD10B564
:1035200001210620FEF768FA01210820FEF764FA5F
:103530000020FFF7F5FE0020FFF70EFF10BD10B5CD
:1035400001210620FEF758FA01210720FEF754FA60
:103550000020FFF7E5FE0020FFF7FEFE10BD01464C
:10356000002009E00B685A1C0A601A7800EB8003FF
:1035700002EB4302A2F130000A681278303A0A2ABC
:10358000F0D370473F065B4F666D7D077F6F00028B
:10359000030405060708090A0B0C0D0E0F10100195
:1035A00002000000000000000001020304060708FA
:1035B00009000000000102030400000100020001F4
:1035C00000030001000200010004000100020001EC
:1035D00000030001000200010005000100020001DB
:1035E00000030001000200010004000100020001CC
:1035F00000030001000200010006000100020001BA
:1036000000030001000200010004000100020001AB
:10361000000300010002000100050001000200019A
:10362000000300010002000100040001000200018B
:103630000003000100020001000700010002000178
:10364000000300010002000100040001000200016B
:10365000000300010002000100050001000200015A
:10366000000300010002000100040001000200014B
:103670000003000100020001000600010002000139
:10368000000300010002000100040001000200012B
:10369000000300010002000100050001000200011A
:1036A000000300010002000100040001000200010B
:1036B000000300010002000100303132333435369E
:1036C00037383961626364656600303132333435CE
:1036D000363738394142434445460000F33200084A
:1036E000EB320008E73200081506000845340008F0
:1036F00081170008EF32000818370008000000208A
:10370000F40000006C0100080C380008F4000020F0
:10371000DC19000088010008000000000000000023
:10372000000000001112131454535251222134642A
:10373000B4F3A4F2A2A1F100000000000000747331
:10374000727161636294939291818382C4C3C2C196
:10375000B1B3B2E4E3E2E1D1D3D2444342413133E5
:103760003200000099340008513300088933000802
:103770000000000000000000100000000100000038
:1037800000127A00000000000000000000000000AD
:1037900000000000000000008000002080000020E9
:1037A00000000000010000009000002090000020B8
:1037B0007800000003000000A0000020A00000200E
:1037C0002400000006000000B0000020B00000202F
:1037D0003C0000000A000000C0000020C0000020E3
:1037E0002C000000000000000000000000000000AD
:1037F00000000000000000000000000001000000C8
:0C380000000000000000000000000000BC
:0400000508000131BD
:00000001FF
